{
  "address": "0x002df74e669676D335076AE4d618c8d5678F7A96",
  "abi": [
    {
      "inputs": [
        {
          "internalType": "address",
          "name": "router",
          "type": "address"
        },
        {
          "internalType": "bytes32",
          "name": "_donId",
          "type": "bytes32"
        },
        {
          "internalType": "uint32",
          "name": "_gasLimit",
          "type": "uint32"
        },
        {
          "internalType": "uint64",
          "name": "_subscriptionId",
          "type": "uint64"
        },
        {
          "internalType": "address",
          "name": "requester",
          "type": "address"
        }
      ],
      "stateMutability": "nonpayable",
      "type": "constructor"
    },
    {
      "inputs": [],
      "name": "AccessControlBadConfirmation",
      "type": "error"
    },
    {
      "inputs": [
        {
          "internalType": "address",
          "name": "account",
          "type": "address"
        },
        {
          "internalType": "bytes32",
          "name": "neededRole",
          "type": "bytes32"
        }
      ],
      "name": "AccessControlUnauthorizedAccount",
      "type": "error"
    },
    {
      "inputs": [],
      "name": "EmptyArgs",
      "type": "error"
    },
    {
      "inputs": [],
      "name": "EmptySource",
      "type": "error"
    },
    {
      "inputs": [],
      "name": "NoInlineSecrets",
      "type": "error"
    },
    {
      "inputs": [],
      "name": "OnlyRouterCanFulfill",
      "type": "error"
    },
    {
      "inputs": [
        {
          "internalType": "bytes32",
          "name": "requestId",
          "type": "bytes32"
        }
      ],
      "name": "OracleConsumer__UnexpectedRequestID",
      "type": "error"
    },
    {
      "anonymous": false,
      "inputs": [
        {
          "indexed": true,
          "internalType": "bytes32",
          "name": "id",
          "type": "bytes32"
        }
      ],
      "name": "RequestFulfilled",
      "type": "event"
    },
    {
      "anonymous": false,
      "inputs": [
        {
          "indexed": true,
          "internalType": "bytes32",
          "name": "id",
          "type": "bytes32"
        }
      ],
      "name": "RequestSent",
      "type": "event"
    },
    {
      "anonymous": false,
      "inputs": [
        {
          "indexed": true,
          "internalType": "bytes32",
          "name": "requestId",
          "type": "bytes32"
        },
        {
          "indexed": false,
          "internalType": "bytes",
          "name": "response",
          "type": "bytes"
        },
        {
          "indexed": false,
          "internalType": "bytes",
          "name": "err",
          "type": "bytes"
        }
      ],
      "name": "Response",
      "type": "event"
    },
    {
      "anonymous": false,
      "inputs": [
        {
          "indexed": true,
          "internalType": "bytes32",
          "name": "role",
          "type": "bytes32"
        },
        {
          "indexed": true,
          "internalType": "bytes32",
          "name": "previousAdminRole",
          "type": "bytes32"
        },
        {
          "indexed": true,
          "internalType": "bytes32",
          "name": "newAdminRole",
          "type": "bytes32"
        }
      ],
      "name": "RoleAdminChanged",
      "type": "event"
    },
    {
      "anonymous": false,
      "inputs": [
        {
          "indexed": true,
          "internalType": "bytes32",
          "name": "role",
          "type": "bytes32"
        },
        {
          "indexed": true,
          "internalType": "address",
          "name": "account",
          "type": "address"
        },
        {
          "indexed": true,
          "internalType": "address",
          "name": "sender",
          "type": "address"
        }
      ],
      "name": "RoleGranted",
      "type": "event"
    },
    {
      "anonymous": false,
      "inputs": [
        {
          "indexed": true,
          "internalType": "bytes32",
          "name": "role",
          "type": "bytes32"
        },
        {
          "indexed": true,
          "internalType": "address",
          "name": "account",
          "type": "address"
        },
        {
          "indexed": true,
          "internalType": "address",
          "name": "sender",
          "type": "address"
        }
      ],
      "name": "RoleRevoked",
      "type": "event"
    },
    {
      "inputs": [],
      "name": "BM_REQUESTER_ROLE",
      "outputs": [
        {
          "internalType": "bytes32",
          "name": "",
          "type": "bytes32"
        }
      ],
      "stateMutability": "view",
      "type": "function"
    },
    {
      "inputs": [],
      "name": "DEFAULT_ADMIN_ROLE",
      "outputs": [
        {
          "internalType": "bytes32",
          "name": "",
          "type": "bytes32"
        }
      ],
      "stateMutability": "view",
      "type": "function"
    },
    {
      "inputs": [],
      "name": "bmSourceRequestCode",
      "outputs": [
        {
          "internalType": "string",
          "name": "",
          "type": "string"
        }
      ],
      "stateMutability": "view",
      "type": "function"
    },
    {
      "inputs": [],
      "name": "convertResponseToUint",
      "outputs": [
        {
          "internalType": "uint256",
          "name": "",
          "type": "uint256"
        }
      ],
      "stateMutability": "view",
      "type": "function"
    },
    {
      "inputs": [
        {
          "internalType": "bytes32",
          "name": "role",
          "type": "bytes32"
        }
      ],
      "name": "getRoleAdmin",
      "outputs": [
        {
          "internalType": "bytes32",
          "name": "",
          "type": "bytes32"
        }
      ],
      "stateMutability": "view",
      "type": "function"
    },
    {
      "inputs": [
        {
          "internalType": "bytes32",
          "name": "role",
          "type": "bytes32"
        },
        {
          "internalType": "address",
          "name": "account",
          "type": "address"
        }
      ],
      "name": "grantRole",
      "outputs": [],
      "stateMutability": "nonpayable",
      "type": "function"
    },
    {
      "inputs": [
        {
          "internalType": "bytes32",
          "name": "requestId",
          "type": "bytes32"
        },
        {
          "internalType": "bytes",
          "name": "response",
          "type": "bytes"
        },
        {
          "internalType": "bytes",
          "name": "err",
          "type": "bytes"
        }
      ],
      "name": "handleOracleFulfillment",
      "outputs": [],
      "stateMutability": "nonpayable",
      "type": "function"
    },
    {
      "inputs": [
        {
          "internalType": "bytes32",
          "name": "role",
          "type": "bytes32"
        },
        {
          "internalType": "address",
          "name": "account",
          "type": "address"
        }
      ],
      "name": "hasRole",
      "outputs": [
        {
          "internalType": "bool",
          "name": "",
          "type": "bool"
        }
      ],
      "stateMutability": "view",
      "type": "function"
    },
    {
      "inputs": [],
      "name": "lastError",
      "outputs": [
        {
          "internalType": "bytes",
          "name": "",
          "type": "bytes"
        }
      ],
      "stateMutability": "view",
      "type": "function"
    },
    {
      "inputs": [],
      "name": "lastRequestId",
      "outputs": [
        {
          "internalType": "bytes32",
          "name": "",
          "type": "bytes32"
        }
      ],
      "stateMutability": "view",
      "type": "function"
    },
    {
      "inputs": [],
      "name": "lastResponse",
      "outputs": [
        {
          "internalType": "bytes",
          "name": "",
          "type": "bytes"
        }
      ],
      "stateMutability": "view",
      "type": "function"
    },
    {
      "inputs": [
        {
          "internalType": "bytes32",
          "name": "role",
          "type": "bytes32"
        },
        {
          "internalType": "address",
          "name": "callerConfirmation",
          "type": "address"
        }
      ],
      "name": "renounceRole",
      "outputs": [],
      "stateMutability": "nonpayable",
      "type": "function"
    },
    {
      "inputs": [
        {
          "internalType": "bytes32",
          "name": "role",
          "type": "bytes32"
        },
        {
          "internalType": "address",
          "name": "account",
          "type": "address"
        }
      ],
      "name": "revokeRole",
      "outputs": [],
      "stateMutability": "nonpayable",
      "type": "function"
    },
    {
      "inputs": [
        {
          "internalType": "string[]",
          "name": "args",
          "type": "string[]"
        }
      ],
      "name": "sendRequest",
      "outputs": [
        {
          "internalType": "bytes32",
          "name": "requestId",
          "type": "bytes32"
        }
      ],
      "stateMutability": "nonpayable",
      "type": "function"
    },
    {
      "inputs": [
        {
          "internalType": "string",
          "name": "_bmSourceRequestCode",
          "type": "string"
        }
      ],
      "name": "setBMSourceRequestCode",
      "outputs": [],
      "stateMutability": "nonpayable",
      "type": "function"
    },
    {
      "inputs": [
        {
          "internalType": "bytes32",
          "name": "_donId",
          "type": "bytes32"
        }
      ],
      "name": "setDonId",
      "outputs": [],
      "stateMutability": "nonpayable",
      "type": "function"
    },
    {
      "inputs": [
        {
          "internalType": "uint32",
          "name": "_gasLimit",
          "type": "uint32"
        }
      ],
      "name": "setGasLimit",
      "outputs": [],
      "stateMutability": "nonpayable",
      "type": "function"
    },
    {
      "inputs": [
        {
          "internalType": "uint64",
          "name": "_subscriptionId",
          "type": "uint64"
        }
      ],
      "name": "setSubscriptionId",
      "outputs": [],
      "stateMutability": "nonpayable",
      "type": "function"
    },
    {
      "inputs": [
        {
          "internalType": "bytes4",
          "name": "interfaceId",
          "type": "bytes4"
        }
      ],
      "name": "supportsInterface",
      "outputs": [
        {
          "internalType": "bool",
          "name": "",
          "type": "bool"
        }
      ],
      "stateMutability": "view",
      "type": "function"
    }
  ],
  "transactionHash": "0xe668641099865f3da3555e3c892057edd1cb2ac6f48f2b0242f94b33f1e5d024",
  "args": [
    "0x234a5fb5Bd614a7AA2FfAB244D603abFA0Ac5C5C",
    "0x66756e2d617262697472756d2d7365706f6c69612d3100000000000000000000",
    300000,
    123,
    "0xE12c1c4D162cFd81D3a9667Dcab20bE8a6F4262C"
  ],
  "numDeployments": 3,
  "solcInputHash": "91d00034202948311182b57d822bcbde",
  "bytecode": "0x60a060405234801561000f575f80fd5b50604051611b51380380611b5183398101604081905261002e91610176565b6001600160a01b0385166080526100455f336100b2565b506100707fadeaa4f6edbc569c7ea86d399ee7fdbb28dba3aac25a2732ea7eb4e659e2b73d826100b2565b5050600192909255600280546001600160401b03909316640100000000026001600160601b031990931663ffffffff90921691909117919091179055506101e8565b5f828152602081815260408083206001600160a01b038516845290915281205460ff16610152575f838152602081815260408083206001600160a01b03861684529091529020805460ff1916600117905561010a3390565b6001600160a01b0316826001600160a01b0316847f2f8788117e7eff1d82e926ec794901d17c78024a50270940304540a733656f0d60405160405180910390a4506001610155565b505f5b92915050565b80516001600160a01b0381168114610171575f80fd5b919050565b5f805f805f60a0868803121561018a575f80fd5b6101938661015b565b945060208601519350604086015163ffffffff811681146101b2575f80fd5b60608701519093506001600160401b03811681146101ce575f80fd5b91506101dc6080870161015b565b90509295509295909350565b60805161194a6102075f395f81816102dd0152610bb0015261194a5ff3fe608060405234801561000f575f80fd5b506004361061011c575f3560e01c806362747e42116100a9578063b1b7f3c31161006e578063b1b7f3c314610252578063d547741f14610265578063d64bd83314610278578063ea7b4f7714610280578063fc2a88c314610293575f80fd5b806362747e421461021557806378ca5de71461021d57806391d14854146102305780639492c89314610243578063a217fddf1461024b575f80fd5b80632f2ff15d116100ef5780632f2ff15d146101a257806334f7e838146101b557806336568abe146101dc5780634c8f60a3146101ef57806352d84c6214610202575f80fd5b806301ffc9a7146101205780630ca7617514610148578063248a9ca31461015d57806329f0de3f1461018d575b5f80fd5b61013361012e3660046111ba565b61029c565b60405190151581526020015b60405180910390f35b61015b610156366004611297565b6102d2565b005b61017f61016b3660046112fe565b5f9081526020819052604090206001015490565b60405190815260200161013f565b610195610355565b60405161013f9190611343565b61015b6101b0366004611355565b6103e1565b61017f7fadeaa4f6edbc569c7ea86d399ee7fdbb28dba3aac25a2732ea7eb4e659e2b73d81565b61015b6101ea366004611355565b61040b565b61017f6101fd36600461138e565b610443565b61015b61021036600461145c565b610597565b6101956105be565b61015b61022b3660046112fe565b6105cb565b61013361023e366004611355565b6105db565b61017f610603565b61017f5f81565b61015b61026036600461147f565b6106a5565b61015b610273366004611355565b6106bc565b6101956106e0565b61015b61028e3660046114ea565b6106ed565b61017f60045481565b5f6001600160e01b03198216637965db0b60e01b14806102cc57506301ffc9a760e01b6001600160e01b03198316145b92915050565b336001600160a01b037f0000000000000000000000000000000000000000000000000000000000000000161461031b5760405163c6829f8360e01b815260040160405180910390fd5b610326838383610727565b60405183907f85e1543bf2f84fe80c6badbce3648c8539ad1df4d2b3d822938ca0538be727e6905f90a2505050565b6006805461036290611510565b80601f016020809104026020016040519081016040528092919081815260200182805461038e90611510565b80156103d95780601f106103b0576101008083540402835291602001916103d9565b820191905f5260205f20905b8154815290600101906020018083116103bc57829003601f168201915b505050505081565b5f828152602081905260409020600101546103fb816107aa565b61040583836107b7565b50505050565b6001600160a01b03811633146104345760405163334bd91960e11b815260040160405180910390fd5b61043e8282610846565b505050565b5f7fadeaa4f6edbc569c7ea86d399ee7fdbb28dba3aac25a2732ea7eb4e659e2b73d61046e816107aa565b6104ac6040805160e08101909152805f81526020015f81526020015f8152602001606081526020016060815260200160608152602001606081525090565b610547600380546104bc90611510565b80601f01602080910402602001604051908101604052809291908181526020018280546104e890611510565b80156105335780601f1061050a57610100808354040283529160200191610533565b820191905f5260205f20905b81548152906001019060200180831161051657829003601f168201915b5050505050826108af90919063ffffffff16565b8351156105585761055881856108bf565b610588610564826108e8565b6002546001546001600160401b036401000000008304169163ffffffff1690610bac565b60048190559250505b50919050565b5f6105a1816107aa565b506002805463ffffffff191663ffffffff92909216919091179055565b6005805461036290611510565b5f6105d5816107aa565b50600155565b5f918252602082815260408084206001600160a01b0393909316845291905290205460ff1690565b5f6005805461061190611510565b80601f016020809104026020016040519081016040528092919081815260200182805461063d90611510565b80156106885780601f1061065f57610100808354040283529160200191610688565b820191905f5260205f20905b81548152906001019060200180831161066b57829003601f168201915b50505050508060200190518101906106a09190611542565b905090565b5f6106af816107aa565b60036104058385836115a4565b5f828152602081905260409020600101546106d6816107aa565b6104058383610846565b6003805461036290611510565b5f6106f7816107aa565b50600280546001600160401b03909216640100000000026bffffffffffffffff0000000019909216919091179055565b60045483146107515760405163878da44b60e01b8152600481018490526024015b60405180910390fd5b600561075d838261165d565b50600661076a828261165d565b50827f7873807bf6ddc50401cd3d29bbe0decee23fd4d68d273f4b5eb83cded4d2f172838360405161079d92919061171c565b60405180910390a2505050565b6107b48133610c79565b50565b5f6107c283836105db565b61083f575f838152602081815260408083206001600160a01b03861684529091529020805460ff191660011790556107f73390565b6001600160a01b0316826001600160a01b0316847f2f8788117e7eff1d82e926ec794901d17c78024a50270940304540a733656f0d60405160405180910390a45060016102cc565b505f6102cc565b5f61085183836105db565b1561083f575f838152602081815260408083206001600160a01b0386168085529252808320805460ff1916905551339286917ff6391f5c32d9c69d2a47ea670b442974b53935d1edc7fd64eb21e047a839171b9190a45060016102cc565b6108bb825f8084610cb2565b5050565b80515f036108e05760405163fe936cb760e01b815260040160405180910390fd5b60a090910152565b60605f6108f6610100610d2f565b905061092f6040518060400160405280600c81526020016b31b7b232a637b1b0ba34b7b760a11b81525082610d4f90919063ffffffff16565b825161094d90600281111561094657610946611749565b8290610d68565b6040805180820190915260088152676c616e677561676560c01b6020820152610977908290610d4f565b604083015161098e90801561094657610946611749565b604080518082019091526006815265736f7572636560d01b60208201526109b6908290610d4f565b60608301516109c6908290610d4f565b60a08301515115610a51576040805180820190915260048152636172677360e01b60208201526109f7908290610d4f565b610a0081610da1565b5f5b8360a0015151811015610a4757610a3f8460a001518281518110610a2857610a2861175d565b602002602001015183610d4f90919063ffffffff16565b600101610a02565b50610a5181610dc5565b60808301515115610b14575f83602001516002811115610a7357610a73611749565b03610a915760405163a80d31f760e01b815260040160405180910390fd5b60408051808201909152600f81526e39b2b1b932ba39a637b1b0ba34b7b760891b6020820152610ac2908290610d4f565b610adb8360200151600281111561094657610946611749565b6040805180820190915260078152667365637265747360c81b6020820152610b04908290610d4f565b6080830151610b14908290610de3565b60c08301515115610ba45760408051808201909152600981526862797465734172677360b81b6020820152610b4a908290610d4f565b610b5381610da1565b5f5b8360c0015151811015610b9a57610b928460c001518281518110610b7b57610b7b61175d565b602002602001015183610de390919063ffffffff16565b600101610b55565b50610ba481610dc5565b515192915050565b5f807f00000000000000000000000000000000000000000000000000000000000000006001600160a01b031663461d27628688600188886040518663ffffffff1660e01b8152600401610c03959493929190611771565b6020604051808303815f875af1158015610c1f573d5f803e3d5ffd5b505050506040513d601f19601f82011682018060405250810190610c439190611542565b60405190915081907f1131472297a800fee664d1d89cfa8f7676ff07189ecc53f80bbb5f4969099db8905f90a295945050505050565b610c8382826105db565b6108bb5760405163e2517d3f60e01b81526001600160a01b038216600482015260248101839052604401610748565b80515f03610cd3576040516322ce3edd60e01b815260040160405180910390fd5b83836002811115610ce657610ce6611749565b90816002811115610cf957610cf9611749565b90525060408401828015610d0f57610d0f611749565b90818015610d1f57610d1f611749565b9052506060909301929092525050565b610d37611187565b8051610d439083610df0565b505f6020820152919050565b610d5c8260038351610e64565b815161043e9082610f7d565b8151610d759060c2610fa4565b506108bb8282604051602001610d8d91815260200190565b604051602081830303815290604052610de3565b610dac81600461100b565b600181602001818151610dbf91906117cd565b90525050565b610dd081600761100b565b600181602001818151610dbf91906117e0565b610d5c8260028351610e64565b60408051808201909152606081525f6020820152610e0f6020836117f3565b15610e3757610e1f6020836117f3565b610e2a9060206117e0565b610e3490836117cd565b91505b60208084018390526040518085525f8152908184010181811015610e59575f80fd5b604052509192915050565b6017816001600160401b031611610e8a5782516104059060e0600585901b168317610fa4565b60ff816001600160401b031611610eca578251610eb2906018611fe0600586901b1617610fa4565b508251610405906001600160401b0383166001611022565b61ffff816001600160401b031611610f0b578251610ef3906019611fe0600586901b1617610fa4565b508251610405906001600160401b0383166002611022565b63ffffffff816001600160401b031611610f4e578251610f3690601a611fe0600586901b1617610fa4565b508251610405906001600160401b0383166004611022565b8251610f6590601b611fe0600586901b1617610fa4565b508251610405906001600160401b0383166008611022565b60408051808201909152606081525f6020820152610f9d838384516110a4565b9392505050565b60408051808201909152606081525f60208201528251515f610fc78260016117cd565b905084602001518210610fe857610fe885610fe3836002611812565b611170565b8451602083820101858153508051821115611001578181525b5093949350505050565b815161043e90601f611fe0600585901b1617610fa4565b60408051808201909152606081525f60208201528351515f61104482856117cd565b905085602001518111156110615761106186610fe3836002611812565b5f600161107086610100611909565b61107a91906117e0565b90508651828101878319825116178152508051831115611098578281525b50959695505050505050565b60408051808201909152606081525f602082015282518211156110c5575f80fd5b8351515f6110d384836117cd565b905085602001518111156110f0576110f086610fe3836002611812565b85518051838201602001915f9180851115611109578482525b505050602086015b6020861061114957805182526111286020836117cd565b91506111356020826117cd565b90506111426020876117e0565b9550611111565b5181515f1960208890036101000a0190811690199190911617905250849150509392505050565b815161117c8383610df0565b506104058382610f7d565b60405180604001604052806111ae6040518060400160405280606081526020015f81525090565b81526020015f81525090565b5f602082840312156111ca575f80fd5b81356001600160e01b031981168114610f9d575f80fd5b634e487b7160e01b5f52604160045260245ffd5b604051601f8201601f191681016001600160401b038111828210171561121d5761121d6111e1565b604052919050565b5f6001600160401b0383111561123d5761123d6111e1565b611250601f8401601f19166020016111f5565b9050828152838383011115611263575f80fd5b828260208301375f602084830101529392505050565b5f82601f830112611288575f80fd5b610f9d83833560208501611225565b5f805f606084860312156112a9575f80fd5b8335925060208401356001600160401b03808211156112c6575f80fd5b6112d287838801611279565b935060408601359150808211156112e7575f80fd5b506112f486828701611279565b9150509250925092565b5f6020828403121561130e575f80fd5b5035919050565b5f81518084528060208401602086015e5f602082860101526020601f19601f83011685010191505092915050565b602081525f610f9d6020830184611315565b5f8060408385031215611366575f80fd5b8235915060208301356001600160a01b0381168114611383575f80fd5b809150509250929050565b5f602080838503121561139f575f80fd5b82356001600160401b03808211156113b5575f80fd5b818501915085601f8301126113c8575f80fd5b8135818111156113da576113da6111e1565b8060051b6113e98582016111f5565b9182528381018501918581019089841115611402575f80fd5b86860192505b8383101561144f5782358581111561141e575f80fd5b8601603f81018b1361142e575f80fd5b61143f8b8983013560408401611225565b8352509186019190860190611408565b9998505050505050505050565b5f6020828403121561146c575f80fd5b813563ffffffff81168114610f9d575f80fd5b5f8060208385031215611490575f80fd5b82356001600160401b03808211156114a6575f80fd5b818501915085601f8301126114b9575f80fd5b8135818111156114c7575f80fd5b8660208285010111156114d8575f80fd5b60209290920196919550909350505050565b5f602082840312156114fa575f80fd5b81356001600160401b0381168114610f9d575f80fd5b600181811c9082168061152457607f821691505b60208210810361059157634e487b7160e01b5f52602260045260245ffd5b5f60208284031215611552575f80fd5b5051919050565b601f82111561043e57805f5260205f20601f840160051c8101602085101561157e5750805b601f840160051c820191505b8181101561159d575f815560010161158a565b5050505050565b6001600160401b038311156115bb576115bb6111e1565b6115cf836115c98354611510565b83611559565b5f601f841160018114611600575f85156115e95750838201355b5f19600387901b1c1916600186901b17835561159d565b5f83815260208120601f198716915b8281101561162f578685013582556020948501946001909201910161160f565b508682101561164b575f1960f88860031b161c19848701351681555b505060018560011b0183555050505050565b81516001600160401b03811115611676576116766111e1565b61168a816116848454611510565b84611559565b602080601f8311600181146116bd575f84156116a65750858301515b5f19600386901b1c1916600185901b178555611714565b5f85815260208120601f198616915b828110156116eb578886015182559484019460019091019084016116cc565b508582101561170857878501515f19600388901b60f8161c191681555b505060018460011b0185555b505050505050565b604081525f61172e6040830185611315565b82810360208401526117408185611315565b95945050505050565b634e487b7160e01b5f52602160045260245ffd5b634e487b7160e01b5f52603260045260245ffd5b6001600160401b038616815260a060208201525f61179260a0830187611315565b61ffff9590951660408301525063ffffffff92909216606083015260809091015292915050565b634e487b7160e01b5f52601160045260245ffd5b808201808211156102cc576102cc6117b9565b818103818111156102cc576102cc6117b9565b5f8261180d57634e487b7160e01b5f52601260045260245ffd5b500690565b80820281158282048414176102cc576102cc6117b9565b600181815b8085111561186357815f1904821115611849576118496117b9565b8085161561185657918102915b93841c939080029061182e565b509250929050565b5f82611879575060016102cc565b8161188557505f6102cc565b816001811461189b57600281146118a5576118c1565b60019150506102cc565b60ff8411156118b6576118b66117b9565b50506001821b6102cc565b5060208310610133831016604e8410600b84101617156118e4575081810a6102cc565b6118ee8383611829565b805f1904821115611901576119016117b9565b029392505050565b5f610f9d838361186b56fea2646970667358221220afc3288a76e8c00af357273e51169e15c5dd700d88f5666bc657a07837c3de3f64736f6c63430008190033",
  "devdoc": {
    "errors": {
      "AccessControlBadConfirmation()": [
        {
          "details": "The caller of a function is not the expected one. NOTE: Don't confuse with {AccessControlUnauthorizedAccount}."
        }
      ],
      "AccessControlUnauthorizedAccount(address,bytes32)": [
        {
          "details": "The `account` is missing a role."
        }
      ]
    },
    "events": {
      "RoleAdminChanged(bytes32,bytes32,bytes32)": {
        "details": "Emitted when `newAdminRole` is set as ``role``'s admin role, replacing `previousAdminRole` `DEFAULT_ADMIN_ROLE` is the starting admin for all roles, despite {RoleAdminChanged} not being emitted signaling this."
      },
      "RoleGranted(bytes32,address,address)": {
        "details": "Emitted when `account` is granted `role`. `sender` is the account that originated the contract call, an admin role bearer except when using {AccessControl-_setupRole}."
      },
      "RoleRevoked(bytes32,address,address)": {
        "details": "Emitted when `account` is revoked `role`. `sender` is the account that originated the contract call:   - if using `revokeRole`, it is the admin role bearer   - if using `renounceRole`, it is the role bearer (i.e. `account`)"
      }
    },
    "kind": "dev",
    "methods": {
      "constructor": {
        "custom:oz-upgrades-unsafe-allow": "constructor",
        "params": {
          "_donId": "The data provider ID",
          "_gasLimit": "The gas limit for the request",
          "_subscriptionId": "The subscription ID",
          "requester": "The address allowed to request the benefit multiplier. Will be the takasure contract",
          "router": "The address of the Chainlink node"
        }
      },
      "getRoleAdmin(bytes32)": {
        "details": "Returns the admin role that controls `role`. See {grantRole} and {revokeRole}. To change a role's admin, use {_setRoleAdmin}."
      },
      "grantRole(bytes32,address)": {
        "details": "Grants `role` to `account`. If `account` had not been already granted `role`, emits a {RoleGranted} event. Requirements: - the caller must have ``role``'s admin role. May emit a {RoleGranted} event."
      },
      "handleOracleFulfillment(bytes32,bytes,bytes)": {
        "details": "Either response or error parameter will be set, but never both.",
        "params": {
          "err": "Aggregated error either from the request's source code or from the execution pipeline.",
          "requestId": "The requestId returned by FunctionsClient.sendRequest().",
          "response": "Aggregated response from the request's source code."
        }
      },
      "hasRole(bytes32,address)": {
        "details": "Returns `true` if `account` has been granted `role`."
      },
      "renounceRole(bytes32,address)": {
        "details": "Revokes `role` from the calling account. Roles are often managed via {grantRole} and {revokeRole}: this function's purpose is to provide a mechanism for accounts to lose their privileges if they are compromised (such as when a trusted device is misplaced). If the calling account had been revoked `role`, emits a {RoleRevoked} event. Requirements: - the caller must be `callerConfirmation`. May emit a {RoleRevoked} event."
      },
      "revokeRole(bytes32,address)": {
        "details": "Revokes `role` from `account`. If `account` had been granted `role`, emits a {RoleRevoked} event. Requirements: - the caller must have ``role``'s admin role. May emit a {RoleRevoked} event."
      },
      "sendRequest(string[])": {
        "params": {
          "args": "The user address to get the BM"
        }
      },
      "supportsInterface(bytes4)": {
        "details": "See {IERC165-supportsInterface}."
      }
    },
    "version": 1
  },
  "userdoc": {
    "kind": "user",
    "methods": {
      "convertResponseToUint()": {
        "notice": "a method convert the last response to an uint256"
      },
      "handleOracleFulfillment(bytes32,bytes,bytes)": {
        "notice": "Chainlink Functions response handler called by the Functions Router during fullilment from the designated transmitter node in an OCR round."
      },
      "sendRequest(string[])": {
        "notice": "Send a simple request"
      },
      "setDonId(bytes32)": {
        "notice": "the next set of functions are used to set the values of the contract"
      }
    },
    "version": 1
  },
  "storageLayout": {
    "storage": [
      {
        "astId": 2771,
        "contract": "contracts/takasure/oracle/BmFetcher.sol:BmFetcher",
        "label": "_roles",
        "offset": 0,
        "slot": "0",
        "type": "t_mapping(t_bytes32,t_struct(RoleData)2766_storage)"
      },
      {
        "astId": 8625,
        "contract": "contracts/takasure/oracle/BmFetcher.sol:BmFetcher",
        "label": "donId",
        "offset": 0,
        "slot": "1",
        "type": "t_bytes32"
      },
      {
        "astId": 8627,
        "contract": "contracts/takasure/oracle/BmFetcher.sol:BmFetcher",
        "label": "gasLimit",
        "offset": 0,
        "slot": "2",
        "type": "t_uint32"
      },
      {
        "astId": 8629,
        "contract": "contracts/takasure/oracle/BmFetcher.sol:BmFetcher",
        "label": "subscriptionId",
        "offset": 4,
        "slot": "2",
        "type": "t_uint64"
      },
      {
        "astId": 8631,
        "contract": "contracts/takasure/oracle/BmFetcher.sol:BmFetcher",
        "label": "bmSourceRequestCode",
        "offset": 0,
        "slot": "3",
        "type": "t_string_storage"
      },
      {
        "astId": 8633,
        "contract": "contracts/takasure/oracle/BmFetcher.sol:BmFetcher",
        "label": "lastRequestId",
        "offset": 0,
        "slot": "4",
        "type": "t_bytes32"
      },
      {
        "astId": 8635,
        "contract": "contracts/takasure/oracle/BmFetcher.sol:BmFetcher",
        "label": "lastResponse",
        "offset": 0,
        "slot": "5",
        "type": "t_bytes_storage"
      },
      {
        "astId": 8637,
        "contract": "contracts/takasure/oracle/BmFetcher.sol:BmFetcher",
        "label": "lastError",
        "offset": 0,
        "slot": "6",
        "type": "t_bytes_storage"
      }
    ],
    "types": {
      "t_address": {
        "encoding": "inplace",
        "label": "address",
        "numberOfBytes": "20"
      },
      "t_bool": {
        "encoding": "inplace",
        "label": "bool",
        "numberOfBytes": "1"
      },
      "t_bytes32": {
        "encoding": "inplace",
        "label": "bytes32",
        "numberOfBytes": "32"
      },
      "t_bytes_storage": {
        "encoding": "bytes",
        "label": "bytes",
        "numberOfBytes": "32"
      },
      "t_mapping(t_address,t_bool)": {
        "encoding": "mapping",
        "key": "t_address",
        "label": "mapping(address => bool)",
        "numberOfBytes": "32",
        "value": "t_bool"
      },
      "t_mapping(t_bytes32,t_struct(RoleData)2766_storage)": {
        "encoding": "mapping",
        "key": "t_bytes32",
        "label": "mapping(bytes32 => struct AccessControl.RoleData)",
        "numberOfBytes": "32",
        "value": "t_struct(RoleData)2766_storage"
      },
      "t_string_storage": {
        "encoding": "bytes",
        "label": "string",
        "numberOfBytes": "32"
      },
      "t_struct(RoleData)2766_storage": {
        "encoding": "inplace",
        "label": "struct AccessControl.RoleData",
        "members": [
          {
            "astId": 2763,
            "contract": "contracts/takasure/oracle/BmFetcher.sol:BmFetcher",
            "label": "hasRole",
            "offset": 0,
            "slot": "0",
            "type": "t_mapping(t_address,t_bool)"
          },
          {
            "astId": 2765,
            "contract": "contracts/takasure/oracle/BmFetcher.sol:BmFetcher",
            "label": "adminRole",
            "offset": 0,
            "slot": "1",
            "type": "t_bytes32"
          }
        ],
        "numberOfBytes": "64"
      },
      "t_uint32": {
        "encoding": "inplace",
        "label": "uint32",
        "numberOfBytes": "4"
      },
      "t_uint64": {
        "encoding": "inplace",
        "label": "uint64",
        "numberOfBytes": "8"
      }
    }
  }
}