{
  "address": "0x73559D29183a3a92Fd8602834543A9c35326fDFC",
  "abi": [
    {
      "inputs": [
        {
          "internalType": "address",
          "name": "router",
          "type": "address"
        },
        {
          "internalType": "bytes32",
          "name": "_donId",
          "type": "bytes32"
        },
        {
          "internalType": "uint32",
          "name": "_gasLimit",
          "type": "uint32"
        },
        {
          "internalType": "uint64",
          "name": "_subscriptionId",
          "type": "uint64"
        },
        {
          "internalType": "address",
          "name": "requester",
          "type": "address"
        }
      ],
      "stateMutability": "nonpayable",
      "type": "constructor"
    },
    {
      "inputs": [],
      "name": "AccessControlBadConfirmation",
      "type": "error"
    },
    {
      "inputs": [
        {
          "internalType": "address",
          "name": "account",
          "type": "address"
        },
        {
          "internalType": "bytes32",
          "name": "neededRole",
          "type": "bytes32"
        }
      ],
      "name": "AccessControlUnauthorizedAccount",
      "type": "error"
    },
    {
      "inputs": [],
      "name": "EmptyArgs",
      "type": "error"
    },
    {
      "inputs": [],
      "name": "EmptySource",
      "type": "error"
    },
    {
      "inputs": [],
      "name": "NoInlineSecrets",
      "type": "error"
    },
    {
      "inputs": [],
      "name": "OnlyRouterCanFulfill",
      "type": "error"
    },
    {
      "inputs": [
        {
          "internalType": "bytes32",
          "name": "requestId",
          "type": "bytes32"
        }
      ],
      "name": "OracleConsumer__UnexpectedRequestID",
      "type": "error"
    },
    {
      "anonymous": false,
      "inputs": [
        {
          "indexed": true,
          "internalType": "bytes32",
          "name": "id",
          "type": "bytes32"
        }
      ],
      "name": "RequestFulfilled",
      "type": "event"
    },
    {
      "anonymous": false,
      "inputs": [
        {
          "indexed": true,
          "internalType": "bytes32",
          "name": "id",
          "type": "bytes32"
        }
      ],
      "name": "RequestSent",
      "type": "event"
    },
    {
      "anonymous": false,
      "inputs": [
        {
          "indexed": true,
          "internalType": "bytes32",
          "name": "requestId",
          "type": "bytes32"
        },
        {
          "indexed": false,
          "internalType": "bytes",
          "name": "response",
          "type": "bytes"
        },
        {
          "indexed": false,
          "internalType": "bytes",
          "name": "err",
          "type": "bytes"
        }
      ],
      "name": "Response",
      "type": "event"
    },
    {
      "anonymous": false,
      "inputs": [
        {
          "indexed": true,
          "internalType": "bytes32",
          "name": "role",
          "type": "bytes32"
        },
        {
          "indexed": true,
          "internalType": "bytes32",
          "name": "previousAdminRole",
          "type": "bytes32"
        },
        {
          "indexed": true,
          "internalType": "bytes32",
          "name": "newAdminRole",
          "type": "bytes32"
        }
      ],
      "name": "RoleAdminChanged",
      "type": "event"
    },
    {
      "anonymous": false,
      "inputs": [
        {
          "indexed": true,
          "internalType": "bytes32",
          "name": "role",
          "type": "bytes32"
        },
        {
          "indexed": true,
          "internalType": "address",
          "name": "account",
          "type": "address"
        },
        {
          "indexed": true,
          "internalType": "address",
          "name": "sender",
          "type": "address"
        }
      ],
      "name": "RoleGranted",
      "type": "event"
    },
    {
      "anonymous": false,
      "inputs": [
        {
          "indexed": true,
          "internalType": "bytes32",
          "name": "role",
          "type": "bytes32"
        },
        {
          "indexed": true,
          "internalType": "address",
          "name": "account",
          "type": "address"
        },
        {
          "indexed": true,
          "internalType": "address",
          "name": "sender",
          "type": "address"
        }
      ],
      "name": "RoleRevoked",
      "type": "event"
    },
    {
      "inputs": [],
      "name": "BM_REQUESTER_ROLE",
      "outputs": [
        {
          "internalType": "bytes32",
          "name": "",
          "type": "bytes32"
        }
      ],
      "stateMutability": "view",
      "type": "function"
    },
    {
      "inputs": [],
      "name": "DEFAULT_ADMIN_ROLE",
      "outputs": [
        {
          "internalType": "bytes32",
          "name": "",
          "type": "bytes32"
        }
      ],
      "stateMutability": "view",
      "type": "function"
    },
    {
      "inputs": [],
      "name": "bmSourceRequestCode",
      "outputs": [
        {
          "internalType": "string",
          "name": "",
          "type": "string"
        }
      ],
      "stateMutability": "view",
      "type": "function"
    },
    {
      "inputs": [
        {
          "internalType": "bytes32",
          "name": "role",
          "type": "bytes32"
        }
      ],
      "name": "getRoleAdmin",
      "outputs": [
        {
          "internalType": "bytes32",
          "name": "",
          "type": "bytes32"
        }
      ],
      "stateMutability": "view",
      "type": "function"
    },
    {
      "inputs": [
        {
          "internalType": "bytes32",
          "name": "role",
          "type": "bytes32"
        },
        {
          "internalType": "address",
          "name": "account",
          "type": "address"
        }
      ],
      "name": "grantRole",
      "outputs": [],
      "stateMutability": "nonpayable",
      "type": "function"
    },
    {
      "inputs": [
        {
          "internalType": "bytes32",
          "name": "requestId",
          "type": "bytes32"
        },
        {
          "internalType": "bytes",
          "name": "response",
          "type": "bytes"
        },
        {
          "internalType": "bytes",
          "name": "err",
          "type": "bytes"
        }
      ],
      "name": "handleOracleFulfillment",
      "outputs": [],
      "stateMutability": "nonpayable",
      "type": "function"
    },
    {
      "inputs": [
        {
          "internalType": "bytes32",
          "name": "role",
          "type": "bytes32"
        },
        {
          "internalType": "address",
          "name": "account",
          "type": "address"
        }
      ],
      "name": "hasRole",
      "outputs": [
        {
          "internalType": "bool",
          "name": "",
          "type": "bool"
        }
      ],
      "stateMutability": "view",
      "type": "function"
    },
    {
      "inputs": [],
      "name": "lastError",
      "outputs": [
        {
          "internalType": "bytes",
          "name": "",
          "type": "bytes"
        }
      ],
      "stateMutability": "view",
      "type": "function"
    },
    {
      "inputs": [],
      "name": "lastRequestId",
      "outputs": [
        {
          "internalType": "bytes32",
          "name": "",
          "type": "bytes32"
        }
      ],
      "stateMutability": "view",
      "type": "function"
    },
    {
      "inputs": [],
      "name": "lastResponse",
      "outputs": [
        {
          "internalType": "bytes",
          "name": "",
          "type": "bytes"
        }
      ],
      "stateMutability": "view",
      "type": "function"
    },
    {
      "inputs": [
        {
          "internalType": "bytes32",
          "name": "role",
          "type": "bytes32"
        },
        {
          "internalType": "address",
          "name": "callerConfirmation",
          "type": "address"
        }
      ],
      "name": "renounceRole",
      "outputs": [],
      "stateMutability": "nonpayable",
      "type": "function"
    },
    {
      "inputs": [
        {
          "internalType": "bytes32",
          "name": "role",
          "type": "bytes32"
        },
        {
          "internalType": "address",
          "name": "account",
          "type": "address"
        }
      ],
      "name": "revokeRole",
      "outputs": [],
      "stateMutability": "nonpayable",
      "type": "function"
    },
    {
      "inputs": [
        {
          "internalType": "string[]",
          "name": "args",
          "type": "string[]"
        }
      ],
      "name": "sendRequest",
      "outputs": [
        {
          "internalType": "bytes32",
          "name": "requestId",
          "type": "bytes32"
        }
      ],
      "stateMutability": "nonpayable",
      "type": "function"
    },
    {
      "inputs": [
        {
          "internalType": "string",
          "name": "_bmSourceRequestCode",
          "type": "string"
        }
      ],
      "name": "setBMSourceRequestCode",
      "outputs": [],
      "stateMutability": "nonpayable",
      "type": "function"
    },
    {
      "inputs": [
        {
          "internalType": "bytes32",
          "name": "_donId",
          "type": "bytes32"
        }
      ],
      "name": "setDonId",
      "outputs": [],
      "stateMutability": "nonpayable",
      "type": "function"
    },
    {
      "inputs": [
        {
          "internalType": "uint32",
          "name": "_gasLimit",
          "type": "uint32"
        }
      ],
      "name": "setGasLimit",
      "outputs": [],
      "stateMutability": "nonpayable",
      "type": "function"
    },
    {
      "inputs": [
        {
          "internalType": "uint64",
          "name": "_subscriptionId",
          "type": "uint64"
        }
      ],
      "name": "setSubscriptionId",
      "outputs": [],
      "stateMutability": "nonpayable",
      "type": "function"
    },
    {
      "inputs": [
        {
          "internalType": "bytes4",
          "name": "interfaceId",
          "type": "bytes4"
        }
      ],
      "name": "supportsInterface",
      "outputs": [
        {
          "internalType": "bool",
          "name": "",
          "type": "bool"
        }
      ],
      "stateMutability": "view",
      "type": "function"
    }
  ],
  "transactionHash": "0x13247cc35904fa9ffbefb33dea38e8aba203afefee2d9f7d9a8e5596d15730e9",
  "args": [
    "0x234a5fb5Bd614a7AA2FfAB244D603abFA0Ac5C5C",
    "0x66756e2d617262697472756d2d7365706f6c69612d3100000000000000000000",
    300000,
    123,
    "0x3904F59DF9199e0d6dC3800af9f6794c9D037eb1"
  ],
  "numDeployments": 2,
  "solcInputHash": "9a0bed5176add28076c3747c042dc8ab",
  "bytecode": "0x60a060405234801561000f575f80fd5b50604051611a9c380380611a9c83398101604081905261002e91610176565b6001600160a01b0385166080526100455f336100b2565b506100707fadeaa4f6edbc569c7ea86d399ee7fdbb28dba3aac25a2732ea7eb4e659e2b73d826100b2565b5050600192909255600280546001600160401b03909316640100000000026001600160601b031990931663ffffffff90921691909117919091179055506101e8565b5f828152602081815260408083206001600160a01b038516845290915281205460ff16610152575f838152602081815260408083206001600160a01b03861684529091529020805460ff1916600117905561010a3390565b6001600160a01b0316826001600160a01b0316847f2f8788117e7eff1d82e926ec794901d17c78024a50270940304540a733656f0d60405160405180910390a4506001610155565b505f5b92915050565b80516001600160a01b0381168114610171575f80fd5b919050565b5f805f805f60a0868803121561018a575f80fd5b6101938661015b565b945060208601519350604086015163ffffffff811681146101b2575f80fd5b60608701519093506001600160401b03811681146101ce575f80fd5b91506101dc6080870161015b565b90509295509295909350565b6080516118956102075f395f81816102ca0152610afb01526118955ff3fe608060405234801561000f575f80fd5b5060043610610111575f3560e01c806362747e421161009e578063b1b7f3c31161006e578063b1b7f3c31461023f578063d547741f14610252578063d64bd83314610265578063ea7b4f771461026d578063fc2a88c314610280575f80fd5b806362747e421461020a57806378ca5de71461021257806391d1485414610225578063a217fddf14610238575f80fd5b80632f2ff15d116100e45780632f2ff15d1461019757806334f7e838146101aa57806336568abe146101d15780634c8f60a3146101e457806352d84c62146101f7575f80fd5b806301ffc9a7146101155780630ca761751461013d578063248a9ca31461015257806329f0de3f14610182575b5f80fd5b610128610123366004611105565b610289565b60405190151581526020015b60405180910390f35b61015061014b3660046111e2565b6102bf565b005b610174610160366004611249565b5f9081526020819052604090206001015490565b604051908152602001610134565b61018a610342565b604051610134919061128e565b6101506101a53660046112a0565b6103ce565b6101747fadeaa4f6edbc569c7ea86d399ee7fdbb28dba3aac25a2732ea7eb4e659e2b73d81565b6101506101df3660046112a0565b6103f8565b6101746101f23660046112d9565b610430565b6101506102053660046113a7565b610584565b61018a6105ab565b610150610220366004611249565b6105b8565b6101286102333660046112a0565b6105c8565b6101745f81565b61015061024d3660046113ca565b6105f0565b6101506102603660046112a0565b610607565b61018a61062b565b61015061027b366004611435565b610638565b61017460045481565b5f6001600160e01b03198216637965db0b60e01b14806102b957506301ffc9a760e01b6001600160e01b03198316145b92915050565b336001600160a01b037f000000000000000000000000000000000000000000000000000000000000000016146103085760405163c6829f8360e01b815260040160405180910390fd5b610313838383610672565b60405183907f85e1543bf2f84fe80c6badbce3648c8539ad1df4d2b3d822938ca0538be727e6905f90a2505050565b6006805461034f9061145b565b80601f016020809104026020016040519081016040528092919081815260200182805461037b9061145b565b80156103c65780601f1061039d576101008083540402835291602001916103c6565b820191905f5260205f20905b8154815290600101906020018083116103a957829003601f168201915b505050505081565b5f828152602081905260409020600101546103e8816106f5565b6103f28383610702565b50505050565b6001600160a01b03811633146104215760405163334bd91960e11b815260040160405180910390fd5b61042b8282610791565b505050565b5f7fadeaa4f6edbc569c7ea86d399ee7fdbb28dba3aac25a2732ea7eb4e659e2b73d61045b816106f5565b6104996040805160e08101909152805f81526020015f81526020015f8152602001606081526020016060815260200160608152602001606081525090565b610534600380546104a99061145b565b80601f01602080910402602001604051908101604052809291908181526020018280546104d59061145b565b80156105205780601f106104f757610100808354040283529160200191610520565b820191905f5260205f20905b81548152906001019060200180831161050357829003601f168201915b5050505050826107fa90919063ffffffff16565b83511561054557610545818561080a565b61057561055182610833565b6002546001546001600160401b036401000000008304169163ffffffff1690610af7565b60048190559250505b50919050565b5f61058e816106f5565b506002805463ffffffff191663ffffffff92909216919091179055565b6005805461034f9061145b565b5f6105c2816106f5565b50600155565b5f918252602082815260408084206001600160a01b0393909316845291905290205460ff1690565b5f6105fa816106f5565b60036103f28385836114d8565b5f82815260208190526040902060010154610621816106f5565b6103f28383610791565b6003805461034f9061145b565b5f610642816106f5565b50600280546001600160401b03909216640100000000026bffffffffffffffff0000000019909216919091179055565b600454831461069c5760405163878da44b60e01b8152600481018490526024015b60405180910390fd5b60056106a88382611591565b5060066106b58282611591565b50827f7873807bf6ddc50401cd3d29bbe0decee23fd4d68d273f4b5eb83cded4d2f17283836040516106e8929190611650565b60405180910390a2505050565b6106ff8133610bc4565b50565b5f61070d83836105c8565b61078a575f838152602081815260408083206001600160a01b03861684529091529020805460ff191660011790556107423390565b6001600160a01b0316826001600160a01b0316847f2f8788117e7eff1d82e926ec794901d17c78024a50270940304540a733656f0d60405160405180910390a45060016102b9565b505f6102b9565b5f61079c83836105c8565b1561078a575f838152602081815260408083206001600160a01b0386168085529252808320805460ff1916905551339286917ff6391f5c32d9c69d2a47ea670b442974b53935d1edc7fd64eb21e047a839171b9190a45060016102b9565b610806825f8084610bfd565b5050565b80515f0361082b5760405163fe936cb760e01b815260040160405180910390fd5b60a090910152565b60605f610841610100610c7a565b905061087a6040518060400160405280600c81526020016b31b7b232a637b1b0ba34b7b760a11b81525082610c9a90919063ffffffff16565b82516108989060028111156108915761089161167d565b8290610cb3565b6040805180820190915260088152676c616e677561676560c01b60208201526108c2908290610c9a565b60408301516108d99080156108915761089161167d565b604080518082019091526006815265736f7572636560d01b6020820152610901908290610c9a565b6060830151610911908290610c9a565b60a0830151511561099c576040805180820190915260048152636172677360e01b6020820152610942908290610c9a565b61094b81610cec565b5f5b8360a00151518110156109925761098a8460a00151828151811061097357610973611691565b602002602001015183610c9a90919063ffffffff16565b60010161094d565b5061099c81610d10565b60808301515115610a5f575f836020015160028111156109be576109be61167d565b036109dc5760405163a80d31f760e01b815260040160405180910390fd5b60408051808201909152600f81526e39b2b1b932ba39a637b1b0ba34b7b760891b6020820152610a0d908290610c9a565b610a26836020015160028111156108915761089161167d565b6040805180820190915260078152667365637265747360c81b6020820152610a4f908290610c9a565b6080830151610a5f908290610d2e565b60c08301515115610aef5760408051808201909152600981526862797465734172677360b81b6020820152610a95908290610c9a565b610a9e81610cec565b5f5b8360c0015151811015610ae557610add8460c001518281518110610ac657610ac6611691565b602002602001015183610d2e90919063ffffffff16565b600101610aa0565b50610aef81610d10565b515192915050565b5f807f00000000000000000000000000000000000000000000000000000000000000006001600160a01b031663461d27628688600188886040518663ffffffff1660e01b8152600401610b4e9594939291906116a5565b6020604051808303815f875af1158015610b6a573d5f803e3d5ffd5b505050506040513d601f19601f82011682018060405250810190610b8e91906116ed565b60405190915081907f1131472297a800fee664d1d89cfa8f7676ff07189ecc53f80bbb5f4969099db8905f90a295945050505050565b610bce82826105c8565b6108065760405163e2517d3f60e01b81526001600160a01b038216600482015260248101839052604401610693565b80515f03610c1e576040516322ce3edd60e01b815260040160405180910390fd5b83836002811115610c3157610c3161167d565b90816002811115610c4457610c4461167d565b90525060408401828015610c5a57610c5a61167d565b90818015610c6a57610c6a61167d565b9052506060909301929092525050565b610c826110d2565b8051610c8e9083610d3b565b505f6020820152919050565b610ca78260038351610daf565b815161042b9082610ec8565b8151610cc09060c2610eef565b506108068282604051602001610cd891815260200190565b604051602081830303815290604052610d2e565b610cf7816004610f56565b600181602001818151610d0a9190611718565b90525050565b610d1b816007610f56565b600181602001818151610d0a919061172b565b610ca78260028351610daf565b60408051808201909152606081525f6020820152610d5a60208361173e565b15610d8257610d6a60208361173e565b610d7590602061172b565b610d7f9083611718565b91505b60208084018390526040518085525f8152908184010181811015610da4575f80fd5b604052509192915050565b6017816001600160401b031611610dd55782516103f29060e0600585901b168317610eef565b60ff816001600160401b031611610e15578251610dfd906018611fe0600586901b1617610eef565b5082516103f2906001600160401b0383166001610f6d565b61ffff816001600160401b031611610e56578251610e3e906019611fe0600586901b1617610eef565b5082516103f2906001600160401b0383166002610f6d565b63ffffffff816001600160401b031611610e99578251610e8190601a611fe0600586901b1617610eef565b5082516103f2906001600160401b0383166004610f6d565b8251610eb090601b611fe0600586901b1617610eef565b5082516103f2906001600160401b0383166008610f6d565b60408051808201909152606081525f6020820152610ee883838451610fef565b9392505050565b60408051808201909152606081525f60208201528251515f610f12826001611718565b905084602001518210610f3357610f3385610f2e83600261175d565b6110bb565b8451602083820101858153508051821115610f4c578181525b5093949350505050565b815161042b90601f611fe0600585901b1617610eef565b60408051808201909152606081525f60208201528351515f610f8f8285611718565b90508560200151811115610fac57610fac86610f2e83600261175d565b5f6001610fbb86610100611854565b610fc5919061172b565b90508651828101878319825116178152508051831115610fe3578281525b50959695505050505050565b60408051808201909152606081525f60208201528251821115611010575f80fd5b8351515f61101e8483611718565b9050856020015181111561103b5761103b86610f2e83600261175d565b85518051838201602001915f9180851115611054578482525b505050602086015b602086106110945780518252611073602083611718565b9150611080602082611718565b905061108d60208761172b565b955061105c565b5181515f1960208890036101000a0190811690199190911617905250849150509392505050565b81516110c78383610d3b565b506103f28382610ec8565b60405180604001604052806110f96040518060400160405280606081526020015f81525090565b81526020015f81525090565b5f60208284031215611115575f80fd5b81356001600160e01b031981168114610ee8575f80fd5b634e487b7160e01b5f52604160045260245ffd5b604051601f8201601f191681016001600160401b03811182821017156111685761116861112c565b604052919050565b5f6001600160401b038311156111885761118861112c565b61119b601f8401601f1916602001611140565b90508281528383830111156111ae575f80fd5b828260208301375f602084830101529392505050565b5f82601f8301126111d3575f80fd5b610ee883833560208501611170565b5f805f606084860312156111f4575f80fd5b8335925060208401356001600160401b0380821115611211575f80fd5b61121d878388016111c4565b93506040860135915080821115611232575f80fd5b5061123f868287016111c4565b9150509250925092565b5f60208284031215611259575f80fd5b5035919050565b5f81518084528060208401602086015e5f602082860101526020601f19601f83011685010191505092915050565b602081525f610ee86020830184611260565b5f80604083850312156112b1575f80fd5b8235915060208301356001600160a01b03811681146112ce575f80fd5b809150509250929050565b5f60208083850312156112ea575f80fd5b82356001600160401b0380821115611300575f80fd5b818501915085601f830112611313575f80fd5b8135818111156113255761132561112c565b8060051b611334858201611140565b918252838101850191858101908984111561134d575f80fd5b86860192505b8383101561139a57823585811115611369575f80fd5b8601603f81018b13611379575f80fd5b61138a8b8983013560408401611170565b8352509186019190860190611353565b9998505050505050505050565b5f602082840312156113b7575f80fd5b813563ffffffff81168114610ee8575f80fd5b5f80602083850312156113db575f80fd5b82356001600160401b03808211156113f1575f80fd5b818501915085601f830112611404575f80fd5b813581811115611412575f80fd5b866020828501011115611423575f80fd5b60209290920196919550909350505050565b5f60208284031215611445575f80fd5b81356001600160401b0381168114610ee8575f80fd5b600181811c9082168061146f57607f821691505b60208210810361057e57634e487b7160e01b5f52602260045260245ffd5b601f82111561042b57805f5260205f20601f840160051c810160208510156114b25750805b601f840160051c820191505b818110156114d1575f81556001016114be565b5050505050565b6001600160401b038311156114ef576114ef61112c565b611503836114fd835461145b565b8361148d565b5f601f841160018114611534575f851561151d5750838201355b5f19600387901b1c1916600186901b1783556114d1565b5f83815260208120601f198716915b828110156115635786850135825560209485019460019092019101611543565b508682101561157f575f1960f88860031b161c19848701351681555b505060018560011b0183555050505050565b81516001600160401b038111156115aa576115aa61112c565b6115be816115b8845461145b565b8461148d565b602080601f8311600181146115f1575f84156115da5750858301515b5f19600386901b1c1916600185901b178555611648565b5f85815260208120601f198616915b8281101561161f57888601518255948401946001909101908401611600565b508582101561163c57878501515f19600388901b60f8161c191681555b505060018460011b0185555b505050505050565b604081525f6116626040830185611260565b82810360208401526116748185611260565b95945050505050565b634e487b7160e01b5f52602160045260245ffd5b634e487b7160e01b5f52603260045260245ffd5b6001600160401b038616815260a060208201525f6116c660a0830187611260565b61ffff9590951660408301525063ffffffff92909216606083015260809091015292915050565b5f602082840312156116fd575f80fd5b5051919050565b634e487b7160e01b5f52601160045260245ffd5b808201808211156102b9576102b9611704565b818103818111156102b9576102b9611704565b5f8261175857634e487b7160e01b5f52601260045260245ffd5b500690565b80820281158282048414176102b9576102b9611704565b600181815b808511156117ae57815f190482111561179457611794611704565b808516156117a157918102915b93841c9390800290611779565b509250929050565b5f826117c4575060016102b9565b816117d057505f6102b9565b81600181146117e657600281146117f05761180c565b60019150506102b9565b60ff84111561180157611801611704565b50506001821b6102b9565b5060208310610133831016604e8410600b841016171561182f575081810a6102b9565b6118398383611774565b805f190482111561184c5761184c611704565b029392505050565b5f610ee883836117b656fea26469706673582212207e205efb68d9559087840c828947f9aae6c8ad98cda556d03362fd5fcedc9b9e64736f6c63430008190033",
  "devdoc": {
    "errors": {
      "AccessControlBadConfirmation()": [
        {
          "details": "The caller of a function is not the expected one. NOTE: Don't confuse with {AccessControlUnauthorizedAccount}."
        }
      ],
      "AccessControlUnauthorizedAccount(address,bytes32)": [
        {
          "details": "The `account` is missing a role."
        }
      ]
    },
    "events": {
      "RoleAdminChanged(bytes32,bytes32,bytes32)": {
        "details": "Emitted when `newAdminRole` is set as ``role``'s admin role, replacing `previousAdminRole` `DEFAULT_ADMIN_ROLE` is the starting admin for all roles, despite {RoleAdminChanged} not being emitted signaling this."
      },
      "RoleGranted(bytes32,address,address)": {
        "details": "Emitted when `account` is granted `role`. `sender` is the account that originated the contract call, an admin role bearer except when using {AccessControl-_setupRole}."
      },
      "RoleRevoked(bytes32,address,address)": {
        "details": "Emitted when `account` is revoked `role`. `sender` is the account that originated the contract call:   - if using `revokeRole`, it is the admin role bearer   - if using `renounceRole`, it is the role bearer (i.e. `account`)"
      }
    },
    "kind": "dev",
    "methods": {
      "constructor": {
        "custom:oz-upgrades-unsafe-allow": "constructor",
        "params": {
          "_donId": "The data provider ID",
          "_gasLimit": "The gas limit for the request",
          "_subscriptionId": "The subscription ID",
          "requester": "The address allowed to request the benefit multiplier. Will be the takasure contract",
          "router": "The address of the Chainlink node"
        }
      },
      "getRoleAdmin(bytes32)": {
        "details": "Returns the admin role that controls `role`. See {grantRole} and {revokeRole}. To change a role's admin, use {_setRoleAdmin}."
      },
      "grantRole(bytes32,address)": {
        "details": "Grants `role` to `account`. If `account` had not been already granted `role`, emits a {RoleGranted} event. Requirements: - the caller must have ``role``'s admin role. May emit a {RoleGranted} event."
      },
      "handleOracleFulfillment(bytes32,bytes,bytes)": {
        "details": "Either response or error parameter will be set, but never both.",
        "params": {
          "err": "Aggregated error either from the request's source code or from the execution pipeline.",
          "requestId": "The requestId returned by FunctionsClient.sendRequest().",
          "response": "Aggregated response from the request's source code."
        }
      },
      "hasRole(bytes32,address)": {
        "details": "Returns `true` if `account` has been granted `role`."
      },
      "renounceRole(bytes32,address)": {
        "details": "Revokes `role` from the calling account. Roles are often managed via {grantRole} and {revokeRole}: this function's purpose is to provide a mechanism for accounts to lose their privileges if they are compromised (such as when a trusted device is misplaced). If the calling account had been revoked `role`, emits a {RoleRevoked} event. Requirements: - the caller must be `callerConfirmation`. May emit a {RoleRevoked} event."
      },
      "revokeRole(bytes32,address)": {
        "details": "Revokes `role` from `account`. If `account` had been granted `role`, emits a {RoleRevoked} event. Requirements: - the caller must have ``role``'s admin role. May emit a {RoleRevoked} event."
      },
      "sendRequest(string[])": {
        "params": {
          "args": "The user address to get the BM"
        }
      },
      "supportsInterface(bytes4)": {
        "details": "See {IERC165-supportsInterface}."
      }
    },
    "version": 1
  },
  "userdoc": {
    "kind": "user",
    "methods": {
      "handleOracleFulfillment(bytes32,bytes,bytes)": {
        "notice": "Chainlink Functions response handler called by the Functions Router during fullilment from the designated transmitter node in an OCR round."
      },
      "sendRequest(string[])": {
        "notice": "Send a simple request"
      },
      "setDonId(bytes32)": {
        "notice": "the next set of functions are used to set the values of the contract"
      }
    },
    "version": 1
  },
  "storageLayout": {
    "storage": [
      {
        "astId": 2771,
        "contract": "contracts/takasure/oracle/BmFetcher.sol:BmFetcher",
        "label": "_roles",
        "offset": 0,
        "slot": "0",
        "type": "t_mapping(t_bytes32,t_struct(RoleData)2766_storage)"
      },
      {
        "astId": 6145,
        "contract": "contracts/takasure/oracle/BmFetcher.sol:BmFetcher",
        "label": "donId",
        "offset": 0,
        "slot": "1",
        "type": "t_bytes32"
      },
      {
        "astId": 6147,
        "contract": "contracts/takasure/oracle/BmFetcher.sol:BmFetcher",
        "label": "gasLimit",
        "offset": 0,
        "slot": "2",
        "type": "t_uint32"
      },
      {
        "astId": 6149,
        "contract": "contracts/takasure/oracle/BmFetcher.sol:BmFetcher",
        "label": "subscriptionId",
        "offset": 4,
        "slot": "2",
        "type": "t_uint64"
      },
      {
        "astId": 6151,
        "contract": "contracts/takasure/oracle/BmFetcher.sol:BmFetcher",
        "label": "bmSourceRequestCode",
        "offset": 0,
        "slot": "3",
        "type": "t_string_storage"
      },
      {
        "astId": 6153,
        "contract": "contracts/takasure/oracle/BmFetcher.sol:BmFetcher",
        "label": "lastRequestId",
        "offset": 0,
        "slot": "4",
        "type": "t_bytes32"
      },
      {
        "astId": 6155,
        "contract": "contracts/takasure/oracle/BmFetcher.sol:BmFetcher",
        "label": "lastResponse",
        "offset": 0,
        "slot": "5",
        "type": "t_bytes_storage"
      },
      {
        "astId": 6157,
        "contract": "contracts/takasure/oracle/BmFetcher.sol:BmFetcher",
        "label": "lastError",
        "offset": 0,
        "slot": "6",
        "type": "t_bytes_storage"
      }
    ],
    "types": {
      "t_address": {
        "encoding": "inplace",
        "label": "address",
        "numberOfBytes": "20"
      },
      "t_bool": {
        "encoding": "inplace",
        "label": "bool",
        "numberOfBytes": "1"
      },
      "t_bytes32": {
        "encoding": "inplace",
        "label": "bytes32",
        "numberOfBytes": "32"
      },
      "t_bytes_storage": {
        "encoding": "bytes",
        "label": "bytes",
        "numberOfBytes": "32"
      },
      "t_mapping(t_address,t_bool)": {
        "encoding": "mapping",
        "key": "t_address",
        "label": "mapping(address => bool)",
        "numberOfBytes": "32",
        "value": "t_bool"
      },
      "t_mapping(t_bytes32,t_struct(RoleData)2766_storage)": {
        "encoding": "mapping",
        "key": "t_bytes32",
        "label": "mapping(bytes32 => struct AccessControl.RoleData)",
        "numberOfBytes": "32",
        "value": "t_struct(RoleData)2766_storage"
      },
      "t_string_storage": {
        "encoding": "bytes",
        "label": "string",
        "numberOfBytes": "32"
      },
      "t_struct(RoleData)2766_storage": {
        "encoding": "inplace",
        "label": "struct AccessControl.RoleData",
        "members": [
          {
            "astId": 2763,
            "contract": "contracts/takasure/oracle/BmFetcher.sol:BmFetcher",
            "label": "hasRole",
            "offset": 0,
            "slot": "0",
            "type": "t_mapping(t_address,t_bool)"
          },
          {
            "astId": 2765,
            "contract": "contracts/takasure/oracle/BmFetcher.sol:BmFetcher",
            "label": "adminRole",
            "offset": 0,
            "slot": "1",
            "type": "t_bytes32"
          }
        ],
        "numberOfBytes": "64"
      },
      "t_uint32": {
        "encoding": "inplace",
        "label": "uint32",
        "numberOfBytes": "4"
      },
      "t_uint64": {
        "encoding": "inplace",
        "label": "uint64",
        "numberOfBytes": "8"
      }
    }
  }
}