{
  "address": "0xDcda57A6FfC32c14100a69829010709086A69c55",
  "abi": [
    {
      "inputs": [],
      "stateMutability": "nonpayable",
      "type": "constructor"
    },
    {
      "inputs": [
        {
          "internalType": "address",
          "name": "target",
          "type": "address"
        }
      ],
      "name": "AddressEmptyCode",
      "type": "error"
    },
    {
      "inputs": [
        {
          "internalType": "address",
          "name": "implementation",
          "type": "address"
        }
      ],
      "name": "ERC1967InvalidImplementation",
      "type": "error"
    },
    {
      "inputs": [],
      "name": "ERC1967NonPayable",
      "type": "error"
    },
    {
      "inputs": [],
      "name": "FailedInnerCall",
      "type": "error"
    },
    {
      "inputs": [],
      "name": "InvalidInitialization",
      "type": "error"
    },
    {
      "inputs": [],
      "name": "NotInitializing",
      "type": "error"
    },
    {
      "inputs": [
        {
          "internalType": "address",
          "name": "owner",
          "type": "address"
        }
      ],
      "name": "OwnableInvalidOwner",
      "type": "error"
    },
    {
      "inputs": [
        {
          "internalType": "address",
          "name": "account",
          "type": "address"
        }
      ],
      "name": "OwnableUnauthorizedAccount",
      "type": "error"
    },
    {
      "inputs": [
        {
          "internalType": "uint256",
          "name": "value",
          "type": "uint256"
        },
        {
          "internalType": "uint256",
          "name": "length",
          "type": "uint256"
        }
      ],
      "name": "StringsInsufficientHexLength",
      "type": "error"
    },
    {
      "inputs": [],
      "name": "TakasurePool__ContributionBelowMinimumThreshold",
      "type": "error"
    },
    {
      "inputs": [],
      "name": "TakasurePool__ContributionTransferFailed",
      "type": "error"
    },
    {
      "inputs": [],
      "name": "TakasurePool__FeeTransferFailed",
      "type": "error"
    },
    {
      "inputs": [],
      "name": "TakasurePool__InvalidDate",
      "type": "error"
    },
    {
      "inputs": [],
      "name": "TakasurePool__MemberAlreadyExists",
      "type": "error"
    },
    {
      "inputs": [],
      "name": "TakasurePool__MemberAlreadyKYCed",
      "type": "error"
    },
    {
      "inputs": [],
      "name": "TakasurePool__MintFailed",
      "type": "error"
    },
    {
      "inputs": [],
      "name": "TakasurePool__WrongMemberState",
      "type": "error"
    },
    {
      "inputs": [],
      "name": "TakasurePool__WrongServiceFee",
      "type": "error"
    },
    {
      "inputs": [],
      "name": "TakasurePool__ZeroAddress",
      "type": "error"
    },
    {
      "inputs": [],
      "name": "UUPSUnauthorizedCallContext",
      "type": "error"
    },
    {
      "inputs": [
        {
          "internalType": "bytes32",
          "name": "slot",
          "type": "bytes32"
        }
      ],
      "name": "UUPSUnsupportedProxiableUUID",
      "type": "error"
    },
    {
      "inputs": [],
      "name": "WrongTimestamps",
      "type": "error"
    },
    {
      "anonymous": false,
      "inputs": [
        {
          "indexed": false,
          "internalType": "uint64",
          "name": "version",
          "type": "uint64"
        }
      ],
      "name": "Initialized",
      "type": "event"
    },
    {
      "anonymous": false,
      "inputs": [
        {
          "indexed": true,
          "internalType": "address",
          "name": "newBenefitMultiplierConsumer",
          "type": "address"
        }
      ],
      "name": "OnBenefitMultiplierConsumerChanged",
      "type": "event"
    },
    {
      "anonymous": false,
      "inputs": [
        {
          "indexed": true,
          "internalType": "uint256",
          "name": "memberId",
          "type": "uint256"
        },
        {
          "indexed": true,
          "internalType": "address",
          "name": "member",
          "type": "address"
        },
        {
          "indexed": true,
          "internalType": "uint256",
          "name": "benefitMultiplier",
          "type": "uint256"
        },
        {
          "indexed": false,
          "internalType": "uint256",
          "name": "contributionAmount",
          "type": "uint256"
        },
        {
          "indexed": false,
          "internalType": "uint256",
          "name": "serviceFee",
          "type": "uint256"
        },
        {
          "indexed": false,
          "internalType": "uint256",
          "name": "membershipDuration",
          "type": "uint256"
        },
        {
          "indexed": false,
          "internalType": "uint256",
          "name": "membershipStartTime",
          "type": "uint256"
        }
      ],
      "name": "OnMemberCreated",
      "type": "event"
    },
    {
      "anonymous": false,
      "inputs": [
        {
          "indexed": true,
          "internalType": "uint256",
          "name": "memberId",
          "type": "uint256"
        },
        {
          "indexed": true,
          "internalType": "address",
          "name": "member",
          "type": "address"
        }
      ],
      "name": "OnMemberJoined",
      "type": "event"
    },
    {
      "anonymous": false,
      "inputs": [
        {
          "indexed": true,
          "internalType": "address",
          "name": "member",
          "type": "address"
        }
      ],
      "name": "OnMemberKycVerified",
      "type": "event"
    },
    {
      "anonymous": false,
      "inputs": [
        {
          "indexed": true,
          "internalType": "uint256",
          "name": "memberId",
          "type": "uint256"
        },
        {
          "indexed": true,
          "internalType": "address",
          "name": "member",
          "type": "address"
        },
        {
          "indexed": true,
          "internalType": "uint256",
          "name": "benefitMultiplier",
          "type": "uint256"
        },
        {
          "indexed": false,
          "internalType": "uint256",
          "name": "contributionAmount",
          "type": "uint256"
        },
        {
          "indexed": false,
          "internalType": "uint256",
          "name": "serviceFee",
          "type": "uint256"
        },
        {
          "indexed": false,
          "internalType": "uint256",
          "name": "membershipDuration",
          "type": "uint256"
        },
        {
          "indexed": false,
          "internalType": "uint256",
          "name": "membershipStartTime",
          "type": "uint256"
        }
      ],
      "name": "OnMemberUpdated",
      "type": "event"
    },
    {
      "anonymous": false,
      "inputs": [
        {
          "indexed": true,
          "internalType": "address",
          "name": "member",
          "type": "address"
        },
        {
          "indexed": true,
          "internalType": "uint256",
          "name": "updatedYearsCovered",
          "type": "uint256"
        },
        {
          "indexed": true,
          "internalType": "uint256",
          "name": "updatedContribution",
          "type": "uint256"
        },
        {
          "indexed": false,
          "internalType": "uint256",
          "name": "updatedTotalServiceFee",
          "type": "uint256"
        }
      ],
      "name": "OnRecurringPayment",
      "type": "event"
    },
    {
      "anonymous": false,
      "inputs": [
        {
          "indexed": true,
          "internalType": "uint8",
          "name": "newServiceFee",
          "type": "uint8"
        }
      ],
      "name": "OnServiceFeeChanged",
      "type": "event"
    },
    {
      "anonymous": false,
      "inputs": [
        {
          "indexed": true,
          "internalType": "address",
          "name": "previousOwner",
          "type": "address"
        },
        {
          "indexed": true,
          "internalType": "address",
          "name": "newOwner",
          "type": "address"
        }
      ],
      "name": "OwnershipTransferred",
      "type": "event"
    },
    {
      "anonymous": false,
      "inputs": [
        {
          "indexed": true,
          "internalType": "address",
          "name": "implementation",
          "type": "address"
        }
      ],
      "name": "Upgraded",
      "type": "event"
    },
    {
      "inputs": [],
      "name": "UPGRADE_INTERFACE_VERSION",
      "outputs": [
        {
          "internalType": "string",
          "name": "",
          "type": "string"
        }
      ],
      "stateMutability": "view",
      "type": "function"
    },
    {
      "inputs": [],
      "name": "allowCustomDuration",
      "outputs": [
        {
          "internalType": "bool",
          "name": "",
          "type": "bool"
        }
      ],
      "stateMutability": "view",
      "type": "function"
    },
    {
      "inputs": [],
      "name": "feeClaimAddress",
      "outputs": [
        {
          "internalType": "address",
          "name": "",
          "type": "address"
        }
      ],
      "stateMutability": "view",
      "type": "function"
    },
    {
      "inputs": [],
      "name": "getCashLast12Months",
      "outputs": [
        {
          "internalType": "uint256",
          "name": "cash_",
          "type": "uint256"
        }
      ],
      "stateMutability": "view",
      "type": "function"
    },
    {
      "inputs": [],
      "name": "getContributionTokenAddress",
      "outputs": [
        {
          "internalType": "address",
          "name": "contributionToken_",
          "type": "address"
        }
      ],
      "stateMutability": "view",
      "type": "function"
    },
    {
      "inputs": [
        {
          "internalType": "address",
          "name": "member",
          "type": "address"
        }
      ],
      "name": "getMemberFromAddress",
      "outputs": [
        {
          "components": [
            {
              "internalType": "uint256",
              "name": "memberId",
              "type": "uint256"
            },
            {
              "internalType": "uint256",
              "name": "benefitMultiplier",
              "type": "uint256"
            },
            {
              "internalType": "uint256",
              "name": "membershipDuration",
              "type": "uint256"
            },
            {
              "internalType": "uint256",
              "name": "yearsCovered",
              "type": "uint256"
            },
            {
              "internalType": "uint256",
              "name": "membershipStartTime",
              "type": "uint256"
            },
            {
              "internalType": "uint256",
              "name": "contribution",
              "type": "uint256"
            },
            {
              "internalType": "uint256",
              "name": "totalContributions",
              "type": "uint256"
            },
            {
              "internalType": "uint256",
              "name": "totalServiceFee",
              "type": "uint256"
            },
            {
              "internalType": "address",
              "name": "wallet",
              "type": "address"
            },
            {
              "internalType": "enum MemberState",
              "name": "memberState",
              "type": "uint8"
            },
            {
              "internalType": "uint256",
              "name": "surplus",
              "type": "uint256"
            },
            {
              "internalType": "bool",
              "name": "isKYCVerified",
              "type": "bool"
            }
          ],
          "internalType": "struct Member",
          "name": "",
          "type": "tuple"
        }
      ],
      "stateMutability": "view",
      "type": "function"
    },
    {
      "inputs": [
        {
          "internalType": "uint256",
          "name": "memberId",
          "type": "uint256"
        }
      ],
      "name": "getMemberFromId",
      "outputs": [
        {
          "components": [
            {
              "internalType": "uint256",
              "name": "memberId",
              "type": "uint256"
            },
            {
              "internalType": "uint256",
              "name": "benefitMultiplier",
              "type": "uint256"
            },
            {
              "internalType": "uint256",
              "name": "membershipDuration",
              "type": "uint256"
            },
            {
              "internalType": "uint256",
              "name": "yearsCovered",
              "type": "uint256"
            },
            {
              "internalType": "uint256",
              "name": "membershipStartTime",
              "type": "uint256"
            },
            {
              "internalType": "uint256",
              "name": "contribution",
              "type": "uint256"
            },
            {
              "internalType": "uint256",
              "name": "totalContributions",
              "type": "uint256"
            },
            {
              "internalType": "uint256",
              "name": "totalServiceFee",
              "type": "uint256"
            },
            {
              "internalType": "address",
              "name": "wallet",
              "type": "address"
            },
            {
              "internalType": "enum MemberState",
              "name": "memberState",
              "type": "uint8"
            },
            {
              "internalType": "uint256",
              "name": "surplus",
              "type": "uint256"
            },
            {
              "internalType": "bool",
              "name": "isKYCVerified",
              "type": "bool"
            }
          ],
          "internalType": "struct Member",
          "name": "",
          "type": "tuple"
        }
      ],
      "stateMutability": "view",
      "type": "function"
    },
    {
      "inputs": [
        {
          "internalType": "address",
          "name": "member",
          "type": "address"
        }
      ],
      "name": "getMemberKYCStatus",
      "outputs": [
        {
          "internalType": "bool",
          "name": "isKYCVerified_",
          "type": "bool"
        }
      ],
      "stateMutability": "view",
      "type": "function"
    },
    {
      "inputs": [],
      "name": "getReserveValues",
      "outputs": [
        {
          "internalType": "uint256",
          "name": "initialReserveRatio_",
          "type": "uint256"
        },
        {
          "internalType": "uint256",
          "name": "dynamicReserveRatio_",
          "type": "uint256"
        },
        {
          "internalType": "uint256",
          "name": "benefitMultiplierAdjuster_",
          "type": "uint256"
        },
        {
          "internalType": "uint256",
          "name": "totalContributions_",
          "type": "uint256"
        },
        {
          "internalType": "uint256",
          "name": "totalClaimReserve_",
          "type": "uint256"
        },
        {
          "internalType": "uint256",
          "name": "totalFundReserve_",
          "type": "uint256"
        },
        {
          "internalType": "uint256",
          "name": "proFormaFundReserve_",
          "type": "uint256"
        },
        {
          "internalType": "uint256",
          "name": "proFormaClaimReserve_",
          "type": "uint256"
        },
        {
          "internalType": "uint256",
          "name": "lossRatio_",
          "type": "uint256"
        },
        {
          "internalType": "uint8",
          "name": "serviceFee_",
          "type": "uint8"
        },
        {
          "internalType": "uint8",
          "name": "bmaFundReserveShare_",
          "type": "uint8"
        },
        {
          "internalType": "bool",
          "name": "isOptimizerEnabled_",
          "type": "bool"
        }
      ],
      "stateMutability": "view",
      "type": "function"
    },
    {
      "inputs": [],
      "name": "getTokenAddress",
      "outputs": [
        {
          "internalType": "address",
          "name": "",
          "type": "address"
        }
      ],
      "stateMutability": "view",
      "type": "function"
    },
    {
      "inputs": [
        {
          "internalType": "address",
          "name": "_contributionToken",
          "type": "address"
        },
        {
          "internalType": "address",
          "name": "_daoToken",
          "type": "address"
        },
        {
          "internalType": "address",
          "name": "_feeClaimAddress",
          "type": "address"
        },
        {
          "internalType": "address",
          "name": "_daoOperator",
          "type": "address"
        },
        {
          "internalType": "address",
          "name": "_benefitMultiplierConsumer",
          "type": "address"
        }
      ],
      "name": "initialize",
      "outputs": [],
      "stateMutability": "nonpayable",
      "type": "function"
    },
    {
      "inputs": [
        {
          "internalType": "uint256",
          "name": "contributionAmount",
          "type": "uint256"
        },
        {
          "internalType": "uint256",
          "name": "membershipDuration",
          "type": "uint256"
        }
      ],
      "name": "joinPool",
      "outputs": [],
      "stateMutability": "nonpayable",
      "type": "function"
    },
    {
      "inputs": [],
      "name": "memberIdCounter",
      "outputs": [
        {
          "internalType": "uint256",
          "name": "",
          "type": "uint256"
        }
      ],
      "stateMutability": "view",
      "type": "function"
    },
    {
      "inputs": [],
      "name": "minimumThreshold",
      "outputs": [
        {
          "internalType": "uint256",
          "name": "",
          "type": "uint256"
        }
      ],
      "stateMutability": "view",
      "type": "function"
    },
    {
      "inputs": [],
      "name": "owner",
      "outputs": [
        {
          "internalType": "address",
          "name": "",
          "type": "address"
        }
      ],
      "stateMutability": "view",
      "type": "function"
    },
    {
      "inputs": [],
      "name": "proxiableUUID",
      "outputs": [
        {
          "internalType": "bytes32",
          "name": "",
          "type": "bytes32"
        }
      ],
      "stateMutability": "view",
      "type": "function"
    },
    {
      "inputs": [],
      "name": "recurringPayment",
      "outputs": [],
      "stateMutability": "nonpayable",
      "type": "function"
    },
    {
      "inputs": [],
      "name": "renounceOwnership",
      "outputs": [],
      "stateMutability": "nonpayable",
      "type": "function"
    },
    {
      "inputs": [
        {
          "internalType": "bool",
          "name": "_allowCustomDuration",
          "type": "bool"
        }
      ],
      "name": "setAllowCustomDuration",
      "outputs": [],
      "stateMutability": "nonpayable",
      "type": "function"
    },
    {
      "inputs": [
        {
          "internalType": "address",
          "name": "memberWallet",
          "type": "address"
        }
      ],
      "name": "setKYCStatus",
      "outputs": [],
      "stateMutability": "nonpayable",
      "type": "function"
    },
    {
      "inputs": [
        {
          "internalType": "address",
          "name": "newBenefitMultiplierConsumer",
          "type": "address"
        }
      ],
      "name": "setNewBenefitMultiplierConsumer",
      "outputs": [],
      "stateMutability": "nonpayable",
      "type": "function"
    },
    {
      "inputs": [
        {
          "internalType": "address",
          "name": "newContributionToken",
          "type": "address"
        }
      ],
      "name": "setNewContributionToken",
      "outputs": [],
      "stateMutability": "nonpayable",
      "type": "function"
    },
    {
      "inputs": [
        {
          "internalType": "address",
          "name": "newFeeClaimAddress",
          "type": "address"
        }
      ],
      "name": "setNewFeeClaimAddress",
      "outputs": [],
      "stateMutability": "nonpayable",
      "type": "function"
    },
    {
      "inputs": [
        {
          "internalType": "uint256",
          "name": "newMinimumThreshold",
          "type": "uint256"
        }
      ],
      "name": "setNewMinimumThreshold",
      "outputs": [],
      "stateMutability": "nonpayable",
      "type": "function"
    },
    {
      "inputs": [
        {
          "internalType": "uint8",
          "name": "newServiceFee",
          "type": "uint8"
        }
      ],
      "name": "setNewServiceFee",
      "outputs": [],
      "stateMutability": "nonpayable",
      "type": "function"
    },
    {
      "inputs": [
        {
          "internalType": "address",
          "name": "newOwner",
          "type": "address"
        }
      ],
      "name": "transferOwnership",
      "outputs": [],
      "stateMutability": "nonpayable",
      "type": "function"
    },
    {
      "inputs": [
        {
          "internalType": "address",
          "name": "newImplementation",
          "type": "address"
        },
        {
          "internalType": "bytes",
          "name": "data",
          "type": "bytes"
        }
      ],
      "name": "upgradeToAndCall",
      "outputs": [],
      "stateMutability": "payable",
      "type": "function"
    }
  ],
  "numDeployments": 24,
  "bytecode": "0x60a060405230608052348015610013575f80fd5b5061001c610021565b6100d3565b7ff0c57e16840df040f15088dc2f81fe391c3923bec73e23a9662efc9c229c6a00805468010000000000000000900460ff16156100715760405163f92ee8a960e01b815260040160405180910390fd5b80546001600160401b03908116146100d05780546001600160401b0319166001600160401b0390811782556040519081527fc7f505b2f371ae2175ee4913f4499e1f2633a7b5936321eed1cdaeb6115181d29060200160405180910390a15b50565b608051612ca86100f95f395f81816118ff015281816119280152611a6c0152612ca85ff3fe608060405260043610610194575f3560e01c806375cd11ad116100e7578063a01d036311610087578063cad7970b11610062578063cad7970b14610530578063d8fef67d14610544578063dc7f33341461055d578063f2fde38b1461057c575f80fd5b8063a01d0363146104ca578063ad3cb1cc146104de578063c3210bd21461051b575f80fd5b80638da5cb5b116100c25780638da5cb5b146104065780639145851714610442578063953e1e231461048c57806399acd010146104ab575f80fd5b806375cd11ad146103b357806375da30d0146103d25780638b284fcf146103e7575f80fd5b80634f1ef286116101525780635399a7f11161012d5780635399a7f1146102c9578063639431e8146102e85780636462471114610380578063715018a61461039f575f80fd5b80634f1ef2861461027557806350bbad641461028857806352d1902d146102a7575f80fd5b806246e8d514610198578063108c8492146101cd57806310fe9ae8146101ee5780631459457a1461020b57806322a1cdb51461022a5780633d7b0f5a14610256575b5f80fd5b3480156101a3575f80fd5b505f546001600160a01b03165b6040516001600160a01b0390911681526020015b60405180910390f35b3480156101d8575f80fd5b506101ec6101e7366004612776565b61059b565b005b3480156101f9575f80fd5b506001546001600160a01b03166101b0565b348015610216575f80fd5b506101ec6102253660046127b1565b6106c2565b348015610235575f80fd5b50610249610244366004612812565b6109e5565b6040516101c4919061285f565b348015610261575f80fd5b506101ec610270366004612812565b610ac3565b6101ec610283366004612915565b610b16565b348015610293575f80fd5b506101ec6102a23660046129d1565b610b35565b3480156102b2575f80fd5b506102bb610b42565b6040519081526020016101c4565b3480156102d4575f80fd5b506101ec6102e33660046129f5565b610b5d565b3480156102f3575f80fd5b50600454600554600654600754600854600954600a54600b54600c54600d54604080519a8b5260208b0199909952978901969096526060880194909452608087019290925260a086015260c085015260e08401526101008381019190915260ff808316610120850152908204811661014084015262010000909104161515610160820152610180016101c4565b34801561038b575f80fd5b5061024961039a3660046129d1565b610b78565b3480156103aa575f80fd5b506101ec610c22565b3480156103be575f80fd5b506014546101b0906001600160a01b031681565b3480156103dd575f80fd5b506102bb60125481565b3480156103f2575f80fd5b506101ec610401366004612812565b610c35565b348015610411575f80fd5b507f9016d09d72d40fdae2fd8ceac6b6234c7706214fd39c1cd1e609a0528c199300546001600160a01b03166101b0565b34801561044d575f80fd5b5061047c61045c366004612812565b6001600160a01b03165f908152600360205260409020600a015460ff1690565b60405190151581526020016101c4565b348015610497575f80fd5b506101ec6104a6366004612812565b610c87565b3480156104b6575f80fd5b506101ec6104c5366004612a10565b610e15565b3480156104d5575f80fd5b506102bb610e7f565b3480156104e9575f80fd5b5061050e604051806040016040528060058152602001640352e302e360dc1b81525081565b6040516101c49190612a5e565b348015610526575f80fd5b506102bb60135481565b34801561053b575f80fd5b506101ec610e9f565b34801561054f575f80fd5b50600e5461047c9060ff1681565b348015610568575f80fd5b506101ec610577366004612812565b611078565b348015610587575f80fd5b506101ec610596366004612812565b6110f2565b6001335f90815260036020819052604090912060080154600160a01b900460ff16908111156105cc576105cc61282b565b036105ea5760405163170817b560e11b815260040160405180910390fd5b60125482101561060d576040516380bc259360e01b815260040160405180910390fd5b335f818152600360205260408120600a015460ff169161062c90611134565b90505f805f61063a87611281565b925092509250841561069f57610655848488853360016112cf565b61066383828433600161140d565b335f8181526003602052604080822054905190917fe401121725344aa5acd2cd8acae33270feba0ab5b1ccee9ac8b128ef9711a4a991a36106b9565b6106ae8484888589335f61147d565b6106b9818333611743565b50505050505050565b7ff0c57e16840df040f15088dc2f81fe391c3923bec73e23a9662efc9c229c6a008054600160401b810460ff16159067ffffffffffffffff165f811580156107075750825b90505f8267ffffffffffffffff1660011480156107235750303b155b905081158015610731575080155b1561074f5760405163f92ee8a960e01b815260040160405180910390fd5b845467ffffffffffffffff19166001178555831561077957845460ff60401b1916600160401b1785555b896001600160a01b0381166107a157604051638f0dd18960e01b815260040160405180910390fd5b896001600160a01b0381166107c957604051638f0dd18960e01b815260040160405180910390fd5b896001600160a01b0381166107f157604051638f0dd18960e01b815260040160405180910390fd5b896001600160a01b03811661081957604051638f0dd18960e01b815260040160405180910390fd5b896001600160a01b03811661084157604051638f0dd18960e01b815260040160405180910390fd5b610849611880565b6108528c611888565b8e5f806101000a8154816001600160a01b0302191690836001600160a01b031602179055508d60015f6101000a8154816001600160a01b0302191690836001600160a01b031602179055508a60025f6101000a8154816001600160a01b0302191690836001600160a01b031602179055508c60145f6101000a8154816001600160a01b0302191690836001600160a01b03160217905550600160115f6101000a81548161ffff021916908361ffff1602179055506001601160026101000a81548160ff021916908360ff16021790555063017d784060128190555060286003600101819055506003600101546003600201819055506064600380018190555060146003600a015f6101000a81548160ff021916908360ff16021790555060466003600a0160016101000a81548160ff021916908360ff160217905550505050505083156109d957845460ff60401b19168555604051600181527fc7f505b2f371ae2175ee4913f4499e1f2633a7b5936321eed1cdaeb6115181d29060200160405180910390a15b50505050505050505050565b6109ed612706565b6001600160a01b038281165f908152600360208181526040928390208351610180810185528154815260018201549281019290925260028101549382019390935282820154606082015260048301546080820152600583015460a0820152600683015460c0820152600783015460e0820152600883015493841661010082015292610120840191600160a01b90910460ff1690811115610a8f57610a8f61282b565b6003811115610aa057610aa061282b565b815260098201546020820152600a9091015460ff16151560409091015292915050565b610acb611899565b806001600160a01b038116610af357604051638f0dd18960e01b815260040160405180910390fd5b50601480546001600160a01b0319166001600160a01b0392909216919091179055565b610b1e6118f4565b610b2782611998565b610b3182826119a0565b5050565b610b3d611899565b601255565b5f610b4b611a61565b505f80516020612c5383398151915290565b610b65611899565b600e805460ff1916911515919091179055565b610b80612706565b5f8281526015602090815260409182902082516101808101845281548152600182015492810192909252600281015492820192909252600380830154606083015260048301546080830152600583015460a0830152600683015460c0830152600783015460e083015260088301546001600160a01b038116610100840152919291610120840191600160a01b90910460ff1690811115610a8f57610a8f61282b565b610c2a611899565b610c335f611aaa565b565b610c3d611899565b806001600160a01b038116610c6557604051638f0dd18960e01b815260040160405180910390fd5b505f80546001600160a01b0319166001600160a01b0392909216919091179055565b610c8f611899565b6001600160a01b038116610cb657604051638f0dd18960e01b815260040160405180910390fd5b6001600160a01b0381165f908152600360205260409020600a015460ff1615610cf2576040516389ac5eed60e01b815260040160405180910390fd5b6001600160a01b038181165f9081526003602052604090206008015416610d2857610d235f805f806001865f61147d565b610ddf565b6001600160a01b0381165f9081526003602052604081206005015481908190610d5090611281565b6001600160a01b0387165f908152600360205260409020600180820154600290920154949750929550909350610d8e929091869190869089906112cf565b610d9b838284875f61140d565b6001600160a01b0384165f8181526003602052604080822054905190917fe401121725344aa5acd2cd8acae33270feba0ab5b1ccee9ac8b128ef9711a4a991a35050505b6040516001600160a01b038216907f66db5268d8f029e30f638bebdd132c868f4bafb5a7f69d8987b3d4c6be24d1e9905f90a250565b610e1d611899565b60238160ff161115610e425760405163613b6cf360e01b815260040160405180910390fd5b600d805460ff191660ff83169081179091556040517f619d7fdc9719c2cc14972b1e50eea6ccbf51c5dd93889fe01dc0bf67081e52bb905f90a250565b5f805f610e8a611b1a565b91509150610e988282611bdc565b9250505090565b6001335f90815260036020819052604090912060080154600160a01b900460ff1690811115610ed057610ed061282b565b14610eee576040516308e3e48560e11b815260040160405180910390fd5b335f908152600360208190526040909120908101546004820154600290920154429290610f1f836301e13380612a84565b610f299083612a9b565b841180610f3e5750610f3b8183612a9b565b84115b15610f5c57604051637d814b9360e11b815260040160405180910390fd5b335f90815260036020526040812060050154600d54909190606490610f849060ff1684612a84565b610f8e9190612aae565b90505f610f9b8284612acd565b335f908152600360208190526040822001805492935091610fbb90612ae0565b90915550335f9081526003602052604081206006018054859290610fe0908490612a9b565b9091555050335f9081526003602052604081206007018054849290611006908490612a9b565b9091555061101a905083838333600161140d565b335f818152600360208181526040928390206006810154928101546007909101549351938452919391927fda404c81177f9e2b8417ec5efc8d615177a67ef061028b1fa886e2ef55123f71910160405180910390a450505050505050565b611080611899565b806001600160a01b0381166110a857604051638f0dd18960e01b815260040160405180910390fd5b600280546001600160a01b0319166001600160a01b0384169081179091556040517f6a624252402e57fa2ffee879921ec6b9d91c3c02dcbd671a26e3bf38908d0508905f90a25050565b6110fa611899565b6001600160a01b03811661112857604051631e4fbdf760e01b81525f60048201526024015b60405180910390fd5b61113181611aaa565b50565b6040805160018082528183019092525f91829190816020015b606081526020019060019003908161114d579050509050611178836001600160a01b03166014611ce8565b815f8151811061118a5761118a612af8565b6020908102919091010152600254604051634c8f60a360e01b81526001600160a01b0390911690634c8f60a3906111c5908490600401612b0c565b6020604051808303815f875af11580156111e1573d5f803e3d5ffd5b505050506040513d601f19601f820116820180604052508101906112059190612b6e565b5060025f9054906101000a90046001600160a01b03166001600160a01b0316639492c8936040518163ffffffff1660e01b8152600401602060405180830381865afa158015611256573d5f803e3d5ffd5b505050506040513d601f19601f8201168201806040525081019061127a9190612b6e565b9392505050565b5f80806127106112918186612aae565b61129b9190612a84565b600d549093506064906112b19060ff1685612a84565b6112bb9190612aae565b91506112c78284612acd565b929491935050565b600e5442905f9060ff16156112e55750846112ec565b5063096601805b6001600160a01b0384165f908152600360208190526040909120600181018a9055600281018390556004810184905560058101899055600781018790556008018054859260ff60a01b1990911690600160a01b9084908111156113515761135161282b565b02179055506001600160a01b0384165f908152600360205260409020600a015460ff1661139e576001600160a01b0384165f908152600360205260409020600a01805460ff191660011790555b6001600160a01b0384165f818152600360209081526040918290205482518b8152918201899052918101849052606081018590528a9291907f73e3bd25ce46d313bb78e96aa812896a46a75db3e5a2f88bf6f9eb4a28177c899060800160405180910390a45050505050505050565b61141685611e64565b6114208585611ea4565b61142984611f20565b6011545f906114469061ffff81169062010000900460ff16611bdc565b905061145181612179565b61145a81612197565b61146486846121dc565b811561147557611475858585611743565b505050505050565b60135f815461148b90612ae0565b90915550600e5442905f9060ff16156114a55750856114ac565b5063096601805b5f60405180610180016040528060135481526020018b8152602001838152602001600181526020018481526020018a81526020018a8152602001888152602001866001600160a01b0316815260200185600381111561150d5761150d61282b565b81525f60208083018290528915156040938401526001600160a01b03808a168352600380835292849020855181559185015160018301559284015160028201556060840151818301556080840151600482015560a0840151600582015560c0840151600682015560e08401516007820155610100840151600882018054919094166001600160a01b03198216811785556101208601519596508695929492936001600160a81b03199092161790600160a01b9084908111156115d1576115d161282b565b0217905550610140820151600982015561016090910151600a909101805491151560ff199092169190911790556013545f908152601560209081526040918290208351815590830151600182015590820151600282015560608201516003808301919091556080830151600483015560a0830151600583015560c0830151600683015560e083015160078301556101008301516008830180546001600160a01b039092166001600160a01b031983168117825561012086015186959490936001600160a81b03191690911790600160a01b9084908111156116b4576116b461282b565b0217905550610140820151600982015561016090910151600a909101805460ff1916911515919091179055601354604080518b8152602081018a9052908101849052606081018590528b916001600160a01b038816917f8cb1dfa762ab13a1e597b1fbf3040ce8a57fc843313a27f2ada8f3027e248d639060800160405180910390a450505050505050505050565b5f80546040516323b872dd60e01b81526001600160a01b03848116600483015230602483015260448201879052909116906323b872dd906064016020604051808303815f875af1158015611799573d5f803e3d5ffd5b505050506040513d601f19601f820116820180604052508101906117bd9190612b85565b9050806117dd57604051630afdbbef60e11b815260040160405180910390fd5b5f546014546040516323b872dd60e01b81526001600160a01b0385811660048301529182166024820152604481018690529116906323b872dd906064016020604051808303815f875af1158015611836573d5f803e3d5ffd5b505050506040513d601f19601f8201168201806040525081019061185a9190612b85565b90508061187a57604051630bc6abbf60e11b815260040160405180910390fd5b50505050565b610c33612285565b611890612285565b611131816122ce565b336118cb7f9016d09d72d40fdae2fd8ceac6b6234c7706214fd39c1cd1e609a0528c199300546001600160a01b031690565b6001600160a01b031614610c335760405163118cdaa760e01b815233600482015260240161111f565b306001600160a01b037f000000000000000000000000000000000000000000000000000000000000000016148061197a57507f00000000000000000000000000000000000000000000000000000000000000006001600160a01b031661196e5f80516020612c53833981519152546001600160a01b031690565b6001600160a01b031614155b15610c335760405163703e46dd60e11b815260040160405180910390fd5b611131611899565b816001600160a01b03166352d1902d6040518163ffffffff1660e01b8152600401602060405180830381865afa9250505080156119fa575060408051601f3d908101601f191682019092526119f791810190612b6e565b60015b611a2257604051634c9c8ce360e01b81526001600160a01b038316600482015260240161111f565b5f80516020612c538339815191528114611a5257604051632a87526960e21b81526004810182905260240161111f565b611a5c83836122d6565b505050565b306001600160a01b037f00000000000000000000000000000000000000000000000000000000000000001614610c335760405163703e46dd60e11b815260040160405180910390fd5b7f9016d09d72d40fdae2fd8ceac6b6234c7706214fd39c1cd1e609a0528c19930080546001600160a01b031981166001600160a01b03848116918217845560405192169182907f8be0079c531659141344cd1fd0a4f28419497f9722a3daafe3b4186f6b6457e0905f90a3505050565b600f546010545f91829142919083611b32848461232b565b90505f611b3f8584612381565b9050805f03611b895760115461ffff1696505f829003611b6c5760115462010000900460ff169550611bd3565b601154611b829062010000900460ff1683612ba0565b9550611bd3565b601154611b9a9061ffff1682612bb9565b96505f611baa62278d0083612a84565b611bb49085612a9b565b9050611bc0868261232b565b92506001611bce8185612ba0565b975050505b50505050509091565b5f80600d61ffff85161015611c285760015b8461ffff168160ff1611611c225760ff81165f90815260166020526040902054611c189083612a9b565b9150600101611bee565b5061127a565b5f600c815b8161ffff168160ff161015611c7357611c4960ff821688612bd4565b61ffff81165f90815260166020526040902054909350611c699085612a9b565b9350600101611c2d565b505f611c7f8288612bd4565b9050601e5f611c8e8883612bef565b90505f5b8160ff168160ff161015611cdb5761ffff84165f90815260176020908152604080832060ff87168452909152902054611ccb9088612a9b565b96505f1990920191600101611c92565b5050505050509392505050565b6060825f611cf7846002612a84565b611d02906002612a9b565b67ffffffffffffffff811115611d1a57611d1a612901565b6040519080825280601f01601f191660200182016040528015611d44576020820181803683370190505b509050600360fc1b815f81518110611d5e57611d5e612af8565b60200101906001600160f81b03191690815f1a905350600f60fb1b81600181518110611d8c57611d8c612af8565b60200101906001600160f81b03191690815f1a9053505f611dae856002612a84565b611db9906001612a9b565b90505b6001811115611e30576f181899199a1a9b1b9c1cb0b131b232b360811b83600f1660108110611ded57611ded612af8565b1a60f81b828281518110611e0357611e03612af8565b60200101906001600160f81b03191690815f1a90535060049290921c91611e2981612c08565b9050611dbc565b508115611e5a5760405163e22e27eb60e01b8152600481018690526024810185905260440161111f565b9150505b92915050565b600a546005545f91611e779184906123d9565b600b54600d546004549293505f92611e979291869160ff90911690612402565b600a9290925550600b5550565b6005545f90606490611eb69084612a84565b611ec09190612aae565b90505f611ecd8284612acd565b90508160036006015f828254611ee39190612a9b565b9091555050600780548591905f90611efc908490612a9b565b9091555050600880548291905f90611f15908490612a9b565b909155505050505050565b600f544290158015611f325750601054155b15611f7e57600f8190556010556011805461ffff9081165f90815260166020908152604080832086905593549283168252601781528382206201000090930460ff168252919091522055565b5f611f8b82600f5461232b565b90505f611f9a83601054612381565b9050805f036120a55760115461ffff165f9081526016602052604081208054869290611fc7908490612a9b565b90915550505f8290036120195760115461ffff81165f9081526017602090815260408083206201000090940460ff168352929052908120805486929061200e908490612a9b565b9091555061187a9050565b6120266201518083612a84565b600f5f8282546120369190612a9b565b90915550506011805483919060029061205990849062010000900460ff16612ba0565b82546101009290920a60ff81810219909316918316021790915560115461ffff81165f90815260176020908152604080832062010000909404909416825291909152208590555061187a565b6120b262278d0082612a84565b60105f8282546120c29190612a9b565b9091555050601054600f55601180548291905f906120e590849061ffff16612bb9565b92506101000a81548161ffff021916908361ffff16021790555061210b83600f5461232b565b915060016121198184612ba0565b6011805460ff9283166201000090810262ff00001983168117845561ffff908116928116929092175f9081526016602090815260408083208c90559454938416825260178152848220929093049094168452905290208590555050505050565b600554600a546009545f9261219092909185612450565b6005555050565b600d546004545f916121ae91849160ff16906124bd565b600854600954600d54600b549394505f936121d4939291610100900460ff1690866124f5565b600655505050565b5f6121ec64e8d4a5100084612a84565b6001546040516340c10f1960e01b81526001600160a01b038581166004830152602482018490529293505f92909116906340c10f19906044016020604051808303815f875af1158015612241573d5f803e3d5ffd5b505050506040513d601f19601f820116820180604052508101906122659190612b85565b90508061187a5760405163e16c322560e01b815260040160405180910390fd5b7ff0c57e16840df040f15088dc2f81fe391c3923bec73e23a9662efc9c229c6a0054600160401b900460ff16610c3357604051631afcd79f60e31b815260040160405180910390fd5b6110fa612285565b6122df8261259d565b6040516001600160a01b038316907fbc7cd75a20ee27fd9adebab32041f755214dbc6bffa90cc0225b39da2e5c2d3b905f90a280511561232357611a5c8282612600565b610b31612669565b5f8183101561234d57604051630e75465760e31b815260040160405180910390fd5b5f6123588385612acd565b90506201518081101561236d575f915061237a565b611e5a6201518082612aae565b5092915050565b5f818310156123a357604051630e75465760e31b815260040160405180910390fd5b5f6123ae8385612acd565b905062278d00808210156123c4575f92506123d1565b6123ce8183612aae565b92505b505092915050565b5f60646123e68385612a84565b6123f09190612aae565b6123fa9085612a9b565b949350505050565b5f612710612411836064612acd565b61241f60ff86166064612acd565b6124299087612a84565b6124339190612a84565b61243d9190612aae565b6124479086612a9b565b95945050505050565b5f8061245c8486612c1d565b90505f8113801561246c57505f83115b156124b0575f8361247e836064612a84565b6124889190612aae565b6124929088612a9b565b905060648110156124a5578092506124aa565b606492505b506124b4565b8591505b50949350505050565b5f6127106124cc836064612acd565b6124d7856064612acd565b6124e19087612a84565b6124eb9190612a84565b6123fa9190612aae565b5f8060646125038688612a84565b61250d9190612aae565b6125178489612a9b565b6125219190612a9b565b90505f60646125308789612a84565b61253a9190612aae565b612545866002612a84565b61254f9190612a9b565b9050805f036125615760649250612592565b5f8161256e846064612a84565b6125789190612aae565b9050606481111561258c5760649350612590565b8093505b505b505095945050505050565b806001600160a01b03163b5f036125d257604051634c9c8ce360e01b81526001600160a01b038216600482015260240161111f565b5f80516020612c5383398151915280546001600160a01b0319166001600160a01b0392909216919091179055565b60605f80846001600160a01b03168460405161261c9190612c3c565b5f60405180830381855af49150503d805f8114612654576040519150601f19603f3d011682016040523d82523d5f602084013e612659565b606091505b50915091506123ce858383612688565b3415610c335760405163b398979f60e01b815260040160405180910390fd5b60608261269d57612698826126dd565b61127a565b81511580156126b457506001600160a01b0384163b155b1561237a57604051639996b31560e01b81526001600160a01b038516600482015260240161111f565b8051156126ed5780518082602001fd5b604051630a12f52160e11b815260040160405180910390fd5b6040518061018001604052805f81526020015f81526020015f81526020015f81526020015f81526020015f81526020015f81526020015f81526020015f6001600160a01b031681526020015f60038111156127635761276361282b565b81525f6020820181905260409091015290565b5f8060408385031215612787575f80fd5b50508035926020909101359150565b80356001600160a01b03811681146127ac575f80fd5b919050565b5f805f805f60a086880312156127c5575f80fd5b6127ce86612796565b94506127dc60208701612796565b93506127ea60408701612796565b92506127f860608701612796565b915061280660808701612796565b90509295509295909350565b5f60208284031215612822575f80fd5b61127a82612796565b634e487b7160e01b5f52602160045260245ffd5b6004811061285b57634e487b7160e01b5f52602160045260245ffd5b9052565b5f61018082019050825182526020830151602083015260408301516040830152606083015160608301526080830151608083015260a083015160a083015260c083015160c083015260e083015160e0830152610100808401516128cc828501826001600160a01b03169052565b5050610120808401516128e18285018261283f565b5050610140838101519083015261016080840151801515828501526123d1565b634e487b7160e01b5f52604160045260245ffd5b5f8060408385031215612926575f80fd5b61292f83612796565b9150602083013567ffffffffffffffff8082111561294b575f80fd5b818501915085601f83011261295e575f80fd5b81358181111561297057612970612901565b604051601f8201601f19908116603f0116810190838211818310171561299857612998612901565b816040528281528860208487010111156129b0575f80fd5b826020860160208301375f6020848301015280955050505050509250929050565b5f602082840312156129e1575f80fd5b5035919050565b8015158114611131575f80fd5b5f60208284031215612a05575f80fd5b813561127a816129e8565b5f60208284031215612a20575f80fd5b813560ff8116811461127a575f80fd5b5f81518084528060208401602086015e5f602082860101526020601f19601f83011685010191505092915050565b602081525f61127a6020830184612a30565b634e487b7160e01b5f52601160045260245ffd5b8082028115828204841417611e5e57611e5e612a70565b80820180821115611e5e57611e5e612a70565b5f82612ac857634e487b7160e01b5f52601260045260245ffd5b500490565b81810381811115611e5e57611e5e612a70565b5f60018201612af157612af1612a70565b5060010190565b634e487b7160e01b5f52603260045260245ffd5b5f60208083016020845280855180835260408601915060408160051b8701019250602087015f5b82811015612b6157603f19888603018452612b4f858351612a30565b94509285019290850190600101612b33565b5092979650505050505050565b5f60208284031215612b7e575f80fd5b5051919050565b5f60208284031215612b95575f80fd5b815161127a816129e8565b60ff8181168382160190811115611e5e57611e5e612a70565b61ffff81811683821601908082111561237a5761237a612a70565b61ffff82811682821603908082111561237a5761237a612a70565b60ff8281168282160390811115611e5e57611e5e612a70565b5f81612c1657612c16612a70565b505f190190565b8181035f83128015838313168383128216171561237a5761237a612a70565b5f82518060208501845e5f92019182525091905056fe360894a13ba1a3210667c828492db98dca3e2076cc3735a920a3ca505d382bbca2646970667358221220cb394bb26859c6b777bc4d432438ef594a940a9f612bf5200e10049f35c0d12664736f6c63430008190033"
}