{
  "address": "0xdb84e968577806682E1E686D8Bb4a5582180646C",
  "abi": [
    {
      "inputs": [],
      "stateMutability": "nonpayable",
      "type": "constructor"
    },
    {
      "inputs": [
        {
          "internalType": "address",
          "name": "target",
          "type": "address"
        }
      ],
      "name": "AddressEmptyCode",
      "type": "error"
    },
    {
      "inputs": [
        {
          "internalType": "address",
          "name": "implementation",
          "type": "address"
        }
      ],
      "name": "ERC1967InvalidImplementation",
      "type": "error"
    },
    {
      "inputs": [],
      "name": "ERC1967NonPayable",
      "type": "error"
    },
    {
      "inputs": [],
      "name": "FailedInnerCall",
      "type": "error"
    },
    {
      "inputs": [],
      "name": "InvalidInitialization",
      "type": "error"
    },
    {
      "inputs": [],
      "name": "NotInitializing",
      "type": "error"
    },
    {
      "inputs": [
        {
          "internalType": "address",
          "name": "owner",
          "type": "address"
        }
      ],
      "name": "OwnableInvalidOwner",
      "type": "error"
    },
    {
      "inputs": [
        {
          "internalType": "address",
          "name": "account",
          "type": "address"
        }
      ],
      "name": "OwnableUnauthorizedAccount",
      "type": "error"
    },
    {
      "inputs": [],
      "name": "TakasurePool__ContributionBelowMinimumThreshold",
      "type": "error"
    },
    {
      "inputs": [],
      "name": "TakasurePool__ContributionTransferFailed",
      "type": "error"
    },
    {
      "inputs": [],
      "name": "TakasurePool__FeeTransferFailed",
      "type": "error"
    },
    {
      "inputs": [],
      "name": "TakasurePool__InvalidDate",
      "type": "error"
    },
    {
      "inputs": [],
      "name": "TakasurePool__MemberAlreadyExists",
      "type": "error"
    },
    {
      "inputs": [],
      "name": "TakasurePool__MemberAlreadyKYCed",
      "type": "error"
    },
    {
      "inputs": [],
      "name": "TakasurePool__MintFailed",
      "type": "error"
    },
    {
      "inputs": [],
      "name": "TakasurePool__WrongMemberState",
      "type": "error"
    },
    {
      "inputs": [],
      "name": "TakasurePool__WrongServiceFee",
      "type": "error"
    },
    {
      "inputs": [],
      "name": "TakasurePool__ZeroAddress",
      "type": "error"
    },
    {
      "inputs": [],
      "name": "UUPSUnauthorizedCallContext",
      "type": "error"
    },
    {
      "inputs": [
        {
          "internalType": "bytes32",
          "name": "slot",
          "type": "bytes32"
        }
      ],
      "name": "UUPSUnsupportedProxiableUUID",
      "type": "error"
    },
    {
      "inputs": [],
      "name": "WrongTimestamps",
      "type": "error"
    },
    {
      "anonymous": false,
      "inputs": [
        {
          "indexed": false,
          "internalType": "uint64",
          "name": "version",
          "type": "uint64"
        }
      ],
      "name": "Initialized",
      "type": "event"
    },
    {
      "anonymous": false,
      "inputs": [
        {
          "indexed": true,
          "internalType": "uint256",
          "name": "initialReserveRatio",
          "type": "uint256"
        },
        {
          "indexed": false,
          "internalType": "uint256",
          "name": "dynamicReserveRatio",
          "type": "uint256"
        },
        {
          "indexed": true,
          "internalType": "uint256",
          "name": "benefitMultiplierAdjuster",
          "type": "uint256"
        },
        {
          "indexed": true,
          "internalType": "uint256",
          "name": "serviceFee",
          "type": "uint256"
        },
        {
          "indexed": false,
          "internalType": "uint256",
          "name": "bmaFundReserveShare",
          "type": "uint256"
        },
        {
          "indexed": false,
          "internalType": "address",
          "name": "contributionToken",
          "type": "address"
        },
        {
          "indexed": false,
          "internalType": "address",
          "name": "daoToken",
          "type": "address"
        }
      ],
      "name": "OnInitialReserveValues",
      "type": "event"
    },
    {
      "anonymous": false,
      "inputs": [
        {
          "indexed": true,
          "internalType": "uint256",
          "name": "memberId",
          "type": "uint256"
        },
        {
          "indexed": true,
          "internalType": "address",
          "name": "member",
          "type": "address"
        },
        {
          "indexed": true,
          "internalType": "uint256",
          "name": "benefitMultiplier",
          "type": "uint256"
        },
        {
          "indexed": false,
          "internalType": "uint256",
          "name": "contributionAmount",
          "type": "uint256"
        },
        {
          "indexed": false,
          "internalType": "uint256",
          "name": "serviceFee",
          "type": "uint256"
        },
        {
          "indexed": false,
          "internalType": "uint256",
          "name": "membershipDuration",
          "type": "uint256"
        },
        {
          "indexed": false,
          "internalType": "uint256",
          "name": "membershipStartTime",
          "type": "uint256"
        }
      ],
      "name": "OnMemberCreated",
      "type": "event"
    },
    {
      "anonymous": false,
      "inputs": [
        {
          "indexed": true,
          "internalType": "uint256",
          "name": "memberId",
          "type": "uint256"
        },
        {
          "indexed": true,
          "internalType": "address",
          "name": "member",
          "type": "address"
        }
      ],
      "name": "OnMemberJoined",
      "type": "event"
    },
    {
      "anonymous": false,
      "inputs": [
        {
          "indexed": true,
          "internalType": "uint256",
          "name": "memberId",
          "type": "uint256"
        },
        {
          "indexed": true,
          "internalType": "address",
          "name": "member",
          "type": "address"
        }
      ],
      "name": "OnMemberKycVerified",
      "type": "event"
    },
    {
      "anonymous": false,
      "inputs": [
        {
          "indexed": true,
          "internalType": "uint256",
          "name": "memberId",
          "type": "uint256"
        },
        {
          "indexed": true,
          "internalType": "address",
          "name": "member",
          "type": "address"
        },
        {
          "indexed": true,
          "internalType": "uint256",
          "name": "benefitMultiplier",
          "type": "uint256"
        },
        {
          "indexed": false,
          "internalType": "uint256",
          "name": "contributionAmount",
          "type": "uint256"
        },
        {
          "indexed": false,
          "internalType": "uint256",
          "name": "serviceFee",
          "type": "uint256"
        },
        {
          "indexed": false,
          "internalType": "uint256",
          "name": "membershipDuration",
          "type": "uint256"
        },
        {
          "indexed": false,
          "internalType": "uint256",
          "name": "membershipStartTime",
          "type": "uint256"
        }
      ],
      "name": "OnMemberUpdated",
      "type": "event"
    },
    {
      "anonymous": false,
      "inputs": [
        {
          "indexed": true,
          "internalType": "uint256",
          "name": "benefitMultiplierAdjuster",
          "type": "uint256"
        }
      ],
      "name": "OnNewBenefitMultiplierAdjuster",
      "type": "event"
    },
    {
      "anonymous": false,
      "inputs": [
        {
          "indexed": true,
          "internalType": "uint256",
          "name": "dynamicReserveRatio",
          "type": "uint256"
        }
      ],
      "name": "OnNewDynamicReserveRatio",
      "type": "event"
    },
    {
      "anonymous": false,
      "inputs": [
        {
          "indexed": true,
          "internalType": "uint256",
          "name": "proFormaFundReserve",
          "type": "uint256"
        },
        {
          "indexed": true,
          "internalType": "uint256",
          "name": "proFormaClaimReserve",
          "type": "uint256"
        }
      ],
      "name": "OnNewProFormaValues",
      "type": "event"
    },
    {
      "anonymous": false,
      "inputs": [
        {
          "indexed": true,
          "internalType": "uint256",
          "name": "totalContributions",
          "type": "uint256"
        },
        {
          "indexed": true,
          "internalType": "uint256",
          "name": "totalClaimReserve",
          "type": "uint256"
        },
        {
          "indexed": true,
          "internalType": "uint256",
          "name": "totalFundReserve",
          "type": "uint256"
        }
      ],
      "name": "OnNewReserveValues",
      "type": "event"
    },
    {
      "anonymous": false,
      "inputs": [
        {
          "indexed": false,
          "internalType": "address",
          "name": "member",
          "type": "address"
        },
        {
          "indexed": true,
          "internalType": "uint256",
          "name": "memberId",
          "type": "uint256"
        },
        {
          "indexed": true,
          "internalType": "uint256",
          "name": "updatedYearsCovered",
          "type": "uint256"
        },
        {
          "indexed": true,
          "internalType": "uint256",
          "name": "updatedContribution",
          "type": "uint256"
        },
        {
          "indexed": false,
          "internalType": "uint256",
          "name": "updatedTotalServiceFee",
          "type": "uint256"
        }
      ],
      "name": "OnRecurringPayment",
      "type": "event"
    },
    {
      "anonymous": false,
      "inputs": [
        {
          "indexed": true,
          "internalType": "uint8",
          "name": "newServiceFee",
          "type": "uint8"
        }
      ],
      "name": "OnServiceFeeChanged",
      "type": "event"
    },
    {
      "anonymous": false,
      "inputs": [
        {
          "indexed": true,
          "internalType": "address",
          "name": "previousOwner",
          "type": "address"
        },
        {
          "indexed": true,
          "internalType": "address",
          "name": "newOwner",
          "type": "address"
        }
      ],
      "name": "OwnershipTransferred",
      "type": "event"
    },
    {
      "anonymous": false,
      "inputs": [
        {
          "indexed": true,
          "internalType": "address",
          "name": "implementation",
          "type": "address"
        }
      ],
      "name": "Upgraded",
      "type": "event"
    },
    {
      "inputs": [],
      "name": "UPGRADE_INTERFACE_VERSION",
      "outputs": [
        {
          "internalType": "string",
          "name": "",
          "type": "string"
        }
      ],
      "stateMutability": "view",
      "type": "function"
    },
    {
      "inputs": [],
      "name": "allowCustomDuration",
      "outputs": [
        {
          "internalType": "bool",
          "name": "",
          "type": "bool"
        }
      ],
      "stateMutability": "view",
      "type": "function"
    },
    {
      "inputs": [],
      "name": "feeClaimAddress",
      "outputs": [
        {
          "internalType": "address",
          "name": "",
          "type": "address"
        }
      ],
      "stateMutability": "view",
      "type": "function"
    },
    {
      "inputs": [],
      "name": "getCashLast12Months",
      "outputs": [
        {
          "internalType": "uint256",
          "name": "cash_",
          "type": "uint256"
        }
      ],
      "stateMutability": "view",
      "type": "function"
    },
    {
      "inputs": [],
      "name": "getContributionTokenAddress",
      "outputs": [
        {
          "internalType": "address",
          "name": "contributionToken_",
          "type": "address"
        }
      ],
      "stateMutability": "view",
      "type": "function"
    },
    {
      "inputs": [
        {
          "internalType": "address",
          "name": "member",
          "type": "address"
        }
      ],
      "name": "getMemberFromAddress",
      "outputs": [
        {
          "components": [
            {
              "internalType": "uint256",
              "name": "memberId",
              "type": "uint256"
            },
            {
              "internalType": "uint256",
              "name": "benefitMultiplier",
              "type": "uint256"
            },
            {
              "internalType": "uint256",
              "name": "membershipDuration",
              "type": "uint256"
            },
            {
              "internalType": "uint256",
              "name": "yearsCovered",
              "type": "uint256"
            },
            {
              "internalType": "uint256",
              "name": "membershipStartTime",
              "type": "uint256"
            },
            {
              "internalType": "uint256",
              "name": "contribution",
              "type": "uint256"
            },
            {
              "internalType": "uint256",
              "name": "totalContributions",
              "type": "uint256"
            },
            {
              "internalType": "uint256",
              "name": "totalServiceFee",
              "type": "uint256"
            },
            {
              "internalType": "address",
              "name": "wallet",
              "type": "address"
            },
            {
              "internalType": "enum MemberState",
              "name": "memberState",
              "type": "uint8"
            },
            {
              "internalType": "uint256",
              "name": "surplus",
              "type": "uint256"
            },
            {
              "internalType": "bool",
              "name": "isKYCVerified",
              "type": "bool"
            }
          ],
          "internalType": "struct Member",
          "name": "",
          "type": "tuple"
        }
      ],
      "stateMutability": "view",
      "type": "function"
    },
    {
      "inputs": [
        {
          "internalType": "uint256",
          "name": "memberId",
          "type": "uint256"
        }
      ],
      "name": "getMemberFromId",
      "outputs": [
        {
          "components": [
            {
              "internalType": "uint256",
              "name": "memberId",
              "type": "uint256"
            },
            {
              "internalType": "uint256",
              "name": "benefitMultiplier",
              "type": "uint256"
            },
            {
              "internalType": "uint256",
              "name": "membershipDuration",
              "type": "uint256"
            },
            {
              "internalType": "uint256",
              "name": "yearsCovered",
              "type": "uint256"
            },
            {
              "internalType": "uint256",
              "name": "membershipStartTime",
              "type": "uint256"
            },
            {
              "internalType": "uint256",
              "name": "contribution",
              "type": "uint256"
            },
            {
              "internalType": "uint256",
              "name": "totalContributions",
              "type": "uint256"
            },
            {
              "internalType": "uint256",
              "name": "totalServiceFee",
              "type": "uint256"
            },
            {
              "internalType": "address",
              "name": "wallet",
              "type": "address"
            },
            {
              "internalType": "enum MemberState",
              "name": "memberState",
              "type": "uint8"
            },
            {
              "internalType": "uint256",
              "name": "surplus",
              "type": "uint256"
            },
            {
              "internalType": "bool",
              "name": "isKYCVerified",
              "type": "bool"
            }
          ],
          "internalType": "struct Member",
          "name": "",
          "type": "tuple"
        }
      ],
      "stateMutability": "view",
      "type": "function"
    },
    {
      "inputs": [
        {
          "internalType": "address",
          "name": "member",
          "type": "address"
        }
      ],
      "name": "getMemberKYCStatus",
      "outputs": [
        {
          "internalType": "bool",
          "name": "isKYCVerified_",
          "type": "bool"
        }
      ],
      "stateMutability": "view",
      "type": "function"
    },
    {
      "inputs": [],
      "name": "getReserveValues",
      "outputs": [
        {
          "internalType": "uint256",
          "name": "initialReserveRatio_",
          "type": "uint256"
        },
        {
          "internalType": "uint256",
          "name": "dynamicReserveRatio_",
          "type": "uint256"
        },
        {
          "internalType": "uint256",
          "name": "benefitMultiplierAdjuster_",
          "type": "uint256"
        },
        {
          "internalType": "uint256",
          "name": "totalContributions_",
          "type": "uint256"
        },
        {
          "internalType": "uint256",
          "name": "totalClaimReserve_",
          "type": "uint256"
        },
        {
          "internalType": "uint256",
          "name": "totalFundReserve_",
          "type": "uint256"
        },
        {
          "internalType": "uint256",
          "name": "proFormaFundReserve_",
          "type": "uint256"
        },
        {
          "internalType": "uint256",
          "name": "proFormaClaimReserve_",
          "type": "uint256"
        },
        {
          "internalType": "uint256",
          "name": "lossRatio_",
          "type": "uint256"
        },
        {
          "internalType": "uint8",
          "name": "serviceFee_",
          "type": "uint8"
        },
        {
          "internalType": "uint8",
          "name": "bmaFundReserveShare_",
          "type": "uint8"
        },
        {
          "internalType": "bool",
          "name": "isOptimizerEnabled_",
          "type": "bool"
        }
      ],
      "stateMutability": "view",
      "type": "function"
    },
    {
      "inputs": [],
      "name": "getTokenAddress",
      "outputs": [
        {
          "internalType": "address",
          "name": "",
          "type": "address"
        }
      ],
      "stateMutability": "view",
      "type": "function"
    },
    {
      "inputs": [
        {
          "internalType": "address",
          "name": "_contributionToken",
          "type": "address"
        },
        {
          "internalType": "address",
          "name": "_daoToken",
          "type": "address"
        },
        {
          "internalType": "address",
          "name": "_feeClaimAddress",
          "type": "address"
        },
        {
          "internalType": "address",
          "name": "_daoOperator",
          "type": "address"
        }
      ],
      "name": "initialize",
      "outputs": [],
      "stateMutability": "nonpayable",
      "type": "function"
    },
    {
      "inputs": [
        {
          "internalType": "uint256",
          "name": "benefitMultiplier",
          "type": "uint256"
        },
        {
          "internalType": "uint256",
          "name": "contributionAmount",
          "type": "uint256"
        },
        {
          "internalType": "uint256",
          "name": "membershipDuration",
          "type": "uint256"
        }
      ],
      "name": "joinPool",
      "outputs": [],
      "stateMutability": "nonpayable",
      "type": "function"
    },
    {
      "inputs": [],
      "name": "memberIdCounter",
      "outputs": [
        {
          "internalType": "uint256",
          "name": "",
          "type": "uint256"
        }
      ],
      "stateMutability": "view",
      "type": "function"
    },
    {
      "inputs": [],
      "name": "minimumThreshold",
      "outputs": [
        {
          "internalType": "uint256",
          "name": "",
          "type": "uint256"
        }
      ],
      "stateMutability": "view",
      "type": "function"
    },
    {
      "inputs": [],
      "name": "owner",
      "outputs": [
        {
          "internalType": "address",
          "name": "",
          "type": "address"
        }
      ],
      "stateMutability": "view",
      "type": "function"
    },
    {
      "inputs": [],
      "name": "proxiableUUID",
      "outputs": [
        {
          "internalType": "bytes32",
          "name": "",
          "type": "bytes32"
        }
      ],
      "stateMutability": "view",
      "type": "function"
    },
    {
      "inputs": [],
      "name": "recurringPayment",
      "outputs": [],
      "stateMutability": "nonpayable",
      "type": "function"
    },
    {
      "inputs": [],
      "name": "renounceOwnership",
      "outputs": [],
      "stateMutability": "nonpayable",
      "type": "function"
    },
    {
      "inputs": [
        {
          "internalType": "bool",
          "name": "_allowCustomDuration",
          "type": "bool"
        }
      ],
      "name": "setAllowCustomDuration",
      "outputs": [],
      "stateMutability": "nonpayable",
      "type": "function"
    },
    {
      "inputs": [
        {
          "internalType": "address",
          "name": "memberWallet",
          "type": "address"
        }
      ],
      "name": "setKYCStatus",
      "outputs": [],
      "stateMutability": "nonpayable",
      "type": "function"
    },
    {
      "inputs": [
        {
          "internalType": "address",
          "name": "newContributionToken",
          "type": "address"
        }
      ],
      "name": "setNewContributionToken",
      "outputs": [],
      "stateMutability": "nonpayable",
      "type": "function"
    },
    {
      "inputs": [
        {
          "internalType": "address",
          "name": "newFeeClaimAddress",
          "type": "address"
        }
      ],
      "name": "setNewFeeClaimAddress",
      "outputs": [],
      "stateMutability": "nonpayable",
      "type": "function"
    },
    {
      "inputs": [
        {
          "internalType": "uint256",
          "name": "newMinimumThreshold",
          "type": "uint256"
        }
      ],
      "name": "setNewMinimumThreshold",
      "outputs": [],
      "stateMutability": "nonpayable",
      "type": "function"
    },
    {
      "inputs": [
        {
          "internalType": "uint8",
          "name": "newServiceFee",
          "type": "uint8"
        }
      ],
      "name": "setNewServiceFee",
      "outputs": [],
      "stateMutability": "nonpayable",
      "type": "function"
    },
    {
      "inputs": [
        {
          "internalType": "address",
          "name": "newOwner",
          "type": "address"
        }
      ],
      "name": "transferOwnership",
      "outputs": [],
      "stateMutability": "nonpayable",
      "type": "function"
    },
    {
      "inputs": [
        {
          "internalType": "address",
          "name": "newImplementation",
          "type": "address"
        },
        {
          "internalType": "bytes",
          "name": "data",
          "type": "bytes"
        }
      ],
      "name": "upgradeToAndCall",
      "outputs": [],
      "stateMutability": "payable",
      "type": "function"
    }
  ],
  "numDeployments": 24,
  "bytecode": "0x60a060405230608052348015610013575f80fd5b5061001c610021565b6100d3565b7ff0c57e16840df040f15088dc2f81fe391c3923bec73e23a9662efc9c229c6a00805468010000000000000000900460ff16156100715760405163f92ee8a960e01b815260040160405180910390fd5b80546001600160401b03908116146100d05780546001600160401b0319166001600160401b0390811782556040519081527fc7f505b2f371ae2175ee4913f4499e1f2633a7b5936321eed1cdaeb6115181d29060200160405180910390a15b50565b6080516129d16100f95f395f81816117630152818161178c01526118d001526129d15ff3fe60806040526004361061017a575f3560e01c806375da30d0116100cd578063a01d036311610087578063cad7970b11610062578063cad7970b146104f7578063d8fef67d1461050b578063f2fde38b14610524578063f8c8765e14610543575f80fd5b8063a01d036314610491578063ad3cb1cc146104a5578063c3210bd2146104e2575f80fd5b806375da30d0146103995780638b284fcf146103ae5780638da5cb5b146103cd5780639145851714610409578063953e1e231461045357806399acd01014610472575f80fd5b806350bbad6411610138578063639431e811610113578063639431e8146102af5780636462471114610347578063715018a61461036657806375cd11ad1461037a575f80fd5b806350bbad641461024f57806352d1902d1461026e5780635399a7f114610290575f80fd5b806246e8d51461017e57806310fe9ae8146101b357806322a1cdb5146101d05780632e688445146101fc5780633d7b0f5a1461021d5780634f1ef2861461023c575b5f80fd5b348015610189575f80fd5b505f546001600160a01b03165b6040516001600160a01b0390911681526020015b60405180910390f35b3480156101be575f80fd5b506001546001600160a01b0316610196565b3480156101db575f80fd5b506101ef6101ea366004612557565b610562565b6040516101aa91906125a4565b348015610207575f80fd5b5061021b610216366004612646565b610643565b005b348015610228575f80fd5b5061021b610237366004612557565b61075c565b61021b61024a366004612683565b6107af565b34801561025a575f80fd5b5061021b61026936600461273f565b6107ce565b348015610279575f80fd5b506102826107db565b6040519081526020016101aa565b34801561029b575f80fd5b5061021b6102aa366004612763565b6107f6565b3480156102ba575f80fd5b50600354600454600554600654600754600854600954600a54600b54600c54604080519a8b5260208b0199909952978901969096526060880194909452608087019290925260a086015260c085015260e08401526101008381019190915260ff808316610120850152908204811661014084015262010000909104161515610160820152610180016101aa565b348015610352575f80fd5b506101ef61036136600461273f565b610811565b348015610371575f80fd5b5061021b6108bb565b348015610385575f80fd5b50601354610196906001600160a01b031681565b3480156103a4575f80fd5b5061028260115481565b3480156103b9575f80fd5b5061021b6103c8366004612557565b6108ce565b3480156103d8575f80fd5b507f9016d09d72d40fdae2fd8ceac6b6234c7706214fd39c1cd1e609a0528c199300546001600160a01b0316610196565b348015610414575f80fd5b50610443610423366004612557565b6001600160a01b03165f908152600260205260409020600a015460ff1690565b60405190151581526020016101aa565b34801561045e575f80fd5b5061021b61046d366004612557565b610920565b34801561047d575f80fd5b5061021b61048c36600461277e565b610aba565b34801561049c575f80fd5b50610282610b24565b3480156104b0575f80fd5b506104d5604051806040016040528060058152602001640352e302e360dc1b81525081565b6040516101aa919061279e565b3480156104ed575f80fd5b5061028260125481565b348015610502575f80fd5b5061021b610b44565b348015610516575f80fd5b50600d546104439060ff1681565b34801561052f575f80fd5b5061021b61053e366004612557565b610d27565b34801561054e575f80fd5b5061021b61055d3660046127d3565b610d69565b61056a6124cc565b6001600160a01b038281165f90815260026020818152604092839020835161018081018552815481526001820154928101929092529182015492810192909252600380820154606084015260048201546080840152600582015460a0840152600682015460c0840152600782015460e0840152600882015493841661010084015291929091610120840191600160a01b900460ff169081111561060f5761060f612570565b600381111561062057610620612570565b815260098201546020820152600a9091015460ff16151560409091015292915050565b6001335f90815260026020526040902060080154600160a01b900460ff16600381111561067257610672612570565b036106905760405163170817b560e11b815260040160405180910390fd5b6011548210156106b3576040516380bc259360e01b815260040160405180910390fd5b335f908152600260205260408120600a015460ff169080806106d4866110fb565b9250925092508315610739576106ef87848785336001611149565b6106fd838284336001611284565b335f8181526002602052604080822054905190917fe401121725344aa5acd2cd8acae33270feba0ab5b1ccee9ac8b128ef9711a4a991a3610753565b6107488784878588335f6112f4565b6107538183336115c0565b50505050505050565b6107646116fd565b806001600160a01b03811661078c57604051638f0dd18960e01b815260040160405180910390fd5b50601380546001600160a01b0319166001600160a01b0392909216919091179055565b6107b7611758565b6107c0826117fc565b6107ca8282611804565b5050565b6107d66116fd565b601155565b5f6107e46118c5565b505f8051602061297c83398151915290565b6107fe6116fd565b600d805460ff1916911515919091179055565b6108196124cc565b5f8281526014602090815260409182902082516101808101845281548152600182015492810192909252600281015492820192909252600380830154606083015260048301546080830152600583015460a0830152600683015460c0830152600783015460e083015260088301546001600160a01b038116610100840152919291610120840191600160a01b90910460ff169081111561060f5761060f612570565b6108c36116fd565b6108cc5f61190e565b565b6108d66116fd565b806001600160a01b0381166108fe57604051638f0dd18960e01b815260040160405180910390fd5b505f80546001600160a01b0319166001600160a01b0392909216919091179055565b6109286116fd565b6001600160a01b03811661094f57604051638f0dd18960e01b815260040160405180910390fd5b6001600160a01b0381165f908152600260205260409020600a015460ff161561098b576040516389ac5eed60e01b815260040160405180910390fd5b6001600160a01b038181165f90815260026020526040902060080154166109c1576109bc5f805f806001865f6112f4565b610a77565b6001600160a01b0381165f90815260026020526040812060050154819081906109e9906110fb565b6001600160a01b0387165f9081526002602081905260409091206001808201549190920154949750929550909350610a2692869186908990611149565b610a33838284875f611284565b6001600160a01b0384165f8181526002602052604080822054905190917fe401121725344aa5acd2cd8acae33270feba0ab5b1ccee9ac8b128ef9711a4a991a35050505b6001600160a01b0381165f8181526002602052604080822054905190917f859a10760d037ce7ffc5843b696c42f19a1817017c3c2c06d815a02dd968eb6691a350565b610ac26116fd565b60238160ff161115610ae75760405163613b6cf360e01b815260040160405180910390fd5b600c805460ff191660ff83169081179091556040517f619d7fdc9719c2cc14972b1e50eea6ccbf51c5dd93889fe01dc0bf67081e52bb905f90a250565b5f805f610b2f61197e565b91509150610b3d8282611a40565b9250505090565b6001335f90815260026020526040902060080154600160a01b900460ff166003811115610b7357610b73612570565b14610b91576040516308e3e48560e11b815260040160405180910390fd5b335f90815260026020819052604090912060038101546004820154919092015442929190610bc3836301e13380612838565b610bcd908361284f565b841180610be25750610bdf818361284f565b84115b15610c0057604051637d814b9360e11b815260040160405180910390fd5b335f90815260026020526040812060050154600c54909190606490610c289060ff1684612838565b610c329190612862565b90505f610c3f8284612881565b335f908152600260205260408120600301805492935091610c5f90612894565b90915550335f9081526002602052604081206006018054859290610c8490849061284f565b9091555050335f9081526002602052604081206007018054849290610caa90849061284f565b90915550610cbe9050838383336001611284565b335f8181526002602090815260409182902060068101546003820154825460079093015485519687529386019390935293919290917fd887a3b66f8b6be97d29f2361051b9f4130143f29d5f30f3a43b4313e5346997910160405180910390a450505050505050565b610d2f6116fd565b6001600160a01b038116610d5d57604051631e4fbdf760e01b81525f60048201526024015b60405180910390fd5b610d668161190e565b50565b7ff0c57e16840df040f15088dc2f81fe391c3923bec73e23a9662efc9c229c6a008054600160401b810460ff16159067ffffffffffffffff165f81158015610dae5750825b90505f8267ffffffffffffffff166001148015610dca5750303b155b905081158015610dd8575080155b15610df65760405163f92ee8a960e01b815260040160405180910390fd5b845467ffffffffffffffff191660011785558315610e2057845460ff60401b1916600160401b1785555b886001600160a01b038116610e4857604051638f0dd18960e01b815260040160405180910390fd5b886001600160a01b038116610e7057604051638f0dd18960e01b815260040160405180910390fd5b886001600160a01b038116610e9857604051638f0dd18960e01b815260040160405180910390fd5b886001600160a01b038116610ec057604051638f0dd18960e01b815260040160405180910390fd5b610ec8611b4d565b610ed18a611b55565b8c5f806101000a8154816001600160a01b0302191690836001600160a01b031602179055508b60015f6101000a8154816001600160a01b0302191690836001600160a01b031602179055508a60135f6101000a8154816001600160a01b0302191690836001600160a01b03160217905550600160105f6101000a81548161ffff021916908361ffff1602179055506001601060026101000a81548160ff021916908360ff16021790555063017d784060118190555060286002600101819055506002600101546002800181905550606460026003018190555060146002600a015f6101000a81548160ff021916908360ff16021790555060466002600a0160016101000a81548160ff021916908360ff1602179055506002600a015f9054906101000a900460ff1660ff166002600301546002600101547fe515cbc4a82e439908347340a67dd1500f10da18baf83084551d352374beb63f60028001546002600a0160019054906101000a900460ff165f8054906101000a90046001600160a01b031660015f9054906101000a90046001600160a01b031660405161109e949392919093845260ff9290921660208401526001600160a01b03908116604084015216606082015260800190565b60405180910390a45050505083156110f057845460ff60401b19168555604051600181527fc7f505b2f371ae2175ee4913f4499e1f2633a7b5936321eed1cdaeb6115181d29060200160405180910390a15b505050505050505050565b5f808061271061110b8186612862565b6111159190612838565b600c5490935060649061112b9060ff1685612838565b6111359190612862565b91506111418284612881565b929491935050565b600d5442905f9060ff161561115f575084611166565b5063096601805b6001600160a01b0384165f908152600260208190526040909120600181018a9055908101829055600481018390556005810188905560078101869055600801805484919060ff60a01b1916600160a01b8360038111156111c8576111c8612570565b02179055506001600160a01b0384165f908152600260205260409020600a015460ff16611215576001600160a01b0384165f908152600260205260409020600a01805460ff191660011790555b6001600160a01b0384165f818152600260209081526040918290205482518b8152918201899052918101849052606081018590528a9291907f73e3bd25ce46d313bb78e96aa812896a46a75db3e5a2f88bf6f9eb4a28177c899060800160405180910390a45050505050505050565b61128d85611b66565b6112978585611bd7565b6112a084611c84565b6010545f906112bd9061ffff81169062010000900460ff16611a40565b90506112c881611edd565b6112d181611f2a565b6112db8684611f9e565b81156112ec576112ec8585856115c0565b505050505050565b60125f815461130290612894565b90915550600d5442905f9060ff161561131c575085611323565b5063096601805b5f60405180610180016040528060125481526020018b8152602001838152602001600181526020018481526020018a81526020018a8152602001888152602001866001600160a01b0316815260200185600381111561138457611384612570565b81525f60208083018290528915156040938401526001600160a01b03808a16835260028083529284902085518155918501516001830155928401519181019190915560608301516003808301919091556080840151600483015560a0840151600583015560c0840151600683015560e08401516007830155610100840151600883018054919094166001600160a01b031982168117855561012086015195965086959394926001600160a81b03199092161790600160a01b90849081111561144e5761144e612570565b0217905550610140820151600982015561016090910151600a909101805491151560ff199092169190911790556012545f908152601460209081526040918290208351815590830151600182015590820151600282015560608201516003808301919091556080830151600483015560a0830151600583015560c0830151600683015560e083015160078301556101008301516008830180546001600160a01b039092166001600160a01b031983168117825561012086015186959490936001600160a81b03191690911790600160a01b90849081111561153157611531612570565b0217905550610140820151600982015561016090910151600a909101805460ff1916911515919091179055601254604080518b8152602081018a9052908101849052606081018590528b916001600160a01b038816917f8cb1dfa762ab13a1e597b1fbf3040ce8a57fc843313a27f2ada8f3027e248d639060800160405180910390a450505050505050505050565b5f80546040516323b872dd60e01b81526001600160a01b03848116600483015230602483015260448201879052909116906323b872dd906064016020604051808303815f875af1158015611616573d5f803e3d5ffd5b505050506040513d601f19601f8201168201806040525081019061163a91906128ac565b90508061165a57604051630afdbbef60e11b815260040160405180910390fd5b5f546013546040516323b872dd60e01b81526001600160a01b0385811660048301529182166024820152604481018690529116906323b872dd906064016020604051808303815f875af11580156116b3573d5f803e3d5ffd5b505050506040513d601f19601f820116820180604052508101906116d791906128ac565b9050806116f757604051630bc6abbf60e11b815260040160405180910390fd5b50505050565b3361172f7f9016d09d72d40fdae2fd8ceac6b6234c7706214fd39c1cd1e609a0528c199300546001600160a01b031690565b6001600160a01b0316146108cc5760405163118cdaa760e01b8152336004820152602401610d54565b306001600160a01b037f00000000000000000000000000000000000000000000000000000000000000001614806117de57507f00000000000000000000000000000000000000000000000000000000000000006001600160a01b03166117d25f8051602061297c833981519152546001600160a01b031690565b6001600160a01b031614155b156108cc5760405163703e46dd60e11b815260040160405180910390fd5b610d666116fd565b816001600160a01b03166352d1902d6040518163ffffffff1660e01b8152600401602060405180830381865afa92505050801561185e575060408051601f3d908101601f1916820190925261185b918101906128c7565b60015b61188657604051634c9c8ce360e01b81526001600160a01b0383166004820152602401610d54565b5f8051602061297c83398151915281146118b657604051632a87526960e21b815260048101829052602401610d54565b6118c08383612047565b505050565b306001600160a01b037f000000000000000000000000000000000000000000000000000000000000000016146108cc5760405163703e46dd60e11b815260040160405180910390fd5b7f9016d09d72d40fdae2fd8ceac6b6234c7706214fd39c1cd1e609a0528c19930080546001600160a01b031981166001600160a01b03848116918217845560405192169182907f8be0079c531659141344cd1fd0a4f28419497f9722a3daafe3b4186f6b6457e0905f90a3505050565b600e54600f545f91829142919083611996848461209c565b90505f6119a385846120f6565b9050805f036119ed5760105461ffff1696505f8290036119d05760105462010000900460ff169550611a37565b6010546119e69062010000900460ff16836128de565b9550611a37565b6010546119fe9061ffff16826128f7565b96505f611a0e62278d0083612838565b611a18908561284f565b9050611a24868261209c565b92506001611a3281856128de565b975050505b50505050509091565b5f80600d61ffff85161015611a8c5760015b8461ffff168160ff1611611a865760ff81165f90815260156020526040902054611a7c908361284f565b9150600101611a52565b50611b46565b5f600c815b8161ffff168160ff161015611ad757611aad60ff821688612912565b61ffff81165f90815260156020526040902054909350611acd908561284f565b9350600101611a91565b505f611ae38288612912565b9050601e5f611af2888361292d565b90505f5b8160ff168160ff161015611b3f5761ffff84165f90815260166020908152604080832060ff87168452909152902054611b2f908861284f565b96505f1990920191600101611af6565b5050505050505b9392505050565b6108cc61214e565b611b5d61214e565b610d6681612197565b6009546004545f91611b7991849061219f565b600a54600c546003549293505f92611b999291869160ff909116906121c8565b6009839055600a819055604051909150819083907fef84322b55f4939d27d3b36ae9e4926ef037a07440ce3bb44599583169ffddf5905f90a3505050565b6004545f90606490611be99084612838565b611bf39190612862565b90505f611c008284612881565b90508160026006015f828254611c16919061284f565b9091555050600680548591905f90611c2f90849061284f565b9091555050600780548291905f90611c4890849061284f565b90915550506008546007546006546040517fb32a88caec200e7c434e9ca09c121e16600ea9050f2f44f6300b20669c645f5a905f90a450505050565b600e544290158015611c965750600f54155b15611ce257600e819055600f556010805461ffff9081165f90815260156020908152604080832086905593549283168252601681528382206201000090930460ff168252919091522055565b5f611cef82600e5461209c565b90505f611cfe83600f546120f6565b9050805f03611e095760105461ffff165f9081526015602052604081208054869290611d2b90849061284f565b90915550505f829003611d7d5760105461ffff81165f9081526016602090815260408083206201000090940460ff1683529290529081208054869290611d7290849061284f565b909155506116f79050565b611d8a6201518083612838565b600e5f828254611d9a919061284f565b909155505060108054839190600290611dbd90849062010000900460ff166128de565b82546101009290920a60ff81810219909316918316021790915560105461ffff81165f9081526016602090815260408083206201000090940490941682529190915220859055506116f7565b611e1662278d0082612838565b600f5f828254611e26919061284f565b9091555050600f54600e55601080548291905f90611e4990849061ffff166128f7565b92506101000a81548161ffff021916908361ffff160217905550611e6f83600e5461209c565b91506001611e7d81846128de565b6010805460ff9283166201000090810262ff00001983168117845561ffff908116928116929092175f9081526015602090815260408083208c90559454938416825260168152848220929093049094168452905290208590555050505050565b6004546009546008545f92611ef492909185612216565b600481905560405190915081907fd6c034912eed75cc59fdcb130f3944452a4c0b46be6be9e6392dde5fba377b27905f90a25050565b600c546003545f91611f4191849160ff1690612283565b600754600854600c54600a549394505f93611f67939291610100900460ff1690866122bb565b600581905560405190915081907f998eb01649362dd9eab511526459e58edfba8e6fe884a70dd77bfc59e35bfdc3905f90a2505050565b5f611fae64e8d4a5100084612838565b6001546040516340c10f1960e01b81526001600160a01b038581166004830152602482018490529293505f92909116906340c10f19906044016020604051808303815f875af1158015612003573d5f803e3d5ffd5b505050506040513d601f19601f8201168201806040525081019061202791906128ac565b9050806116f75760405163e16c322560e01b815260040160405180910390fd5b61205082612363565b6040516001600160a01b038316907fbc7cd75a20ee27fd9adebab32041f755214dbc6bffa90cc0225b39da2e5c2d3b905f90a2805115612094576118c082826123c6565b6107ca61242f565b5f818310156120be57604051630e75465760e31b815260040160405180910390fd5b5f6120c98385612881565b9050620151808110156120de575f91506120ee565b6120eb6201518082612862565b91505b505b92915050565b5f8183101561211857604051630e75465760e31b815260040160405180910390fd5b5f6121238385612881565b905062278d0080821015612139575f9250612146565b6121438183612862565b92505b505092915050565b7ff0c57e16840df040f15088dc2f81fe391c3923bec73e23a9662efc9c229c6a0054600160401b900460ff166108cc57604051631afcd79f60e31b815260040160405180910390fd5b610d2f61214e565b5f60646121ac8385612838565b6121b69190612862565b6121c0908561284f565b949350505050565b5f6127106121d7836064612881565b6121e560ff86166064612881565b6121ef9087612838565b6121f99190612838565b6122039190612862565b61220d908661284f565b95945050505050565b5f806122228486612946565b90505f8113801561223257505f83115b15612276575f83612244836064612838565b61224e9190612862565b612258908861284f565b9050606481101561226b57809250612270565b606492505b5061227a565b8591505b50949350505050565b5f612710612292836064612881565b61229d856064612881565b6122a79087612838565b6122b19190612838565b6121c09190612862565b5f8060646122c98688612838565b6122d39190612862565b6122dd848961284f565b6122e7919061284f565b90505f60646122f68789612838565b6123009190612862565b61230b866002612838565b612315919061284f565b9050805f036123275760649250612358565b5f81612334846064612838565b61233e9190612862565b905060648111156123525760649350612356565b8093505b505b505095945050505050565b806001600160a01b03163b5f0361239857604051634c9c8ce360e01b81526001600160a01b0382166004820152602401610d54565b5f8051602061297c83398151915280546001600160a01b0319166001600160a01b0392909216919091179055565b60605f80846001600160a01b0316846040516123e29190612965565b5f60405180830381855af49150503d805f811461241a576040519150601f19603f3d011682016040523d82523d5f602084013e61241f565b606091505b509150915061214385838361244e565b34156108cc5760405163b398979f60e01b815260040160405180910390fd5b6060826124635761245e826124a3565b611b46565b815115801561247a57506001600160a01b0384163b155b156120ee57604051639996b31560e01b81526001600160a01b0385166004820152602401610d54565b8051156124b35780518082602001fd5b604051630a12f52160e11b815260040160405180910390fd5b6040518061018001604052805f81526020015f81526020015f81526020015f81526020015f81526020015f81526020015f81526020015f81526020015f6001600160a01b031681526020015f600381111561252957612529612570565b81525f6020820181905260409091015290565b80356001600160a01b0381168114612552575f80fd5b919050565b5f60208284031215612567575f80fd5b611b468261253c565b634e487b7160e01b5f52602160045260245ffd5b600481106125a057634e487b7160e01b5f52602160045260245ffd5b9052565b5f61018082019050825182526020830151602083015260408301516040830152606083015160608301526080830151608083015260a083015160a083015260c083015160c083015260e083015160e083015261010080840151612611828501826001600160a01b03169052565b50506101208084015161262682850182612584565b505061014083810151908301526101608084015180151582850152612146565b5f805f60608486031215612658575f80fd5b505081359360208301359350604090920135919050565b634e487b7160e01b5f52604160045260245ffd5b5f8060408385031215612694575f80fd5b61269d8361253c565b9150602083013567ffffffffffffffff808211156126b9575f80fd5b818501915085601f8301126126cc575f80fd5b8135818111156126de576126de61266f565b604051601f8201601f19908116603f011681019083821181831017156127065761270661266f565b8160405282815288602084870101111561271e575f80fd5b826020860160208301375f6020848301015280955050505050509250929050565b5f6020828403121561274f575f80fd5b5035919050565b8015158114610d66575f80fd5b5f60208284031215612773575f80fd5b8135611b4681612756565b5f6020828403121561278e575f80fd5b813560ff81168114611b46575f80fd5b602081525f82518060208401528060208501604085015e5f604082850101526040601f19601f83011684010191505092915050565b5f805f80608085870312156127e6575f80fd5b6127ef8561253c565b93506127fd6020860161253c565b925061280b6040860161253c565b91506128196060860161253c565b905092959194509250565b634e487b7160e01b5f52601160045260245ffd5b80820281158282048414176120f0576120f0612824565b808201808211156120f0576120f0612824565b5f8261287c57634e487b7160e01b5f52601260045260245ffd5b500490565b818103818111156120f0576120f0612824565b5f600182016128a5576128a5612824565b5060010190565b5f602082840312156128bc575f80fd5b8151611b4681612756565b5f602082840312156128d7575f80fd5b5051919050565b60ff81811683821601908111156120f0576120f0612824565b61ffff8181168382160190808211156120ee576120ee612824565b61ffff8281168282160390808211156120ee576120ee612824565b60ff82811682821603908111156120f0576120f0612824565b8181035f8312801583831316838312821617156120ee576120ee612824565b5f82518060208501845e5f92019182525091905056fe360894a13ba1a3210667c828492db98dca3e2076cc3735a920a3ca505d382bbca26469706673582212201a60931c4e66e2d8eb1c23714f79b68e13b8c9508b955713aaf6ee57982c11d064736f6c63430008190033"
}