{
  "address": "0x4828F344162a927a211933Add5bCE4d1529c115D",
  "abi": [
    {
      "inputs": [],
      "stateMutability": "nonpayable",
      "type": "constructor"
    },
    {
      "inputs": [
        {
          "internalType": "address",
          "name": "target",
          "type": "address"
        }
      ],
      "name": "AddressEmptyCode",
      "type": "error"
    },
    {
      "inputs": [
        {
          "internalType": "address",
          "name": "implementation",
          "type": "address"
        }
      ],
      "name": "ERC1967InvalidImplementation",
      "type": "error"
    },
    {
      "inputs": [],
      "name": "ERC1967NonPayable",
      "type": "error"
    },
    {
      "inputs": [],
      "name": "FailedInnerCall",
      "type": "error"
    },
    {
      "inputs": [],
      "name": "InvalidInitialization",
      "type": "error"
    },
    {
      "inputs": [],
      "name": "NotInitializing",
      "type": "error"
    },
    {
      "inputs": [
        {
          "internalType": "address",
          "name": "owner",
          "type": "address"
        }
      ],
      "name": "OwnableInvalidOwner",
      "type": "error"
    },
    {
      "inputs": [
        {
          "internalType": "address",
          "name": "account",
          "type": "address"
        }
      ],
      "name": "OwnableUnauthorizedAccount",
      "type": "error"
    },
    {
      "inputs": [],
      "name": "TakasurePool__ContributionBelowMinimumThreshold",
      "type": "error"
    },
    {
      "inputs": [],
      "name": "TakasurePool__ContributionTransferFailed",
      "type": "error"
    },
    {
      "inputs": [],
      "name": "TakasurePool__FeeTransferFailed",
      "type": "error"
    },
    {
      "inputs": [],
      "name": "TakasurePool__InvalidMember",
      "type": "error"
    },
    {
      "inputs": [],
      "name": "TakasurePool__MemberAlreadyExists",
      "type": "error"
    },
    {
      "inputs": [],
      "name": "TakasurePool__MemberAlreadyKYCed",
      "type": "error"
    },
    {
      "inputs": [],
      "name": "TakasurePool__MintFailed",
      "type": "error"
    },
    {
      "inputs": [],
      "name": "TakasurePool__WrongWakalaFee",
      "type": "error"
    },
    {
      "inputs": [],
      "name": "TakasurePool__ZeroAddress",
      "type": "error"
    },
    {
      "inputs": [],
      "name": "UUPSUnauthorizedCallContext",
      "type": "error"
    },
    {
      "inputs": [
        {
          "internalType": "bytes32",
          "name": "slot",
          "type": "bytes32"
        }
      ],
      "name": "UUPSUnsupportedProxiableUUID",
      "type": "error"
    },
    {
      "inputs": [],
      "name": "WrongTimestamps",
      "type": "error"
    },
    {
      "anonymous": false,
      "inputs": [
        {
          "indexed": false,
          "internalType": "uint64",
          "name": "version",
          "type": "uint64"
        }
      ],
      "name": "Initialized",
      "type": "event"
    },
    {
      "anonymous": false,
      "inputs": [
        {
          "indexed": true,
          "internalType": "address",
          "name": "member",
          "type": "address"
        },
        {
          "indexed": true,
          "internalType": "uint256",
          "name": "contributionAmount",
          "type": "uint256"
        }
      ],
      "name": "OnMemberJoined",
      "type": "event"
    },
    {
      "anonymous": false,
      "inputs": [
        {
          "indexed": true,
          "internalType": "address",
          "name": "member",
          "type": "address"
        }
      ],
      "name": "OnMemberKycVerified",
      "type": "event"
    },
    {
      "anonymous": false,
      "inputs": [
        {
          "indexed": true,
          "internalType": "address",
          "name": "previousOwner",
          "type": "address"
        },
        {
          "indexed": true,
          "internalType": "address",
          "name": "newOwner",
          "type": "address"
        }
      ],
      "name": "OwnershipTransferred",
      "type": "event"
    },
    {
      "anonymous": false,
      "inputs": [
        {
          "indexed": true,
          "internalType": "address",
          "name": "implementation",
          "type": "address"
        }
      ],
      "name": "Upgraded",
      "type": "event"
    },
    {
      "inputs": [],
      "name": "UPGRADE_INTERFACE_VERSION",
      "outputs": [
        {
          "internalType": "string",
          "name": "",
          "type": "string"
        }
      ],
      "stateMutability": "view",
      "type": "function"
    },
    {
      "inputs": [],
      "name": "allowCustomDuration",
      "outputs": [
        {
          "internalType": "bool",
          "name": "",
          "type": "bool"
        }
      ],
      "stateMutability": "view",
      "type": "function"
    },
    {
      "inputs": [],
      "name": "getCashLast12Months",
      "outputs": [
        {
          "internalType": "uint256",
          "name": "cash_",
          "type": "uint256"
        }
      ],
      "stateMutability": "view",
      "type": "function"
    },
    {
      "inputs": [],
      "name": "getContributionTokenAddress",
      "outputs": [
        {
          "internalType": "address",
          "name": "contributionToken_",
          "type": "address"
        }
      ],
      "stateMutability": "view",
      "type": "function"
    },
    {
      "inputs": [
        {
          "internalType": "address",
          "name": "member",
          "type": "address"
        }
      ],
      "name": "getMemberFromAddress",
      "outputs": [
        {
          "components": [
            {
              "internalType": "uint256",
              "name": "memberId",
              "type": "uint256"
            },
            {
              "internalType": "uint256",
              "name": "benefitMultiplier",
              "type": "uint256"
            },
            {
              "internalType": "uint256",
              "name": "membershipDuration",
              "type": "uint256"
            },
            {
              "internalType": "uint256",
              "name": "membershipStartTime",
              "type": "uint256"
            },
            {
              "internalType": "uint256",
              "name": "contribution",
              "type": "uint256"
            },
            {
              "internalType": "uint256",
              "name": "totalWakalaFee",
              "type": "uint256"
            },
            {
              "internalType": "address",
              "name": "wallet",
              "type": "address"
            },
            {
              "internalType": "enum MemberState",
              "name": "memberState",
              "type": "uint8"
            },
            {
              "internalType": "uint256",
              "name": "surplus",
              "type": "uint256"
            },
            {
              "internalType": "bool",
              "name": "isKYCVerified",
              "type": "bool"
            }
          ],
          "internalType": "struct Member",
          "name": "",
          "type": "tuple"
        }
      ],
      "stateMutability": "view",
      "type": "function"
    },
    {
      "inputs": [
        {
          "internalType": "uint256",
          "name": "memberId",
          "type": "uint256"
        }
      ],
      "name": "getMemberFromId",
      "outputs": [
        {
          "components": [
            {
              "internalType": "uint256",
              "name": "memberId",
              "type": "uint256"
            },
            {
              "internalType": "uint256",
              "name": "benefitMultiplier",
              "type": "uint256"
            },
            {
              "internalType": "uint256",
              "name": "membershipDuration",
              "type": "uint256"
            },
            {
              "internalType": "uint256",
              "name": "membershipStartTime",
              "type": "uint256"
            },
            {
              "internalType": "uint256",
              "name": "contribution",
              "type": "uint256"
            },
            {
              "internalType": "uint256",
              "name": "totalWakalaFee",
              "type": "uint256"
            },
            {
              "internalType": "address",
              "name": "wallet",
              "type": "address"
            },
            {
              "internalType": "enum MemberState",
              "name": "memberState",
              "type": "uint8"
            },
            {
              "internalType": "uint256",
              "name": "surplus",
              "type": "uint256"
            },
            {
              "internalType": "bool",
              "name": "isKYCVerified",
              "type": "bool"
            }
          ],
          "internalType": "struct Member",
          "name": "",
          "type": "tuple"
        }
      ],
      "stateMutability": "view",
      "type": "function"
    },
    {
      "inputs": [
        {
          "internalType": "address",
          "name": "member",
          "type": "address"
        }
      ],
      "name": "getMemberKYCStatus",
      "outputs": [
        {
          "internalType": "bool",
          "name": "isKYCVerified_",
          "type": "bool"
        }
      ],
      "stateMutability": "view",
      "type": "function"
    },
    {
      "inputs": [],
      "name": "getReserveValues",
      "outputs": [
        {
          "internalType": "uint256",
          "name": "initialReserveRatio_",
          "type": "uint256"
        },
        {
          "internalType": "uint256",
          "name": "dynamicReserveRatio_",
          "type": "uint256"
        },
        {
          "internalType": "uint256",
          "name": "benefitMultiplierAdjuster_",
          "type": "uint256"
        },
        {
          "internalType": "uint256",
          "name": "totalContributions_",
          "type": "uint256"
        },
        {
          "internalType": "uint256",
          "name": "totalClaimReserve_",
          "type": "uint256"
        },
        {
          "internalType": "uint256",
          "name": "totalFundReserve_",
          "type": "uint256"
        },
        {
          "internalType": "uint256",
          "name": "proFormaFundReserve_",
          "type": "uint256"
        },
        {
          "internalType": "uint256",
          "name": "proFormaClaimReserve_",
          "type": "uint256"
        },
        {
          "internalType": "uint256",
          "name": "lossRatio_",
          "type": "uint256"
        },
        {
          "internalType": "uint8",
          "name": "wakalaFee_",
          "type": "uint8"
        },
        {
          "internalType": "uint8",
          "name": "bmaFundReserveShare_",
          "type": "uint8"
        },
        {
          "internalType": "bool",
          "name": "isOptimizerEnabled_",
          "type": "bool"
        }
      ],
      "stateMutability": "view",
      "type": "function"
    },
    {
      "inputs": [],
      "name": "getTokenAddress",
      "outputs": [
        {
          "internalType": "address",
          "name": "",
          "type": "address"
        }
      ],
      "stateMutability": "view",
      "type": "function"
    },
    {
      "inputs": [
        {
          "internalType": "address",
          "name": "_contributionToken",
          "type": "address"
        },
        {
          "internalType": "address",
          "name": "_daoToken",
          "type": "address"
        },
        {
          "internalType": "address",
          "name": "_wakalaClaimAddress",
          "type": "address"
        },
        {
          "internalType": "address",
          "name": "_daoOperator",
          "type": "address"
        }
      ],
      "name": "initialize",
      "outputs": [],
      "stateMutability": "nonpayable",
      "type": "function"
    },
    {
      "inputs": [
        {
          "internalType": "uint256",
          "name": "benefitMultiplier",
          "type": "uint256"
        },
        {
          "internalType": "uint256",
          "name": "contributionAmount",
          "type": "uint256"
        },
        {
          "internalType": "uint256",
          "name": "membershipDuration",
          "type": "uint256"
        }
      ],
      "name": "joinPool",
      "outputs": [],
      "stateMutability": "nonpayable",
      "type": "function"
    },
    {
      "inputs": [],
      "name": "memberIdCounter",
      "outputs": [
        {
          "internalType": "uint256",
          "name": "",
          "type": "uint256"
        }
      ],
      "stateMutability": "view",
      "type": "function"
    },
    {
      "inputs": [],
      "name": "minimumThreshold",
      "outputs": [
        {
          "internalType": "uint256",
          "name": "",
          "type": "uint256"
        }
      ],
      "stateMutability": "view",
      "type": "function"
    },
    {
      "inputs": [],
      "name": "owner",
      "outputs": [
        {
          "internalType": "address",
          "name": "",
          "type": "address"
        }
      ],
      "stateMutability": "view",
      "type": "function"
    },
    {
      "inputs": [],
      "name": "proxiableUUID",
      "outputs": [
        {
          "internalType": "bytes32",
          "name": "",
          "type": "bytes32"
        }
      ],
      "stateMutability": "view",
      "type": "function"
    },
    {
      "inputs": [],
      "name": "renounceOwnership",
      "outputs": [],
      "stateMutability": "nonpayable",
      "type": "function"
    },
    {
      "inputs": [
        {
          "internalType": "bool",
          "name": "_allowCustomDuration",
          "type": "bool"
        }
      ],
      "name": "setAllowCustomDuration",
      "outputs": [],
      "stateMutability": "nonpayable",
      "type": "function"
    },
    {
      "inputs": [
        {
          "internalType": "address",
          "name": "member",
          "type": "address"
        }
      ],
      "name": "setKYCStatus",
      "outputs": [],
      "stateMutability": "nonpayable",
      "type": "function"
    },
    {
      "inputs": [
        {
          "internalType": "address",
          "name": "newContributionToken",
          "type": "address"
        }
      ],
      "name": "setNewContributionToken",
      "outputs": [],
      "stateMutability": "nonpayable",
      "type": "function"
    },
    {
      "inputs": [
        {
          "internalType": "uint256",
          "name": "newMinimumThreshold",
          "type": "uint256"
        }
      ],
      "name": "setNewMinimumThreshold",
      "outputs": [],
      "stateMutability": "nonpayable",
      "type": "function"
    },
    {
      "inputs": [
        {
          "internalType": "address",
          "name": "newWakalaClaimAddress",
          "type": "address"
        }
      ],
      "name": "setNewWakalaClaimAddress",
      "outputs": [],
      "stateMutability": "nonpayable",
      "type": "function"
    },
    {
      "inputs": [
        {
          "internalType": "uint8",
          "name": "newWakalaFee",
          "type": "uint8"
        }
      ],
      "name": "setNewWakalaFee",
      "outputs": [],
      "stateMutability": "nonpayable",
      "type": "function"
    },
    {
      "inputs": [
        {
          "internalType": "address",
          "name": "newOwner",
          "type": "address"
        }
      ],
      "name": "transferOwnership",
      "outputs": [],
      "stateMutability": "nonpayable",
      "type": "function"
    },
    {
      "inputs": [
        {
          "internalType": "address",
          "name": "newImplementation",
          "type": "address"
        },
        {
          "internalType": "bytes",
          "name": "data",
          "type": "bytes"
        }
      ],
      "name": "upgradeToAndCall",
      "outputs": [],
      "stateMutability": "payable",
      "type": "function"
    },
    {
      "inputs": [],
      "name": "wakalaClaimAddress",
      "outputs": [
        {
          "internalType": "address",
          "name": "",
          "type": "address"
        }
      ],
      "stateMutability": "view",
      "type": "function"
    }
  ],
  "numDeployments": 17,
  "bytecode": "0x60a060405230608052348015610013575f80fd5b5061001c610021565b6100d3565b7ff0c57e16840df040f15088dc2f81fe391c3923bec73e23a9662efc9c229c6a00805468010000000000000000900460ff16156100715760405163f92ee8a960e01b815260040160405180910390fd5b80546001600160401b03908116146100d05780546001600160401b0319166001600160401b0390811782556040519081527fc7f505b2f371ae2175ee4913f4499e1f2633a7b5936321eed1cdaeb6115181d29060200160405180910390a15b50565b6080516122256100f95f395f81816115c9015281816115f2015261173601526122255ff3fe608060405260043610610160575f3560e01c806375da30d0116100cd578063ad3cb1cc11610087578063d8aace7c11610062578063d8aace7c146104be578063d8fef67d146104dd578063f2fde38b146104f6578063f8c8765e14610515575f80fd5b8063ad3cb1cc1461044d578063c3210bd21461048a578063c54959701461049f575f80fd5b806375da30d0146103605780638b284fcf146103755780638da5cb5b1461039457806391458517146103d0578063953e1e231461041a578063a01d036314610439575f80fd5b806350bbad641161011e57806350bbad641461023557806352d1902d146102545780635399a7f114610276578063639431e814610295578063646247111461032d578063715018a61461034c575f80fd5b806246e8d5146101645780630b0da2e81461019957806310fe9ae8146101ba57806322a1cdb5146101d75780632e688445146102035780634f1ef28614610222575b5f80fd5b34801561016f575f80fd5b505f546001600160a01b03165b6040516001600160a01b0390911681526020015b60405180910390f35b3480156101a4575f80fd5b506101b86101b3366004611dc3565b610534565b005b3480156101c5575f80fd5b506001546001600160a01b031661017c565b3480156101e2575f80fd5b506101f66101f1366004611dc3565b610587565b6040516101909190611e10565b34801561020e575f80fd5b506101b861021d366004611e9a565b610652565b6101b8610230366004611ed7565b6107a2565b348015610240575f80fd5b506101b861024f366004611f93565b6107c1565b34801561025f575f80fd5b506102686107ce565b604051908152602001610190565b348015610281575f80fd5b506101b8610290366004611fb7565b6107e9565b3480156102a0575f80fd5b50600354600454600554600654600754600854600954600a54600b54600c54604080519a8b5260208b0199909952978901969096526060880194909452608087019290925260a086015260c085015260e08401526101008381019190915260ff80831661012085015290820481166101408401526201000090910416151561016082015261018001610190565b348015610338575f80fd5b506101f6610347366004611f93565b610804565b348015610357575f80fd5b506101b8610898565b34801561036b575f80fd5b5061026860115481565b348015610380575f80fd5b506101b861038f366004611dc3565b6108ab565b34801561039f575f80fd5b507f9016d09d72d40fdae2fd8ceac6b6234c7706214fd39c1cd1e609a0528c199300546001600160a01b031661017c565b3480156103db575f80fd5b5061040a6103ea366004611dc3565b6001600160a01b03165f9081526002602052604090206008015460ff1690565b6040519015158152602001610190565b348015610425575f80fd5b506101b8610434366004611dc3565b6108fd565b348015610444575f80fd5b506102686109f9565b348015610458575f80fd5b5061047d604051806040016040528060058152602001640352e302e360dc1b81525081565b6040516101909190611fd2565b348015610495575f80fd5b5061026860125481565b3480156104aa575f80fd5b506101b86104b9366004612007565b610a19565b3480156104c9575f80fd5b5060135461017c906001600160a01b031681565b3480156104e8575f80fd5b50600d5461040a9060ff1681565b348015610501575f80fd5b506101b8610510366004611dc3565b610a5c565b348015610520575f80fd5b506101b861052f366004612027565b610a9e565b61053c610ccf565b806001600160a01b03811661056457604051638f0dd18960e01b815260040160405180910390fd5b50601380546001600160a01b0319166001600160a01b0392909216919091179055565b61058f611d44565b6001600160a01b038281165f90815260026020818152604092839020835161014081018552815481526001820154928101929092529182015492810192909252600380820154606084015260048201546080840152600582015460a0840152600682015493841660c08401529192909160e0840191600160a01b900460ff169081111561061e5761061e611ddc565b600381111561062f5761062f611ddc565b81526007820154602082015260089091015460ff16151560409091015292915050565b6001335f90815260026020526040902060060154600160a01b900460ff16600381111561068157610681611ddc565b0361069f5760405163170817b560e11b815260040160405180910390fd5b6011548210156106c2576040516380bc259360e01b815260040160405180910390fd5b6127106106cf818461208c565b6106d991906120ab565b600c549092505f906064906106f19060ff16856120ab565b6106fb919061208c565b90505f61070882856120c2565b905061071685858585610d2a565b61071f84610f5b565b6107298482610f9b565b61073281611017565b6010545f9061074f9061ffff81169062010000900460ff16611271565b905061075a8161137e565b6107638161139c565b61076e8583856113e1565b604051859033907f4ccbd5b45aea10bc8c80cbf5663a5d08e09f0c0c596a7ccf31576f6edc77623b905f90a3505050505050565b6107aa6115be565b6107b382611662565b6107bd828261166a565b5050565b6107c9610ccf565b601155565b5f6107d761172b565b505f805160206121d083398151915290565b6107f1610ccf565b600d805460ff1916911515919091179055565b61080c611d44565b5f8281526014602090815260409182902082516101408101845281548152600182015492810192909252600281015492820192909252600380830154606083015260048301546080830152600583015460a083015260068301546001600160a01b03811660c084015291929160e0840191600160a01b90910460ff169081111561061e5761061e611ddc565b6108a0610ccf565b6108a95f611774565b565b6108b3610ccf565b806001600160a01b0381166108db57604051638f0dd18960e01b815260040160405180910390fd5b505f80546001600160a01b0319166001600160a01b0392909216919091179055565b610905610ccf565b6001600160a01b0381161580610951575060016001600160a01b0382165f90815260026020526040902060060154600160a01b900460ff16600381111561094e5761094e611ddc565b14155b1561096f576040516394d03fd160e01b815260040160405180910390fd5b6001600160a01b0381165f9081526002602052604090206008015460ff16156109ab576040516389ac5eed60e01b815260040160405180910390fd5b6001600160a01b0381165f81815260026020526040808220600801805460ff19166001179055517f66db5268d8f029e30f638bebdd132c868f4bafb5a7f69d8987b3d4c6be24d1e99190a250565b5f805f610a046117e4565b91509150610a128282611271565b9250505090565b610a21610ccf565b60648160ff161115610a465760405163c88d0c0160e01b815260040160405180910390fd5b600c805460ff191660ff92909216919091179055565b610a64610ccf565b6001600160a01b038116610a9257604051631e4fbdf760e01b81525f60048201526024015b60405180910390fd5b610a9b81611774565b50565b7ff0c57e16840df040f15088dc2f81fe391c3923bec73e23a9662efc9c229c6a008054600160401b810460ff16159067ffffffffffffffff165f81158015610ae35750825b90505f8267ffffffffffffffff166001148015610aff5750303b155b905081158015610b0d575080155b15610b2b5760405163f92ee8a960e01b815260040160405180910390fd5b845467ffffffffffffffff191660011785558315610b5557845460ff60401b1916600160401b1785555b886001600160a01b038116610b7d57604051638f0dd18960e01b815260040160405180910390fd5b886001600160a01b038116610ba557604051638f0dd18960e01b815260040160405180910390fd5b886001600160a01b038116610bcd57604051638f0dd18960e01b815260040160405180910390fd5b886001600160a01b038116610bf557604051638f0dd18960e01b815260040160405180910390fd5b610bfd6118a6565b610c068a6118ae565b50505f80546001600160a01b03199081166001600160a01b038e8116919091179092556001805482168d841617905560138054909116918b1691909117905550506010805462ffffff19166201000117905563017d7840601155602860038190556004556064600555600c805461ffff19166146141790558315610cc457845460ff60401b19168555604051600181527fc7f505b2f371ae2175ee4913f4499e1f2633a7b5936321eed1cdaeb6115181d29060200160405180910390a15b505050505050505050565b33610d017f9016d09d72d40fdae2fd8ceac6b6234c7706214fd39c1cd1e609a0528c199300546001600160a01b031690565b6001600160a01b0316146108a95760405163118cdaa760e01b8152336004820152602401610a89565b60125f8154610d38906120d5565b90915550600d5442905f9060ff1615610d52575082610d59565b5063096601805b5f6040518061014001604052806012548152602001888152602001838152602001848152602001878152602001858152602001336001600160a01b0316815260200160016003811115610dae57610dae611ddc565b81525f6020808301829052604092830182905233825260028082529183902084518155908401516001820155918301519082015560608201516003808301919091556080830151600483015560a0830151600583015560c08301516006830180546001600160a01b03929092166001600160a01b031983168117825560e086015195965086959391926001600160a81b0319161790600160a01b908490811115610e5a57610e5a611ddc565b02179055506101008201516007820155610120909101516008909101805491151560ff199092169190911790556012545f908152601460209081526040918290208351815590830151600182015590820151600282015560608201516003808301919091556080830151600483015560a0830151600583015560c08301516006830180546001600160a01b039092166001600160a01b031983168117825560e086015186959490936001600160a81b03191690911790600160a01b908490811115610f2757610f27611ddc565b02179055506101008201516007820155610120909101516008909101805460ff191691151591909117905550505050505050565b6009546004545f91610f6e9184906118bf565b600a54600c546003549293505f92610f8e9291869160ff909116906118e8565b60099290925550600a5550565b6004545f90606490610fad90846120ab565b610fb7919061208c565b90505f610fc482846120c2565b90508160026006015f828254610fda91906120ed565b9091555050600680548591905f90610ff39084906120ed565b9091555050600780548291905f9061100c9084906120ed565b909155505050505050565b600e5442901580156110295750600f54155b1561107557600e819055600f556010805461ffff9081165f90815260156020908152604080832086905593549283168252601681528382206201000090930460ff168252919091522055565b5f61108282600e54611936565b90505f61109183600f54611990565b9050805f0361119c5760105461ffff165f90815260156020526040812080548692906110be9084906120ed565b90915550505f8290036111105760105461ffff81165f9081526016602090815260408083206201000090940460ff16835292905290812080548692906111059084906120ed565b9091555061126b9050565b61111d62015180836120ab565b600e5f82825461112d91906120ed565b90915550506010805483919060029061115090849062010000900460ff16612100565b82546101009290920a60ff81810219909316918316021790915560105461ffff81165f90815260166020908152604080832062010000909404909416825291909152208590555061126b565b6111a962278d00826120ab565b600f5f8282546111b991906120ed565b9091555050600f54600e55601080548291905f906111dc90849061ffff16612119565b92506101000a81548161ffff021916908361ffff16021790555061120283600e54611936565b915060016112108184612100565b6010805460ff9283166201000090810262ff00001983168117845561ffff908116928116929092175f9081526015602090815260408083208c9055945493841682526016815284822092909304909416845290529020859055505b50505050565b5f80600d61ffff851610156112bd5760015b8461ffff168160ff16116112b75760ff81165f908152601560205260409020546112ad90836120ed565b9150600101611283565b50611377565b5f600c815b8161ffff168160ff161015611308576112de60ff821688612134565b61ffff81165f908152601560205260409020549093506112fe90856120ed565b93506001016112c2565b505f6113148288612134565b9050601e5f611323888361214f565b90505f5b8160ff168160ff1610156113705761ffff84165f90815260166020908152604080832060ff8716845290915290205461136090886120ed565b96505f1990920191600101611327565b5050505050505b9392505050565b6004546009546008545f92611395929091856119e8565b6004555050565b600c546003545f916113b391849160ff1690611a55565b600754600854600c54600a549394505f936113d9939291610100900460ff169086611a8d565b600555505050565b5f806113f264e8d4a51000866120ab565b6001546040516340c10f1960e01b8152336004820152602481018390529192506001600160a01b0316906340c10f19906044016020604051808303815f875af1158015611441573d5f803e3d5ffd5b505050506040513d601f19601f820116820180604052508101906114659190612168565b9150816114855760405163e16c322560e01b815260040160405180910390fd5b5f546040516323b872dd60e01b8152336004820152306024820152604481018690526001600160a01b03909116906323b872dd906064016020604051808303815f875af11580156114d8573d5f803e3d5ffd5b505050506040513d601f19601f820116820180604052508101906114fc9190612168565b91508161151c57604051630afdbbef60e11b815260040160405180910390fd5b5f546013546040516323b872dd60e01b81523360048201526001600160a01b039182166024820152604481018690529116906323b872dd906064016020604051808303815f875af1158015611573573d5f803e3d5ffd5b505050506040513d601f19601f820116820180604052508101906115979190612168565b9150816115b757604051630bc6abbf60e11b815260040160405180910390fd5b5050505050565b306001600160a01b037f000000000000000000000000000000000000000000000000000000000000000016148061164457507f00000000000000000000000000000000000000000000000000000000000000006001600160a01b03166116385f805160206121d0833981519152546001600160a01b031690565b6001600160a01b031614155b156108a95760405163703e46dd60e11b815260040160405180910390fd5b610a9b610ccf565b816001600160a01b03166352d1902d6040518163ffffffff1660e01b8152600401602060405180830381865afa9250505080156116c4575060408051601f3d908101601f191682019092526116c191810190612183565b60015b6116ec57604051634c9c8ce360e01b81526001600160a01b0383166004820152602401610a89565b5f805160206121d0833981519152811461171c57604051632a87526960e21b815260048101829052602401610a89565b6117268383611b35565b505050565b306001600160a01b037f000000000000000000000000000000000000000000000000000000000000000016146108a95760405163703e46dd60e11b815260040160405180910390fd5b7f9016d09d72d40fdae2fd8ceac6b6234c7706214fd39c1cd1e609a0528c19930080546001600160a01b031981166001600160a01b03848116918217845560405192169182907f8be0079c531659141344cd1fd0a4f28419497f9722a3daafe3b4186f6b6457e0905f90a3505050565b600e54600f545f918291429190836117fc8484611936565b90505f6118098584611990565b9050805f036118535760105461ffff1696505f8290036118365760105462010000900460ff16955061189d565b60105461184c9062010000900460ff1683612100565b955061189d565b6010546118649061ffff1682612119565b96505f61187462278d00836120ab565b61187e90856120ed565b905061188a8682611936565b925060016118988185612100565b975050505b50505050509091565b6108a9611b8a565b6118b6611b8a565b610a9b81611bd3565b5f60646118cc83856120ab565b6118d6919061208c565b6118e090856120ed565b949350505050565b5f6127106118f78360646120c2565b61190560ff861660646120c2565b61190f90876120ab565b61191991906120ab565b611923919061208c565b61192d90866120ed565b95945050505050565b5f8183101561195857604051630e75465760e31b815260040160405180910390fd5b5f61196383856120c2565b905062015180811015611978575f9150611988565b611985620151808261208c565b91505b505b92915050565b5f818310156119b257604051630e75465760e31b815260040160405180910390fd5b5f6119bd83856120c2565b905062278d00808210156119d3575f92506119e0565b6119dd818361208c565b92505b505092915050565b5f806119f4848661219a565b90505f81138015611a0457505f83115b15611a48575f83611a168360646120ab565b611a20919061208c565b611a2a90886120ed565b90506064811015611a3d57809250611a42565b606492505b50611a4c565b8591505b50949350505050565b5f612710611a648360646120c2565b611a6f8560646120c2565b611a7990876120ab565b611a8391906120ab565b6118e0919061208c565b5f806064611a9b86886120ab565b611aa5919061208c565b611aaf84896120ed565b611ab991906120ed565b90505f6064611ac887896120ab565b611ad2919061208c565b611add8660026120ab565b611ae791906120ed565b9050805f03611af95760649250611b2a565b5f81611b068460646120ab565b611b10919061208c565b90506064811115611b245760649350611b28565b8093505b505b505095945050505050565b611b3e82611bdb565b6040516001600160a01b038316907fbc7cd75a20ee27fd9adebab32041f755214dbc6bffa90cc0225b39da2e5c2d3b905f90a2805115611b82576117268282611c3e565b6107bd611ca7565b7ff0c57e16840df040f15088dc2f81fe391c3923bec73e23a9662efc9c229c6a0054600160401b900460ff166108a957604051631afcd79f60e31b815260040160405180910390fd5b610a64611b8a565b806001600160a01b03163b5f03611c1057604051634c9c8ce360e01b81526001600160a01b0382166004820152602401610a89565b5f805160206121d083398151915280546001600160a01b0319166001600160a01b0392909216919091179055565b60605f80846001600160a01b031684604051611c5a91906121b9565b5f60405180830381855af49150503d805f8114611c92576040519150601f19603f3d011682016040523d82523d5f602084013e611c97565b606091505b50915091506119dd858383611cc6565b34156108a95760405163b398979f60e01b815260040160405180910390fd5b606082611cdb57611cd682611d1b565b611377565b8151158015611cf257506001600160a01b0384163b155b1561198857604051639996b31560e01b81526001600160a01b0385166004820152602401610a89565b805115611d2b5780518082602001fd5b604051630a12f52160e11b815260040160405180910390fd5b6040518061014001604052805f81526020015f81526020015f81526020015f81526020015f81526020015f81526020015f6001600160a01b031681526020015f6003811115611d9557611d95611ddc565b81525f6020820181905260409091015290565b80356001600160a01b0381168114611dbe575f80fd5b919050565b5f60208284031215611dd3575f80fd5b61137782611da8565b634e487b7160e01b5f52602160045260245ffd5b60048110611e0c57634e487b7160e01b5f52602160045260245ffd5b9052565b5f61014082019050825182526020830151602083015260408301516040830152606083015160608301526080830151608083015260a083015160a083015260c0830151611e6860c08401826001600160a01b03169052565b5060e0830151611e7b60e0840182611df0565b50610100838101519083015261012080840151801515828501526119e0565b5f805f60608486031215611eac575f80fd5b505081359360208301359350604090920135919050565b634e487b7160e01b5f52604160045260245ffd5b5f8060408385031215611ee8575f80fd5b611ef183611da8565b9150602083013567ffffffffffffffff80821115611f0d575f80fd5b818501915085601f830112611f20575f80fd5b813581811115611f3257611f32611ec3565b604051601f8201601f19908116603f01168101908382118183101715611f5a57611f5a611ec3565b81604052828152886020848701011115611f72575f80fd5b826020860160208301375f6020848301015280955050505050509250929050565b5f60208284031215611fa3575f80fd5b5035919050565b8015158114610a9b575f80fd5b5f60208284031215611fc7575f80fd5b813561137781611faa565b602081525f82518060208401528060208501604085015e5f604082850101526040601f19601f83011684010191505092915050565b5f60208284031215612017575f80fd5b813560ff81168114611377575f80fd5b5f805f806080858703121561203a575f80fd5b61204385611da8565b935061205160208601611da8565b925061205f60408601611da8565b915061206d60608601611da8565b905092959194509250565b634e487b7160e01b5f52601160045260245ffd5b5f826120a657634e487b7160e01b5f52601260045260245ffd5b500490565b808202811582820484141761198a5761198a612078565b8181038181111561198a5761198a612078565b5f600182016120e6576120e6612078565b5060010190565b8082018082111561198a5761198a612078565b60ff818116838216019081111561198a5761198a612078565b61ffff81811683821601908082111561198857611988612078565b61ffff82811682821603908082111561198857611988612078565b60ff828116828216039081111561198a5761198a612078565b5f60208284031215612178575f80fd5b815161137781611faa565b5f60208284031215612193575f80fd5b5051919050565b8181035f83128015838313168383128216171561198857611988612078565b5f82518060208501845e5f92019182525091905056fe360894a13ba1a3210667c828492db98dca3e2076cc3735a920a3ca505d382bbca2646970667358221220355369fe35c356b066f6cb7002f7fcf65ad66a1f19348ab6d3e2c58623c9f31664736f6c63430008190033"
}