{
  "address": "0xE12c1c4D162cFd81D3a9667Dcab20bE8a6F4262C",
  "abi": [
    {
      "inputs": [],
      "stateMutability": "nonpayable",
      "type": "constructor"
    },
    {
      "inputs": [
        {
          "internalType": "address",
          "name": "target",
          "type": "address"
        }
      ],
      "name": "AddressEmptyCode",
      "type": "error"
    },
    {
      "inputs": [
        {
          "internalType": "address",
          "name": "implementation",
          "type": "address"
        }
      ],
      "name": "ERC1967InvalidImplementation",
      "type": "error"
    },
    {
      "inputs": [],
      "name": "ERC1967NonPayable",
      "type": "error"
    },
    {
      "inputs": [],
      "name": "FailedInnerCall",
      "type": "error"
    },
    {
      "inputs": [],
      "name": "InvalidInitialization",
      "type": "error"
    },
    {
      "inputs": [],
      "name": "NotInitializing",
      "type": "error"
    },
    {
      "inputs": [
        {
          "internalType": "address",
          "name": "owner",
          "type": "address"
        }
      ],
      "name": "OwnableInvalidOwner",
      "type": "error"
    },
    {
      "inputs": [
        {
          "internalType": "address",
          "name": "account",
          "type": "address"
        }
      ],
      "name": "OwnableUnauthorizedAccount",
      "type": "error"
    },
    {
      "inputs": [],
      "name": "TakasurePool__ContributionBelowMinimumThreshold",
      "type": "error"
    },
    {
      "inputs": [],
      "name": "TakasurePool__ContributionTransferFailed",
      "type": "error"
    },
    {
      "inputs": [],
      "name": "TakasurePool__FeeTransferFailed",
      "type": "error"
    },
    {
      "inputs": [],
      "name": "TakasurePool__InvalidDate",
      "type": "error"
    },
    {
      "inputs": [],
      "name": "TakasurePool__MemberAlreadyExists",
      "type": "error"
    },
    {
      "inputs": [],
      "name": "TakasurePool__MemberAlreadyKYCed",
      "type": "error"
    },
    {
      "inputs": [],
      "name": "TakasurePool__MintFailed",
      "type": "error"
    },
    {
      "inputs": [],
      "name": "TakasurePool__WrongMemberState",
      "type": "error"
    },
    {
      "inputs": [],
      "name": "TakasurePool__WrongWakalaFee",
      "type": "error"
    },
    {
      "inputs": [],
      "name": "TakasurePool__ZeroAddress",
      "type": "error"
    },
    {
      "inputs": [],
      "name": "UUPSUnauthorizedCallContext",
      "type": "error"
    },
    {
      "inputs": [
        {
          "internalType": "bytes32",
          "name": "slot",
          "type": "bytes32"
        }
      ],
      "name": "UUPSUnsupportedProxiableUUID",
      "type": "error"
    },
    {
      "inputs": [],
      "name": "WrongTimestamps",
      "type": "error"
    },
    {
      "anonymous": false,
      "inputs": [
        {
          "indexed": false,
          "internalType": "uint64",
          "name": "version",
          "type": "uint64"
        }
      ],
      "name": "Initialized",
      "type": "event"
    },
    {
      "anonymous": false,
      "inputs": [
        {
          "indexed": true,
          "internalType": "uint256",
          "name": "memberId",
          "type": "uint256"
        },
        {
          "indexed": true,
          "internalType": "address",
          "name": "member",
          "type": "address"
        },
        {
          "indexed": true,
          "internalType": "uint256",
          "name": "benefitMultiplier",
          "type": "uint256"
        },
        {
          "indexed": false,
          "internalType": "uint256",
          "name": "contributionAmount",
          "type": "uint256"
        },
        {
          "indexed": false,
          "internalType": "uint256",
          "name": "wakalaFee",
          "type": "uint256"
        },
        {
          "indexed": false,
          "internalType": "uint256",
          "name": "membershipDuration",
          "type": "uint256"
        },
        {
          "indexed": false,
          "internalType": "uint256",
          "name": "membershipStartTime",
          "type": "uint256"
        }
      ],
      "name": "OnMemberCreated",
      "type": "event"
    },
    {
      "anonymous": false,
      "inputs": [
        {
          "indexed": true,
          "internalType": "uint256",
          "name": "memberId",
          "type": "uint256"
        },
        {
          "indexed": true,
          "internalType": "address",
          "name": "member",
          "type": "address"
        }
      ],
      "name": "OnMemberJoined",
      "type": "event"
    },
    {
      "anonymous": false,
      "inputs": [
        {
          "indexed": true,
          "internalType": "address",
          "name": "member",
          "type": "address"
        }
      ],
      "name": "OnMemberKycVerified",
      "type": "event"
    },
    {
      "anonymous": false,
      "inputs": [
        {
          "indexed": true,
          "internalType": "uint256",
          "name": "memberId",
          "type": "uint256"
        },
        {
          "indexed": true,
          "internalType": "address",
          "name": "member",
          "type": "address"
        },
        {
          "indexed": true,
          "internalType": "uint256",
          "name": "benefitMultiplier",
          "type": "uint256"
        },
        {
          "indexed": false,
          "internalType": "uint256",
          "name": "contributionAmount",
          "type": "uint256"
        },
        {
          "indexed": false,
          "internalType": "uint256",
          "name": "wakalaFee",
          "type": "uint256"
        },
        {
          "indexed": false,
          "internalType": "uint256",
          "name": "membershipDuration",
          "type": "uint256"
        },
        {
          "indexed": false,
          "internalType": "uint256",
          "name": "membershipStartTime",
          "type": "uint256"
        }
      ],
      "name": "OnMemberUpdated",
      "type": "event"
    },
    {
      "anonymous": false,
      "inputs": [
        {
          "indexed": true,
          "internalType": "address",
          "name": "member",
          "type": "address"
        },
        {
          "indexed": true,
          "internalType": "uint256",
          "name": "updatedYearsCovered",
          "type": "uint256"
        },
        {
          "indexed": true,
          "internalType": "uint256",
          "name": "updatedContribution",
          "type": "uint256"
        },
        {
          "indexed": false,
          "internalType": "uint256",
          "name": "updatedTotalWakalaFee",
          "type": "uint256"
        }
      ],
      "name": "OnRecurringPayment",
      "type": "event"
    },
    {
      "anonymous": false,
      "inputs": [
        {
          "indexed": true,
          "internalType": "address",
          "name": "previousOwner",
          "type": "address"
        },
        {
          "indexed": true,
          "internalType": "address",
          "name": "newOwner",
          "type": "address"
        }
      ],
      "name": "OwnershipTransferred",
      "type": "event"
    },
    {
      "anonymous": false,
      "inputs": [
        {
          "indexed": true,
          "internalType": "address",
          "name": "implementation",
          "type": "address"
        }
      ],
      "name": "Upgraded",
      "type": "event"
    },
    {
      "inputs": [],
      "name": "UPGRADE_INTERFACE_VERSION",
      "outputs": [
        {
          "internalType": "string",
          "name": "",
          "type": "string"
        }
      ],
      "stateMutability": "view",
      "type": "function"
    },
    {
      "inputs": [],
      "name": "allowCustomDuration",
      "outputs": [
        {
          "internalType": "bool",
          "name": "",
          "type": "bool"
        }
      ],
      "stateMutability": "view",
      "type": "function"
    },
    {
      "inputs": [],
      "name": "getCashLast12Months",
      "outputs": [
        {
          "internalType": "uint256",
          "name": "cash_",
          "type": "uint256"
        }
      ],
      "stateMutability": "view",
      "type": "function"
    },
    {
      "inputs": [],
      "name": "getContributionTokenAddress",
      "outputs": [
        {
          "internalType": "address",
          "name": "contributionToken_",
          "type": "address"
        }
      ],
      "stateMutability": "view",
      "type": "function"
    },
    {
      "inputs": [
        {
          "internalType": "address",
          "name": "member",
          "type": "address"
        }
      ],
      "name": "getMemberFromAddress",
      "outputs": [
        {
          "components": [
            {
              "internalType": "uint256",
              "name": "memberId",
              "type": "uint256"
            },
            {
              "internalType": "uint256",
              "name": "benefitMultiplier",
              "type": "uint256"
            },
            {
              "internalType": "uint256",
              "name": "membershipDuration",
              "type": "uint256"
            },
            {
              "internalType": "uint256",
              "name": "yearsCovered",
              "type": "uint256"
            },
            {
              "internalType": "uint256",
              "name": "membershipStartTime",
              "type": "uint256"
            },
            {
              "internalType": "uint256",
              "name": "contribution",
              "type": "uint256"
            },
            {
              "internalType": "uint256",
              "name": "totalContributions",
              "type": "uint256"
            },
            {
              "internalType": "uint256",
              "name": "totalWakalaFee",
              "type": "uint256"
            },
            {
              "internalType": "address",
              "name": "wallet",
              "type": "address"
            },
            {
              "internalType": "enum MemberState",
              "name": "memberState",
              "type": "uint8"
            },
            {
              "internalType": "uint256",
              "name": "surplus",
              "type": "uint256"
            },
            {
              "internalType": "bool",
              "name": "isKYCVerified",
              "type": "bool"
            }
          ],
          "internalType": "struct Member",
          "name": "",
          "type": "tuple"
        }
      ],
      "stateMutability": "view",
      "type": "function"
    },
    {
      "inputs": [
        {
          "internalType": "uint256",
          "name": "memberId",
          "type": "uint256"
        }
      ],
      "name": "getMemberFromId",
      "outputs": [
        {
          "components": [
            {
              "internalType": "uint256",
              "name": "memberId",
              "type": "uint256"
            },
            {
              "internalType": "uint256",
              "name": "benefitMultiplier",
              "type": "uint256"
            },
            {
              "internalType": "uint256",
              "name": "membershipDuration",
              "type": "uint256"
            },
            {
              "internalType": "uint256",
              "name": "yearsCovered",
              "type": "uint256"
            },
            {
              "internalType": "uint256",
              "name": "membershipStartTime",
              "type": "uint256"
            },
            {
              "internalType": "uint256",
              "name": "contribution",
              "type": "uint256"
            },
            {
              "internalType": "uint256",
              "name": "totalContributions",
              "type": "uint256"
            },
            {
              "internalType": "uint256",
              "name": "totalWakalaFee",
              "type": "uint256"
            },
            {
              "internalType": "address",
              "name": "wallet",
              "type": "address"
            },
            {
              "internalType": "enum MemberState",
              "name": "memberState",
              "type": "uint8"
            },
            {
              "internalType": "uint256",
              "name": "surplus",
              "type": "uint256"
            },
            {
              "internalType": "bool",
              "name": "isKYCVerified",
              "type": "bool"
            }
          ],
          "internalType": "struct Member",
          "name": "",
          "type": "tuple"
        }
      ],
      "stateMutability": "view",
      "type": "function"
    },
    {
      "inputs": [
        {
          "internalType": "address",
          "name": "member",
          "type": "address"
        }
      ],
      "name": "getMemberKYCStatus",
      "outputs": [
        {
          "internalType": "bool",
          "name": "isKYCVerified_",
          "type": "bool"
        }
      ],
      "stateMutability": "view",
      "type": "function"
    },
    {
      "inputs": [],
      "name": "getReserveValues",
      "outputs": [
        {
          "internalType": "uint256",
          "name": "initialReserveRatio_",
          "type": "uint256"
        },
        {
          "internalType": "uint256",
          "name": "dynamicReserveRatio_",
          "type": "uint256"
        },
        {
          "internalType": "uint256",
          "name": "benefitMultiplierAdjuster_",
          "type": "uint256"
        },
        {
          "internalType": "uint256",
          "name": "totalContributions_",
          "type": "uint256"
        },
        {
          "internalType": "uint256",
          "name": "totalClaimReserve_",
          "type": "uint256"
        },
        {
          "internalType": "uint256",
          "name": "totalFundReserve_",
          "type": "uint256"
        },
        {
          "internalType": "uint256",
          "name": "proFormaFundReserve_",
          "type": "uint256"
        },
        {
          "internalType": "uint256",
          "name": "proFormaClaimReserve_",
          "type": "uint256"
        },
        {
          "internalType": "uint256",
          "name": "lossRatio_",
          "type": "uint256"
        },
        {
          "internalType": "uint8",
          "name": "wakalaFee_",
          "type": "uint8"
        },
        {
          "internalType": "uint8",
          "name": "bmaFundReserveShare_",
          "type": "uint8"
        },
        {
          "internalType": "bool",
          "name": "isOptimizerEnabled_",
          "type": "bool"
        }
      ],
      "stateMutability": "view",
      "type": "function"
    },
    {
      "inputs": [],
      "name": "getTokenAddress",
      "outputs": [
        {
          "internalType": "address",
          "name": "",
          "type": "address"
        }
      ],
      "stateMutability": "view",
      "type": "function"
    },
    {
      "inputs": [
        {
          "internalType": "address",
          "name": "_contributionToken",
          "type": "address"
        },
        {
          "internalType": "address",
          "name": "_daoToken",
          "type": "address"
        },
        {
          "internalType": "address",
          "name": "_wakalaClaimAddress",
          "type": "address"
        },
        {
          "internalType": "address",
          "name": "_daoOperator",
          "type": "address"
        }
      ],
      "name": "initialize",
      "outputs": [],
      "stateMutability": "nonpayable",
      "type": "function"
    },
    {
      "inputs": [
        {
          "internalType": "uint256",
          "name": "benefitMultiplier",
          "type": "uint256"
        },
        {
          "internalType": "uint256",
          "name": "contributionAmount",
          "type": "uint256"
        },
        {
          "internalType": "uint256",
          "name": "membershipDuration",
          "type": "uint256"
        }
      ],
      "name": "joinPool",
      "outputs": [],
      "stateMutability": "nonpayable",
      "type": "function"
    },
    {
      "inputs": [],
      "name": "memberIdCounter",
      "outputs": [
        {
          "internalType": "uint256",
          "name": "",
          "type": "uint256"
        }
      ],
      "stateMutability": "view",
      "type": "function"
    },
    {
      "inputs": [],
      "name": "minimumThreshold",
      "outputs": [
        {
          "internalType": "uint256",
          "name": "",
          "type": "uint256"
        }
      ],
      "stateMutability": "view",
      "type": "function"
    },
    {
      "inputs": [],
      "name": "owner",
      "outputs": [
        {
          "internalType": "address",
          "name": "",
          "type": "address"
        }
      ],
      "stateMutability": "view",
      "type": "function"
    },
    {
      "inputs": [],
      "name": "proxiableUUID",
      "outputs": [
        {
          "internalType": "bytes32",
          "name": "",
          "type": "bytes32"
        }
      ],
      "stateMutability": "view",
      "type": "function"
    },
    {
      "inputs": [],
      "name": "recurringPayment",
      "outputs": [],
      "stateMutability": "nonpayable",
      "type": "function"
    },
    {
      "inputs": [],
      "name": "renounceOwnership",
      "outputs": [],
      "stateMutability": "nonpayable",
      "type": "function"
    },
    {
      "inputs": [
        {
          "internalType": "bool",
          "name": "_allowCustomDuration",
          "type": "bool"
        }
      ],
      "name": "setAllowCustomDuration",
      "outputs": [],
      "stateMutability": "nonpayable",
      "type": "function"
    },
    {
      "inputs": [
        {
          "internalType": "address",
          "name": "memberWallet",
          "type": "address"
        }
      ],
      "name": "setKYCStatus",
      "outputs": [],
      "stateMutability": "nonpayable",
      "type": "function"
    },
    {
      "inputs": [
        {
          "internalType": "address",
          "name": "newContributionToken",
          "type": "address"
        }
      ],
      "name": "setNewContributionToken",
      "outputs": [],
      "stateMutability": "nonpayable",
      "type": "function"
    },
    {
      "inputs": [
        {
          "internalType": "uint256",
          "name": "newMinimumThreshold",
          "type": "uint256"
        }
      ],
      "name": "setNewMinimumThreshold",
      "outputs": [],
      "stateMutability": "nonpayable",
      "type": "function"
    },
    {
      "inputs": [
        {
          "internalType": "address",
          "name": "newWakalaClaimAddress",
          "type": "address"
        }
      ],
      "name": "setNewWakalaClaimAddress",
      "outputs": [],
      "stateMutability": "nonpayable",
      "type": "function"
    },
    {
      "inputs": [
        {
          "internalType": "uint8",
          "name": "newWakalaFee",
          "type": "uint8"
        }
      ],
      "name": "setNewWakalaFee",
      "outputs": [],
      "stateMutability": "nonpayable",
      "type": "function"
    },
    {
      "inputs": [
        {
          "internalType": "address",
          "name": "newOwner",
          "type": "address"
        }
      ],
      "name": "transferOwnership",
      "outputs": [],
      "stateMutability": "nonpayable",
      "type": "function"
    },
    {
      "inputs": [
        {
          "internalType": "address",
          "name": "newImplementation",
          "type": "address"
        },
        {
          "internalType": "bytes",
          "name": "data",
          "type": "bytes"
        }
      ],
      "name": "upgradeToAndCall",
      "outputs": [],
      "stateMutability": "payable",
      "type": "function"
    },
    {
      "inputs": [],
      "name": "wakalaClaimAddress",
      "outputs": [
        {
          "internalType": "address",
          "name": "",
          "type": "address"
        }
      ],
      "stateMutability": "view",
      "type": "function"
    }
  ],
  "numDeployments": 23,
  "bytecode": "0x60a060405230608052348015610013575f80fd5b5061001c610021565b6100d3565b7ff0c57e16840df040f15088dc2f81fe391c3923bec73e23a9662efc9c229c6a00805468010000000000000000900460ff16156100715760405163f92ee8a960e01b815260040160405180910390fd5b80546001600160401b03908116146100d05780546001600160401b0319166001600160401b0390811782556040519081527fc7f505b2f371ae2175ee4913f4499e1f2633a7b5936321eed1cdaeb6115181d29060200160405180910390a15b50565b6080516127786100f95f395f81816115ca015281816115f3015261173701526127785ff3fe60806040526004361061017a575f3560e01c80638b284fcf116100cd578063c3210bd211610087578063d8aace7c11610062578063d8aace7c146104ec578063d8fef67d1461050b578063f2fde38b14610524578063f8c8765e14610543575f80fd5b8063c3210bd2146104a4578063c5495970146104b9578063cad7970b146104d8575f80fd5b80638b284fcf1461038f5780638da5cb5b146103ae57806391458517146103ea578063953e1e2314610434578063a01d036314610453578063ad3cb1cc14610467575f80fd5b806350bbad6411610138578063639431e811610113578063639431e8146102af5780636462471114610347578063715018a61461036657806375da30d01461037a575f80fd5b806350bbad641461024f57806352d1902d1461026e5780635399a7f114610290575f80fd5b806246e8d51461017e5780630b0da2e8146101b357806310fe9ae8146101d457806322a1cdb5146101f15780632e6884451461021d5780634f1ef2861461023c575b5f80fd5b348015610189575f80fd5b505f546001600160a01b03165b6040516001600160a01b0390911681526020015b60405180910390f35b3480156101be575f80fd5b506101d26101cd3660046122fe565b610562565b005b3480156101df575f80fd5b506001546001600160a01b0316610196565b3480156101fc575f80fd5b5061021061020b3660046122fe565b6105b5565b6040516101aa919061234b565b348015610228575f80fd5b506101d26102373660046123ed565b610696565b6101d261024a36600461242a565b6107af565b34801561025a575f80fd5b506101d26102693660046124e6565b6107ce565b348015610279575f80fd5b506102826107db565b6040519081526020016101aa565b34801561029b575f80fd5b506101d26102aa36600461250a565b6107f6565b3480156102ba575f80fd5b50600354600454600554600654600754600854600954600a54600b54600c54604080519a8b5260208b0199909952978901969096526060880194909452608087019290925260a086015260c085015260e08401526101008381019190915260ff808316610120850152908204811661014084015262010000909104161515610160820152610180016101aa565b348015610352575f80fd5b506102106103613660046124e6565b610811565b348015610371575f80fd5b506101d26108bb565b348015610385575f80fd5b5061028260115481565b34801561039a575f80fd5b506101d26103a93660046122fe565b6108ce565b3480156103b9575f80fd5b507f9016d09d72d40fdae2fd8ceac6b6234c7706214fd39c1cd1e609a0528c199300546001600160a01b0316610196565b3480156103f5575f80fd5b506104246104043660046122fe565b6001600160a01b03165f908152600260205260409020600a015460ff1690565b60405190151581526020016101aa565b34801561043f575f80fd5b506101d261044e3660046122fe565b610920565b34801561045e575f80fd5b50610282610aad565b348015610472575f80fd5b50610497604051806040016040528060058152602001640352e302e360dc1b81525081565b6040516101aa9190612525565b3480156104af575f80fd5b5061028260125481565b3480156104c4575f80fd5b506101d26104d336600461255a565b610acd565b3480156104e3575f80fd5b506101d2610b10565b3480156104f7575f80fd5b50601354610196906001600160a01b031681565b348015610516575f80fd5b50600d546104249060ff1681565b34801561052f575f80fd5b506101d261053e3660046122fe565b610cef565b34801561054e575f80fd5b506101d261055d36600461257a565b610d31565b61056a610f62565b806001600160a01b03811661059257604051638f0dd18960e01b815260040160405180910390fd5b50601380546001600160a01b0319166001600160a01b0392909216919091179055565b6105bd612273565b6001600160a01b038281165f90815260026020818152604092839020835161018081018552815481526001820154928101929092529182015492810192909252600380820154606084015260048201546080840152600582015460a0840152600682015460c0840152600782015460e0840152600882015493841661010084015291929091610120840191600160a01b900460ff169081111561066257610662612317565b600381111561067357610673612317565b815260098201546020820152600a9091015460ff16151560409091015292915050565b6001335f90815260026020526040902060080154600160a01b900460ff1660038111156106c5576106c5612317565b036106e35760405163170817b560e11b815260040160405180910390fd5b601154821015610706576040516380bc259360e01b815260040160405180910390fd5b335f908152600260205260408120600a015460ff1690808061072786610fbd565b925092509250831561078c576107428784878533600161100b565b610750838284336001611146565b335f8181526002602052604080822054905190917fe401121725344aa5acd2cd8acae33270feba0ab5b1ccee9ac8b128ef9711a4a991a36107a6565b61079b8784878588335f6111b6565b6107a6818333611482565b50505050505050565b6107b76115bf565b6107c082611663565b6107ca828261166b565b5050565b6107d6610f62565b601155565b5f6107e461172c565b505f8051602061272383398151915290565b6107fe610f62565b600d805460ff1916911515919091179055565b610819612273565b5f8281526014602090815260409182902082516101808101845281548152600182015492810192909252600281015492820192909252600380830154606083015260048301546080830152600583015460a0830152600683015460c0830152600783015460e083015260088301546001600160a01b038116610100840152919291610120840191600160a01b90910460ff169081111561066257610662612317565b6108c3610f62565b6108cc5f611775565b565b6108d6610f62565b806001600160a01b0381166108fe57604051638f0dd18960e01b815260040160405180910390fd5b505f80546001600160a01b0319166001600160a01b0392909216919091179055565b610928610f62565b6001600160a01b03811661094f57604051638f0dd18960e01b815260040160405180910390fd5b6001600160a01b0381165f908152600260205260409020600a015460ff161561098b576040516389ac5eed60e01b815260040160405180910390fd5b6001600160a01b038181165f90815260026020526040902060080154166109c1576109bc5f805f806001865f6111b6565b610a77565b6001600160a01b0381165f90815260026020526040812060050154819081906109e990610fbd565b6001600160a01b0387165f9081526002602081905260409091206001808201549190920154949750929550909350610a269286918690899061100b565b610a33838284875f611146565b6001600160a01b0384165f8181526002602052604080822054905190917fe401121725344aa5acd2cd8acae33270feba0ab5b1ccee9ac8b128ef9711a4a991a35050505b6040516001600160a01b038216907f66db5268d8f029e30f638bebdd132c868f4bafb5a7f69d8987b3d4c6be24d1e9905f90a250565b5f805f610ab86117e5565b91509150610ac682826118a7565b9250505090565b610ad5610f62565b60648160ff161115610afa5760405163c88d0c0160e01b815260040160405180910390fd5b600c805460ff191660ff92909216919091179055565b6001335f90815260026020526040902060080154600160a01b900460ff166003811115610b3f57610b3f612317565b14610b5d576040516308e3e48560e11b815260040160405180910390fd5b335f90815260026020819052604090912060038101546004820154919092015442929190610b8f836301e133806125df565b610b9990836125f6565b841180610bae5750610bab81836125f6565b84115b15610bcc57604051637d814b9360e11b815260040160405180910390fd5b335f90815260026020526040812060050154600c54909190606490610bf49060ff16846125df565b610bfe9190612609565b90505f610c0b8284612628565b335f908152600260205260408120600301805492935091610c2b9061263b565b90915550335f9081526002602052604081206006018054859290610c509084906125f6565b9091555050335f9081526002602052604081206007018054849290610c769084906125f6565b90915550610c8a9050838383336001611146565b335f8181526002602052604090819020600681015460038201546007909201549251909391927fda404c81177f9e2b8417ec5efc8d615177a67ef061028b1fa886e2ef55123f7191610cde91815260200190565b60405180910390a450505050505050565b610cf7610f62565b6001600160a01b038116610d2557604051631e4fbdf760e01b81525f60048201526024015b60405180910390fd5b610d2e81611775565b50565b7ff0c57e16840df040f15088dc2f81fe391c3923bec73e23a9662efc9c229c6a008054600160401b810460ff16159067ffffffffffffffff165f81158015610d765750825b90505f8267ffffffffffffffff166001148015610d925750303b155b905081158015610da0575080155b15610dbe5760405163f92ee8a960e01b815260040160405180910390fd5b845467ffffffffffffffff191660011785558315610de857845460ff60401b1916600160401b1785555b886001600160a01b038116610e1057604051638f0dd18960e01b815260040160405180910390fd5b886001600160a01b038116610e3857604051638f0dd18960e01b815260040160405180910390fd5b886001600160a01b038116610e6057604051638f0dd18960e01b815260040160405180910390fd5b886001600160a01b038116610e8857604051638f0dd18960e01b815260040160405180910390fd5b610e906119b4565b610e998a6119bc565b50505f80546001600160a01b03199081166001600160a01b038e8116919091179092556001805482168d841617905560138054909116918b1691909117905550506010805462ffffff19166201000117905563017d7840601155602860038190556004556064600555600c805461ffff19166146141790558315610f5757845460ff60401b19168555604051600181527fc7f505b2f371ae2175ee4913f4499e1f2633a7b5936321eed1cdaeb6115181d29060200160405180910390a15b505050505050505050565b33610f947f9016d09d72d40fdae2fd8ceac6b6234c7706214fd39c1cd1e609a0528c199300546001600160a01b031690565b6001600160a01b0316146108cc5760405163118cdaa760e01b8152336004820152602401610d1c565b5f8080612710610fcd8186612609565b610fd791906125df565b600c54909350606490610fed9060ff16856125df565b610ff79190612609565b91506110038284612628565b929491935050565b600d5442905f9060ff1615611021575084611028565b5063096601805b6001600160a01b0384165f908152600260208190526040909120600181018a9055908101829055600481018390556005810188905560078101869055600801805484919060ff60a01b1916600160a01b83600381111561108a5761108a612317565b02179055506001600160a01b0384165f908152600260205260409020600a015460ff166110d7576001600160a01b0384165f908152600260205260409020600a01805460ff191660011790555b6001600160a01b0384165f818152600260209081526040918290205482518b8152918201899052918101849052606081018590528a9291907f73e3bd25ce46d313bb78e96aa812896a46a75db3e5a2f88bf6f9eb4a28177c899060800160405180910390a45050505050505050565b61114f856119cd565b6111598585611a0d565b61116284611a89565b6010545f9061117f9061ffff81169062010000900460ff166118a7565b905061118a81611ce2565b61119381611d00565b61119d8684611d45565b81156111ae576111ae858585611482565b505050505050565b60125f81546111c49061263b565b90915550600d5442905f9060ff16156111de5750856111e5565b5063096601805b5f60405180610180016040528060125481526020018b8152602001838152602001600181526020018481526020018a81526020018a8152602001888152602001866001600160a01b0316815260200185600381111561124657611246612317565b81525f60208083018290528915156040938401526001600160a01b03808a16835260028083529284902085518155918501516001830155928401519181019190915560608301516003808301919091556080840151600483015560a0840151600583015560c0840151600683015560e08401516007830155610100840151600883018054919094166001600160a01b031982168117855561012086015195965086959394926001600160a81b03199092161790600160a01b90849081111561131057611310612317565b0217905550610140820151600982015561016090910151600a909101805491151560ff199092169190911790556012545f908152601460209081526040918290208351815590830151600182015590820151600282015560608201516003808301919091556080830151600483015560a0830151600583015560c0830151600683015560e083015160078301556101008301516008830180546001600160a01b039092166001600160a01b031983168117825561012086015186959490936001600160a81b03191690911790600160a01b9084908111156113f3576113f3612317565b0217905550610140820151600982015561016090910151600a909101805460ff1916911515919091179055601254604080518b8152602081018a9052908101849052606081018590528b916001600160a01b038816917f8cb1dfa762ab13a1e597b1fbf3040ce8a57fc843313a27f2ada8f3027e248d639060800160405180910390a450505050505050505050565b5f80546040516323b872dd60e01b81526001600160a01b03848116600483015230602483015260448201879052909116906323b872dd906064016020604051808303815f875af11580156114d8573d5f803e3d5ffd5b505050506040513d601f19601f820116820180604052508101906114fc9190612653565b90508061151c57604051630afdbbef60e11b815260040160405180910390fd5b5f546013546040516323b872dd60e01b81526001600160a01b0385811660048301529182166024820152604481018690529116906323b872dd906064016020604051808303815f875af1158015611575573d5f803e3d5ffd5b505050506040513d601f19601f820116820180604052508101906115999190612653565b9050806115b957604051630bc6abbf60e11b815260040160405180910390fd5b50505050565b306001600160a01b037f000000000000000000000000000000000000000000000000000000000000000016148061164557507f00000000000000000000000000000000000000000000000000000000000000006001600160a01b03166116395f80516020612723833981519152546001600160a01b031690565b6001600160a01b031614155b156108cc5760405163703e46dd60e11b815260040160405180910390fd5b610d2e610f62565b816001600160a01b03166352d1902d6040518163ffffffff1660e01b8152600401602060405180830381865afa9250505080156116c5575060408051601f3d908101601f191682019092526116c29181019061266e565b60015b6116ed57604051634c9c8ce360e01b81526001600160a01b0383166004820152602401610d1c565b5f80516020612723833981519152811461171d57604051632a87526960e21b815260048101829052602401610d1c565b6117278383611dee565b505050565b306001600160a01b037f000000000000000000000000000000000000000000000000000000000000000016146108cc5760405163703e46dd60e11b815260040160405180910390fd5b7f9016d09d72d40fdae2fd8ceac6b6234c7706214fd39c1cd1e609a0528c19930080546001600160a01b031981166001600160a01b03848116918217845560405192169182907f8be0079c531659141344cd1fd0a4f28419497f9722a3daafe3b4186f6b6457e0905f90a3505050565b600e54600f545f918291429190836117fd8484611e43565b90505f61180a8584611e9d565b9050805f036118545760105461ffff1696505f8290036118375760105462010000900460ff16955061189e565b60105461184d9062010000900460ff1683612685565b955061189e565b6010546118659061ffff168261269e565b96505f61187562278d00836125df565b61187f90856125f6565b905061188b8682611e43565b925060016118998185612685565b975050505b50505050509091565b5f80600d61ffff851610156118f35760015b8461ffff168160ff16116118ed5760ff81165f908152601560205260409020546118e390836125f6565b91506001016118b9565b506119ad565b5f600c815b8161ffff168160ff16101561193e5761191460ff8216886126b9565b61ffff81165f9081526015602052604090205490935061193490856125f6565b93506001016118f8565b505f61194a82886126b9565b9050601e5f61195988836126d4565b90505f5b8160ff168160ff1610156119a65761ffff84165f90815260166020908152604080832060ff8716845290915290205461199690886125f6565b96505f199092019160010161195d565b5050505050505b9392505050565b6108cc611ef5565b6119c4611ef5565b610d2e81611f3e565b6009546004545f916119e0918490611f46565b600a54600c546003549293505f92611a009291869160ff90911690611f6f565b60099290925550600a5550565b6004545f90606490611a1f90846125df565b611a299190612609565b90505f611a368284612628565b90508160026006015f828254611a4c91906125f6565b9091555050600680548591905f90611a659084906125f6565b9091555050600780548291905f90611a7e9084906125f6565b909155505050505050565b600e544290158015611a9b5750600f54155b15611ae757600e819055600f556010805461ffff9081165f90815260156020908152604080832086905593549283168252601681528382206201000090930460ff168252919091522055565b5f611af482600e54611e43565b90505f611b0383600f54611e9d565b9050805f03611c0e5760105461ffff165f9081526015602052604081208054869290611b309084906125f6565b90915550505f829003611b825760105461ffff81165f9081526016602090815260408083206201000090940460ff1683529290529081208054869290611b779084906125f6565b909155506115b99050565b611b8f62015180836125df565b600e5f828254611b9f91906125f6565b909155505060108054839190600290611bc290849062010000900460ff16612685565b82546101009290920a60ff81810219909316918316021790915560105461ffff81165f9081526016602090815260408083206201000090940490941682529190915220859055506115b9565b611c1b62278d00826125df565b600f5f828254611c2b91906125f6565b9091555050600f54600e55601080548291905f90611c4e90849061ffff1661269e565b92506101000a81548161ffff021916908361ffff160217905550611c7483600e54611e43565b91506001611c828184612685565b6010805460ff9283166201000090810262ff00001983168117845561ffff908116928116929092175f9081526015602090815260408083208c90559454938416825260168152848220929093049094168452905290208590555050505050565b6004546009546008545f92611cf992909185611fbd565b6004555050565b600c546003545f91611d1791849160ff169061202a565b600754600854600c54600a549394505f93611d3d939291610100900460ff169086612062565b600555505050565b5f611d5564e8d4a51000846125df565b6001546040516340c10f1960e01b81526001600160a01b038581166004830152602482018490529293505f92909116906340c10f19906044016020604051808303815f875af1158015611daa573d5f803e3d5ffd5b505050506040513d601f19601f82011682018060405250810190611dce9190612653565b9050806115b95760405163e16c322560e01b815260040160405180910390fd5b611df78261210a565b6040516001600160a01b038316907fbc7cd75a20ee27fd9adebab32041f755214dbc6bffa90cc0225b39da2e5c2d3b905f90a2805115611e3b57611727828261216d565b6107ca6121d6565b5f81831015611e6557604051630e75465760e31b815260040160405180910390fd5b5f611e708385612628565b905062015180811015611e85575f9150611e95565b611e926201518082612609565b91505b505b92915050565b5f81831015611ebf57604051630e75465760e31b815260040160405180910390fd5b5f611eca8385612628565b905062278d0080821015611ee0575f9250611eed565b611eea8183612609565b92505b505092915050565b7ff0c57e16840df040f15088dc2f81fe391c3923bec73e23a9662efc9c229c6a0054600160401b900460ff166108cc57604051631afcd79f60e31b815260040160405180910390fd5b610cf7611ef5565b5f6064611f5383856125df565b611f5d9190612609565b611f6790856125f6565b949350505050565b5f612710611f7e836064612628565b611f8c60ff86166064612628565b611f9690876125df565b611fa091906125df565b611faa9190612609565b611fb490866125f6565b95945050505050565b5f80611fc984866126ed565b90505f81138015611fd957505f83115b1561201d575f83611feb8360646125df565b611ff59190612609565b611fff90886125f6565b9050606481101561201257809250612017565b606492505b50612021565b8591505b50949350505050565b5f612710612039836064612628565b612044856064612628565b61204e90876125df565b61205891906125df565b611f679190612609565b5f80606461207086886125df565b61207a9190612609565b61208484896125f6565b61208e91906125f6565b90505f606461209d87896125df565b6120a79190612609565b6120b28660026125df565b6120bc91906125f6565b9050805f036120ce57606492506120ff565b5f816120db8460646125df565b6120e59190612609565b905060648111156120f957606493506120fd565b8093505b505b505095945050505050565b806001600160a01b03163b5f0361213f57604051634c9c8ce360e01b81526001600160a01b0382166004820152602401610d1c565b5f8051602061272383398151915280546001600160a01b0319166001600160a01b0392909216919091179055565b60605f80846001600160a01b031684604051612189919061270c565b5f60405180830381855af49150503d805f81146121c1576040519150601f19603f3d011682016040523d82523d5f602084013e6121c6565b606091505b5091509150611eea8583836121f5565b34156108cc5760405163b398979f60e01b815260040160405180910390fd5b60608261220a576122058261224a565b6119ad565b815115801561222157506001600160a01b0384163b155b15611e9557604051639996b31560e01b81526001600160a01b0385166004820152602401610d1c565b80511561225a5780518082602001fd5b604051630a12f52160e11b815260040160405180910390fd5b6040518061018001604052805f81526020015f81526020015f81526020015f81526020015f81526020015f81526020015f81526020015f81526020015f6001600160a01b031681526020015f60038111156122d0576122d0612317565b81525f6020820181905260409091015290565b80356001600160a01b03811681146122f9575f80fd5b919050565b5f6020828403121561230e575f80fd5b6119ad826122e3565b634e487b7160e01b5f52602160045260245ffd5b6004811061234757634e487b7160e01b5f52602160045260245ffd5b9052565b5f61018082019050825182526020830151602083015260408301516040830152606083015160608301526080830151608083015260a083015160a083015260c083015160c083015260e083015160e0830152610100808401516123b8828501826001600160a01b03169052565b5050610120808401516123cd8285018261232b565b505061014083810151908301526101608084015180151582850152611eed565b5f805f606084860312156123ff575f80fd5b505081359360208301359350604090920135919050565b634e487b7160e01b5f52604160045260245ffd5b5f806040838503121561243b575f80fd5b612444836122e3565b9150602083013567ffffffffffffffff80821115612460575f80fd5b818501915085601f830112612473575f80fd5b81358181111561248557612485612416565b604051601f8201601f19908116603f011681019083821181831017156124ad576124ad612416565b816040528281528860208487010111156124c5575f80fd5b826020860160208301375f6020848301015280955050505050509250929050565b5f602082840312156124f6575f80fd5b5035919050565b8015158114610d2e575f80fd5b5f6020828403121561251a575f80fd5b81356119ad816124fd565b602081525f82518060208401528060208501604085015e5f604082850101526040601f19601f83011684010191505092915050565b5f6020828403121561256a575f80fd5b813560ff811681146119ad575f80fd5b5f805f806080858703121561258d575f80fd5b612596856122e3565b93506125a4602086016122e3565b92506125b2604086016122e3565b91506125c0606086016122e3565b905092959194509250565b634e487b7160e01b5f52601160045260245ffd5b8082028115828204841417611e9757611e976125cb565b80820180821115611e9757611e976125cb565b5f8261262357634e487b7160e01b5f52601260045260245ffd5b500490565b81810381811115611e9757611e976125cb565b5f6001820161264c5761264c6125cb565b5060010190565b5f60208284031215612663575f80fd5b81516119ad816124fd565b5f6020828403121561267e575f80fd5b5051919050565b60ff8181168382160190811115611e9757611e976125cb565b61ffff818116838216019080821115611e9557611e956125cb565b61ffff828116828216039080821115611e9557611e956125cb565b60ff8281168282160390811115611e9757611e976125cb565b8181035f831280158383131683831282161715611e9557611e956125cb565b5f82518060208501845e5f92019182525091905056fe360894a13ba1a3210667c828492db98dca3e2076cc3735a920a3ca505d382bbca264697066735822122088ba80f3256762e2d8f997b37486c254800231513f9b0a9c65c3788229ec33c364736f6c63430008190033"
}