{
  "address": "0xa68B704F863e2f5cDbbF504627Aa41b2CEc6A35B",
  "abi": [
    {
      "inputs": [],
      "stateMutability": "nonpayable",
      "type": "constructor"
    },
    {
      "inputs": [
        {
          "internalType": "address",
          "name": "target",
          "type": "address"
        }
      ],
      "name": "AddressEmptyCode",
      "type": "error"
    },
    {
      "inputs": [
        {
          "internalType": "address",
          "name": "implementation",
          "type": "address"
        }
      ],
      "name": "ERC1967InvalidImplementation",
      "type": "error"
    },
    {
      "inputs": [],
      "name": "ERC1967NonPayable",
      "type": "error"
    },
    {
      "inputs": [],
      "name": "FailedInnerCall",
      "type": "error"
    },
    {
      "inputs": [],
      "name": "InvalidInitialization",
      "type": "error"
    },
    {
      "inputs": [],
      "name": "NotInitializing",
      "type": "error"
    },
    {
      "inputs": [
        {
          "internalType": "address",
          "name": "owner",
          "type": "address"
        }
      ],
      "name": "OwnableInvalidOwner",
      "type": "error"
    },
    {
      "inputs": [
        {
          "internalType": "address",
          "name": "account",
          "type": "address"
        }
      ],
      "name": "OwnableUnauthorizedAccount",
      "type": "error"
    },
    {
      "inputs": [],
      "name": "TakasurePool__ContributionBelowMinimumThreshold",
      "type": "error"
    },
    {
      "inputs": [],
      "name": "TakasurePool__ContributionTransferFailed",
      "type": "error"
    },
    {
      "inputs": [],
      "name": "TakasurePool__FeeTransferFailed",
      "type": "error"
    },
    {
      "inputs": [],
      "name": "TakasurePool__MemberAlreadyExists",
      "type": "error"
    },
    {
      "inputs": [],
      "name": "TakasurePool__MintFailed",
      "type": "error"
    },
    {
      "inputs": [],
      "name": "TakasurePool__WrongWakalaFee",
      "type": "error"
    },
    {
      "inputs": [],
      "name": "TakasurePool__ZeroAddress",
      "type": "error"
    },
    {
      "inputs": [],
      "name": "UUPSUnauthorizedCallContext",
      "type": "error"
    },
    {
      "inputs": [
        {
          "internalType": "bytes32",
          "name": "slot",
          "type": "bytes32"
        }
      ],
      "name": "UUPSUnsupportedProxiableUUID",
      "type": "error"
    },
    {
      "inputs": [],
      "name": "WrongTimestamps",
      "type": "error"
    },
    {
      "anonymous": false,
      "inputs": [
        {
          "indexed": false,
          "internalType": "uint64",
          "name": "version",
          "type": "uint64"
        }
      ],
      "name": "Initialized",
      "type": "event"
    },
    {
      "anonymous": false,
      "inputs": [
        {
          "indexed": true,
          "internalType": "address",
          "name": "member",
          "type": "address"
        },
        {
          "indexed": true,
          "internalType": "uint256",
          "name": "contributionAmount",
          "type": "uint256"
        },
        {
          "indexed": true,
          "internalType": "enum KYC",
          "name": "kyc",
          "type": "uint8"
        }
      ],
      "name": "MemberJoined",
      "type": "event"
    },
    {
      "anonymous": false,
      "inputs": [
        {
          "indexed": true,
          "internalType": "address",
          "name": "previousOwner",
          "type": "address"
        },
        {
          "indexed": true,
          "internalType": "address",
          "name": "newOwner",
          "type": "address"
        }
      ],
      "name": "OwnershipTransferred",
      "type": "event"
    },
    {
      "anonymous": false,
      "inputs": [
        {
          "indexed": true,
          "internalType": "address",
          "name": "implementation",
          "type": "address"
        }
      ],
      "name": "Upgraded",
      "type": "event"
    },
    {
      "inputs": [],
      "name": "UPGRADE_INTERFACE_VERSION",
      "outputs": [
        {
          "internalType": "string",
          "name": "",
          "type": "string"
        }
      ],
      "stateMutability": "view",
      "type": "function"
    },
    {
      "inputs": [],
      "name": "allowCustomDuration",
      "outputs": [
        {
          "internalType": "bool",
          "name": "",
          "type": "bool"
        }
      ],
      "stateMutability": "view",
      "type": "function"
    },
    {
      "inputs": [],
      "name": "getCashLast12Months",
      "outputs": [
        {
          "internalType": "uint256",
          "name": "cash_",
          "type": "uint256"
        }
      ],
      "stateMutability": "view",
      "type": "function"
    },
    {
      "inputs": [],
      "name": "getContributionTokenAddress",
      "outputs": [
        {
          "internalType": "address",
          "name": "contributionToken_",
          "type": "address"
        }
      ],
      "stateMutability": "view",
      "type": "function"
    },
    {
      "inputs": [
        {
          "internalType": "address",
          "name": "member",
          "type": "address"
        }
      ],
      "name": "getMemberFromAddress",
      "outputs": [
        {
          "components": [
            {
              "internalType": "uint256",
              "name": "memberId",
              "type": "uint256"
            },
            {
              "internalType": "uint256",
              "name": "benefitMultiplier",
              "type": "uint256"
            },
            {
              "internalType": "uint256",
              "name": "membershipDuration",
              "type": "uint256"
            },
            {
              "internalType": "uint256",
              "name": "membershipStartTime",
              "type": "uint256"
            },
            {
              "internalType": "uint256",
              "name": "contribution",
              "type": "uint256"
            },
            {
              "internalType": "uint256",
              "name": "totalWakalaFee",
              "type": "uint256"
            },
            {
              "internalType": "address",
              "name": "wallet",
              "type": "address"
            },
            {
              "internalType": "enum MemberState",
              "name": "memberState",
              "type": "uint8"
            },
            {
              "internalType": "uint256",
              "name": "surplus",
              "type": "uint256"
            }
          ],
          "internalType": "struct Member",
          "name": "",
          "type": "tuple"
        }
      ],
      "stateMutability": "view",
      "type": "function"
    },
    {
      "inputs": [
        {
          "internalType": "uint256",
          "name": "memberId",
          "type": "uint256"
        }
      ],
      "name": "getMemberFromId",
      "outputs": [
        {
          "components": [
            {
              "internalType": "uint256",
              "name": "memberId",
              "type": "uint256"
            },
            {
              "internalType": "uint256",
              "name": "benefitMultiplier",
              "type": "uint256"
            },
            {
              "internalType": "uint256",
              "name": "membershipDuration",
              "type": "uint256"
            },
            {
              "internalType": "uint256",
              "name": "membershipStartTime",
              "type": "uint256"
            },
            {
              "internalType": "uint256",
              "name": "contribution",
              "type": "uint256"
            },
            {
              "internalType": "uint256",
              "name": "totalWakalaFee",
              "type": "uint256"
            },
            {
              "internalType": "address",
              "name": "wallet",
              "type": "address"
            },
            {
              "internalType": "enum MemberState",
              "name": "memberState",
              "type": "uint8"
            },
            {
              "internalType": "uint256",
              "name": "surplus",
              "type": "uint256"
            }
          ],
          "internalType": "struct Member",
          "name": "",
          "type": "tuple"
        }
      ],
      "stateMutability": "view",
      "type": "function"
    },
    {
      "inputs": [
        {
          "internalType": "address",
          "name": "member",
          "type": "address"
        }
      ],
      "name": "getMemberKYC",
      "outputs": [
        {
          "internalType": "enum KYC",
          "name": "",
          "type": "uint8"
        }
      ],
      "stateMutability": "view",
      "type": "function"
    },
    {
      "inputs": [],
      "name": "getReserveValues",
      "outputs": [
        {
          "internalType": "uint256",
          "name": "initialReserveRatio_",
          "type": "uint256"
        },
        {
          "internalType": "uint256",
          "name": "dynamicReserveRatio_",
          "type": "uint256"
        },
        {
          "internalType": "uint256",
          "name": "benefitMultiplierAdjuster_",
          "type": "uint256"
        },
        {
          "internalType": "uint256",
          "name": "totalContributions_",
          "type": "uint256"
        },
        {
          "internalType": "uint256",
          "name": "totalClaimReserve_",
          "type": "uint256"
        },
        {
          "internalType": "uint256",
          "name": "totalFundReserve_",
          "type": "uint256"
        },
        {
          "internalType": "uint256",
          "name": "proFormaFundReserve_",
          "type": "uint256"
        },
        {
          "internalType": "uint256",
          "name": "proFormaClaimReserve_",
          "type": "uint256"
        },
        {
          "internalType": "uint256",
          "name": "lossRatio_",
          "type": "uint256"
        },
        {
          "internalType": "uint8",
          "name": "wakalaFee_",
          "type": "uint8"
        },
        {
          "internalType": "uint8",
          "name": "bmaFundReserveShare_",
          "type": "uint8"
        },
        {
          "internalType": "bool",
          "name": "isOptimizerEnabled_",
          "type": "bool"
        }
      ],
      "stateMutability": "view",
      "type": "function"
    },
    {
      "inputs": [],
      "name": "getTokenAddress",
      "outputs": [
        {
          "internalType": "address",
          "name": "",
          "type": "address"
        }
      ],
      "stateMutability": "view",
      "type": "function"
    },
    {
      "inputs": [
        {
          "internalType": "address",
          "name": "_contributionToken",
          "type": "address"
        },
        {
          "internalType": "address",
          "name": "_daoToken",
          "type": "address"
        },
        {
          "internalType": "address",
          "name": "_wakalaClaimAddress",
          "type": "address"
        },
        {
          "internalType": "address",
          "name": "_daoOperator",
          "type": "address"
        }
      ],
      "name": "initialize",
      "outputs": [],
      "stateMutability": "nonpayable",
      "type": "function"
    },
    {
      "inputs": [
        {
          "internalType": "uint256",
          "name": "benefitMultiplier",
          "type": "uint256"
        },
        {
          "internalType": "uint256",
          "name": "contributionAmount",
          "type": "uint256"
        },
        {
          "internalType": "uint256",
          "name": "membershipDuration",
          "type": "uint256"
        }
      ],
      "name": "joinPool",
      "outputs": [],
      "stateMutability": "nonpayable",
      "type": "function"
    },
    {
      "inputs": [],
      "name": "memberIdCounter",
      "outputs": [
        {
          "internalType": "uint256",
          "name": "",
          "type": "uint256"
        }
      ],
      "stateMutability": "view",
      "type": "function"
    },
    {
      "inputs": [],
      "name": "minimumThreshold",
      "outputs": [
        {
          "internalType": "uint256",
          "name": "",
          "type": "uint256"
        }
      ],
      "stateMutability": "view",
      "type": "function"
    },
    {
      "inputs": [],
      "name": "owner",
      "outputs": [
        {
          "internalType": "address",
          "name": "",
          "type": "address"
        }
      ],
      "stateMutability": "view",
      "type": "function"
    },
    {
      "inputs": [],
      "name": "proxiableUUID",
      "outputs": [
        {
          "internalType": "bytes32",
          "name": "",
          "type": "bytes32"
        }
      ],
      "stateMutability": "view",
      "type": "function"
    },
    {
      "inputs": [],
      "name": "renounceOwnership",
      "outputs": [],
      "stateMutability": "nonpayable",
      "type": "function"
    },
    {
      "inputs": [
        {
          "internalType": "bool",
          "name": "_allowCustomDuration",
          "type": "bool"
        }
      ],
      "name": "setAllowCustomDuration",
      "outputs": [],
      "stateMutability": "nonpayable",
      "type": "function"
    },
    {
      "inputs": [
        {
          "internalType": "address",
          "name": "newContributionToken",
          "type": "address"
        }
      ],
      "name": "setNewContributionToken",
      "outputs": [],
      "stateMutability": "nonpayable",
      "type": "function"
    },
    {
      "inputs": [
        {
          "internalType": "uint256",
          "name": "newMinimumThreshold",
          "type": "uint256"
        }
      ],
      "name": "setNewMinimumThreshold",
      "outputs": [],
      "stateMutability": "nonpayable",
      "type": "function"
    },
    {
      "inputs": [
        {
          "internalType": "address",
          "name": "newWakalaClaimAddress",
          "type": "address"
        }
      ],
      "name": "setNewWakalaClaimAddress",
      "outputs": [],
      "stateMutability": "nonpayable",
      "type": "function"
    },
    {
      "inputs": [
        {
          "internalType": "uint8",
          "name": "newWakalaFee",
          "type": "uint8"
        }
      ],
      "name": "setNewWakalaFee",
      "outputs": [],
      "stateMutability": "nonpayable",
      "type": "function"
    },
    {
      "inputs": [
        {
          "internalType": "address",
          "name": "newOwner",
          "type": "address"
        }
      ],
      "name": "transferOwnership",
      "outputs": [],
      "stateMutability": "nonpayable",
      "type": "function"
    },
    {
      "inputs": [
        {
          "internalType": "address",
          "name": "newImplementation",
          "type": "address"
        },
        {
          "internalType": "bytes",
          "name": "data",
          "type": "bytes"
        }
      ],
      "name": "upgradeToAndCall",
      "outputs": [],
      "stateMutability": "payable",
      "type": "function"
    },
    {
      "inputs": [],
      "name": "wakalaClaimAddress",
      "outputs": [
        {
          "internalType": "address",
          "name": "",
          "type": "address"
        }
      ],
      "stateMutability": "view",
      "type": "function"
    }
  ],
  "transactionHash": "0xcbdfb6bfa142aa42c0cd4449b01e5a5e9fc74fb3a39a3428d76ac52ff599ecf5",
  "args": [],
  "numDeployments": 1,
  "solcInputHash": "dfe7981beff83b375b38cbd5d42aefb1",
  "bytecode": "0x60a060405230608052348015610013575f80fd5b5061001c610021565b6100d3565b7ff0c57e16840df040f15088dc2f81fe391c3923bec73e23a9662efc9c229c6a00805468010000000000000000900460ff16156100715760405163f92ee8a960e01b815260040160405180910390fd5b80546001600160401b03908116146100d05780546001600160401b0319166001600160401b0390811782556040519081527fc7f505b2f371ae2175ee4913f4499e1f2633a7b5936321eed1cdaeb6115181d29060200160405180910390a15b50565b6080516120bc6100f95f395f818161147b015281816114a401526115e801526120bc5ff3fe608060405260043610610146575f3560e01c806375da30d0116100b3578063c54959701161006d578063c54959701461041c578063d8aace7c1461043b578063d8fef67d1461045a578063f2fde38b14610483578063f8380f69146104a2578063f8c8765e146104e6575f80fd5b806375da30d0146103465780638b284fcf1461035b5780638da5cb5b1461037a578063a01d0363146103b6578063ad3cb1cc146103ca578063c3210bd214610407575f80fd5b806350bbad641161010457806350bbad641461021b57806352d1902d1461023a5780635399a7f11461025c578063639431e81461027b5780636462471114610313578063715018a614610332575f80fd5b806246e8d51461014a5780630b0da2e81461017f57806310fe9ae8146101a057806322a1cdb5146101bd5780632e688445146101e95780634f1ef28614610208575b5f80fd5b348015610155575f80fd5b505f546001600160a01b03165b6040516001600160a01b0390911681526020015b60405180910390f35b34801561018a575f80fd5b5061019e610199366004611c6e565b610505565b005b3480156101ab575f80fd5b506001546001600160a01b0316610162565b3480156101c8575f80fd5b506101dc6101d7366004611c6e565b610558565b6040516101769190611c9b565b3480156101f4575f80fd5b5061019e610203366004611d17565b610615565b61019e610216366004611d54565b610788565b348015610226575f80fd5b5061019e610235366004611e10565b6107a7565b348015610245575f80fd5b5061024e6107b4565b604051908152602001610176565b348015610267575f80fd5b5061019e610276366004611e34565b6107cf565b348015610286575f80fd5b50600354600454600554600654600754600854600954600a54600b54600c54604080519a8b5260208b0199909952978901969096526060880194909452608087019290925260a086015260c085015260e08401526101008381019190915260ff80831661012085015290820481166101408401526201000090910416151561016082015261018001610176565b34801561031e575f80fd5b506101dc61032d366004611e10565b6107ea565b34801561033d575f80fd5b5061019e61087e565b348015610351575f80fd5b5061024e60115481565b348015610366575f80fd5b5061019e610375366004611c6e565b610891565b348015610385575f80fd5b507f9016d09d72d40fdae2fd8ceac6b6234c7706214fd39c1cd1e609a0528c199300546001600160a01b0316610162565b3480156103c1575f80fd5b5061024e6108e3565b3480156103d5575f80fd5b506103fa604051806040016040528060058152602001640352e302e360dc1b81525081565b6040516101769190611e4f565b348015610412575f80fd5b5061024e60125481565b348015610427575f80fd5b5061019e610436366004611e84565b610903565b348015610446575f80fd5b50601354610162906001600160a01b031681565b348015610465575f80fd5b50600d546104739060ff1681565b6040519015158152602001610176565b34801561048e575f80fd5b5061019e61049d366004611c6e565b610946565b3480156104ad575f80fd5b506104d96104bc366004611c6e565b6001600160a01b03165f9081526015602052604090205460ff1690565b6040516101769190611ea4565b3480156104f1575f80fd5b5061019e610500366004611ebe565b610988565b61050d610bb9565b806001600160a01b03811661053557604051638f0dd18960e01b815260040160405180910390fd5b50601380546001600160a01b0319166001600160a01b0392909216919091179055565b610560611bf6565b6001600160a01b038281165f90815260026020818152604092839020835161012081018552815481526001820154928101929092529182015492810192909252600380820154606084015260048201546080840152600582015460a0840152600682015493841660c08401529192909160e0840191600160a01b900460ff16908111156105ef576105ef611c87565b600381111561060057610600611c87565b81526020016007820154815250509050919050565b6001335f90815260026020526040902060060154600160a01b900460ff16600381111561064457610644611c87565b036106625760405163170817b560e11b815260040160405180910390fd5b601154821015610685576040516380bc259360e01b815260040160405180910390fd5b6127106106928184611f23565b61069c9190611f42565b600c549092505f906064906106b49060ff1685611f42565b6106be9190611f23565b90505f6106cb8285611f59565b90506106d985858585610c14565b6106e284610e0d565b6106ec8482610e4d565b6106f581610ec9565b6010545f906107129061ffff81169062010000900460ff16611123565b905061071d81611230565b6107268161124e565b610731858385611293565b335f9081526015602052604090205460ff16600281111561075457610754611c87565b604051869033907ff53432d7e79bc15e6de499345b73600a3a74e12810780af0060b37c5a29f5020905f90a4505050505050565b610790611470565b61079982611514565b6107a3828261151c565b5050565b6107af610bb9565b601155565b5f6107bd6115dd565b505f8051602061206783398151915290565b6107d7610bb9565b600d805460ff1916911515919091179055565b6107f2611bf6565b5f8281526014602090815260409182902082516101208101845281548152600182015492810192909252600281015492820192909252600380830154606083015260048301546080830152600583015460a083015260068301546001600160a01b03811660c084015291929160e0840191600160a01b90910460ff16908111156105ef576105ef611c87565b610886610bb9565b61088f5f611626565b565b610899610bb9565b806001600160a01b0381166108c157604051638f0dd18960e01b815260040160405180910390fd5b505f80546001600160a01b0319166001600160a01b0392909216919091179055565b5f805f6108ee611696565b915091506108fc8282611123565b9250505090565b61090b610bb9565b60648160ff1611156109305760405163c88d0c0160e01b815260040160405180910390fd5b600c805460ff191660ff92909216919091179055565b61094e610bb9565b6001600160a01b03811661097c57604051631e4fbdf760e01b81525f60048201526024015b60405180910390fd5b61098581611626565b50565b7ff0c57e16840df040f15088dc2f81fe391c3923bec73e23a9662efc9c229c6a008054600160401b810460ff16159067ffffffffffffffff165f811580156109cd5750825b90505f8267ffffffffffffffff1660011480156109e95750303b155b9050811580156109f7575080155b15610a155760405163f92ee8a960e01b815260040160405180910390fd5b845467ffffffffffffffff191660011785558315610a3f57845460ff60401b1916600160401b1785555b886001600160a01b038116610a6757604051638f0dd18960e01b815260040160405180910390fd5b886001600160a01b038116610a8f57604051638f0dd18960e01b815260040160405180910390fd5b886001600160a01b038116610ab757604051638f0dd18960e01b815260040160405180910390fd5b886001600160a01b038116610adf57604051638f0dd18960e01b815260040160405180910390fd5b610ae7611758565b610af08a611760565b50505f80546001600160a01b03199081166001600160a01b038e8116919091179092556001805482168d841617905560138054909116918b1691909117905550506010805462ffffff19166201000117905563017d7840601155602860038190556004556064600555600c805461ffff19166146141790558315610bae57845460ff60401b19168555604051600181527fc7f505b2f371ae2175ee4913f4499e1f2633a7b5936321eed1cdaeb6115181d29060200160405180910390a15b505050505050505050565b33610beb7f9016d09d72d40fdae2fd8ceac6b6234c7706214fd39c1cd1e609a0528c199300546001600160a01b031690565b6001600160a01b03161461088f5760405163118cdaa760e01b8152336004820152602401610973565b60125f8154610c2290611f6c565b90915550600d5442905f9060ff1615610c3c575082610c43565b5063096601805b5f6040518061012001604052806012548152602001888152602001838152602001848152602001878152602001858152602001336001600160a01b0316815260200160016003811115610c9857610c98611c87565b81525f6020918201819052338152600280835260409182902084518155928401516001840155908301519082015560608201516003808301919091556080830151600483015560a0830151600583015560c08301516006830180546001600160a01b03929092166001600160a01b031983168117825560e086015195965086959391926001600160a81b0319161790600160a01b908490811115610d3e57610d3e611c87565b021790555061010091909101516007909101556012545f908152601460209081526040918290208351815590830151600182015590820151600282015560608201516003808301919091556080830151600483015560a0830151600583015560c08301516006830180546001600160a01b039092166001600160a01b031983168117825560e086015186959490936001600160a81b03191690911790600160a01b908490811115610df157610df1611c87565b0217905550610100820151816007015590505050505050505050565b6009546004545f91610e20918490611771565b600a54600c546003549293505f92610e409291869160ff9091169061179a565b60099290925550600a5550565b6004545f90606490610e5f9084611f42565b610e699190611f23565b90505f610e768284611f59565b90508160026006015f828254610e8c9190611f84565b9091555050600680548591905f90610ea5908490611f84565b9091555050600780548291905f90610ebe908490611f84565b909155505050505050565b600e544290158015610edb5750600f54155b15610f2757600e819055600f556010805461ffff9081165f90815260166020908152604080832086905593549283168252601781528382206201000090930460ff168252919091522055565b5f610f3482600e546117e8565b90505f610f4383600f54611842565b9050805f0361104e5760105461ffff165f9081526016602052604081208054869290610f70908490611f84565b90915550505f829003610fc25760105461ffff81165f9081526017602090815260408083206201000090940460ff1683529290529081208054869290610fb7908490611f84565b9091555061111d9050565b610fcf6201518083611f42565b600e5f828254610fdf9190611f84565b90915550506010805483919060029061100290849062010000900460ff16611f97565b82546101009290920a60ff81810219909316918316021790915560105461ffff81165f90815260176020908152604080832062010000909404909416825291909152208590555061111d565b61105b62278d0082611f42565b600f5f82825461106b9190611f84565b9091555050600f54600e55601080548291905f9061108e90849061ffff16611fb0565b92506101000a81548161ffff021916908361ffff1602179055506110b483600e546117e8565b915060016110c28184611f97565b6010805460ff9283166201000090810262ff00001983168117845561ffff908116928116929092175f9081526016602090815260408083208c9055945493841682526017815284822092909304909416845290529020859055505b50505050565b5f80600d61ffff8516101561116f5760015b8461ffff168160ff16116111695760ff81165f9081526016602052604090205461115f9083611f84565b9150600101611135565b50611229565b5f600c815b8161ffff168160ff1610156111ba5761119060ff821688611fcb565b61ffff81165f908152601660205260409020549093506111b09085611f84565b9350600101611174565b505f6111c68288611fcb565b9050601e5f6111d58883611fe6565b90505f5b8160ff168160ff1610156112225761ffff84165f90815260176020908152604080832060ff871684529091529020546112129088611f84565b96505f19909201916001016111d9565b5050505050505b9392505050565b6004546009546008545f926112479290918561189a565b6004555050565b600c546003545f9161126591849160ff1690611907565b600754600854600c54600a549394505f9361128b939291610100900460ff16908661193f565b600555505050565b5f806112a464e8d4a5100086611f42565b6001546040516340c10f1960e01b8152336004820152602481018390529192506001600160a01b0316906340c10f19906044016020604051808303815f875af11580156112f3573d5f803e3d5ffd5b505050506040513d601f19601f820116820180604052508101906113179190611fff565b9150816113375760405163e16c322560e01b815260040160405180910390fd5b5f546040516323b872dd60e01b8152336004820152306024820152604481018690526001600160a01b03909116906323b872dd906064016020604051808303815f875af115801561138a573d5f803e3d5ffd5b505050506040513d601f19601f820116820180604052508101906113ae9190611fff565b9150816113ce57604051630afdbbef60e11b815260040160405180910390fd5b5f546013546040516323b872dd60e01b81523360048201526001600160a01b039182166024820152604481018690529116906323b872dd906064016020604051808303815f875af1158015611425573d5f803e3d5ffd5b505050506040513d601f19601f820116820180604052508101906114499190611fff565b91508161146957604051630bc6abbf60e11b815260040160405180910390fd5b5050505050565b306001600160a01b037f00000000000000000000000000000000000000000000000000000000000000001614806114f657507f00000000000000000000000000000000000000000000000000000000000000006001600160a01b03166114ea5f80516020612067833981519152546001600160a01b031690565b6001600160a01b031614155b1561088f5760405163703e46dd60e11b815260040160405180910390fd5b610985610bb9565b816001600160a01b03166352d1902d6040518163ffffffff1660e01b8152600401602060405180830381865afa925050508015611576575060408051601f3d908101601f191682019092526115739181019061201a565b60015b61159e57604051634c9c8ce360e01b81526001600160a01b0383166004820152602401610973565b5f8051602061206783398151915281146115ce57604051632a87526960e21b815260048101829052602401610973565b6115d883836119e7565b505050565b306001600160a01b037f0000000000000000000000000000000000000000000000000000000000000000161461088f5760405163703e46dd60e11b815260040160405180910390fd5b7f9016d09d72d40fdae2fd8ceac6b6234c7706214fd39c1cd1e609a0528c19930080546001600160a01b031981166001600160a01b03848116918217845560405192169182907f8be0079c531659141344cd1fd0a4f28419497f9722a3daafe3b4186f6b6457e0905f90a3505050565b600e54600f545f918291429190836116ae84846117e8565b90505f6116bb8584611842565b9050805f036117055760105461ffff1696505f8290036116e85760105462010000900460ff16955061174f565b6010546116fe9062010000900460ff1683611f97565b955061174f565b6010546117169061ffff1682611fb0565b96505f61172662278d0083611f42565b6117309085611f84565b905061173c86826117e8565b9250600161174a8185611f97565b975050505b50505050509091565b61088f611a3c565b611768611a3c565b61098581611a85565b5f606461177e8385611f42565b6117889190611f23565b6117929085611f84565b949350505050565b5f6127106117a9836064611f59565b6117b760ff86166064611f59565b6117c19087611f42565b6117cb9190611f42565b6117d59190611f23565b6117df9086611f84565b95945050505050565b5f8183101561180a57604051630e75465760e31b815260040160405180910390fd5b5f6118158385611f59565b90506201518081101561182a575f915061183a565b6118376201518082611f23565b91505b505b92915050565b5f8183101561186457604051630e75465760e31b815260040160405180910390fd5b5f61186f8385611f59565b905062278d0080821015611885575f9250611892565b61188f8183611f23565b92505b505092915050565b5f806118a68486612031565b90505f811380156118b657505f83115b156118fa575f836118c8836064611f42565b6118d29190611f23565b6118dc9088611f84565b905060648110156118ef578092506118f4565b606492505b506118fe565b8591505b50949350505050565b5f612710611916836064611f59565b611921856064611f59565b61192b9087611f42565b6119359190611f42565b6117929190611f23565b5f80606461194d8688611f42565b6119579190611f23565b6119618489611f84565b61196b9190611f84565b90505f606461197a8789611f42565b6119849190611f23565b61198f866002611f42565b6119999190611f84565b9050805f036119ab57606492506119dc565b5f816119b8846064611f42565b6119c29190611f23565b905060648111156119d657606493506119da565b8093505b505b505095945050505050565b6119f082611a8d565b6040516001600160a01b038316907fbc7cd75a20ee27fd9adebab32041f755214dbc6bffa90cc0225b39da2e5c2d3b905f90a2805115611a34576115d88282611af0565b6107a3611b59565b7ff0c57e16840df040f15088dc2f81fe391c3923bec73e23a9662efc9c229c6a0054600160401b900460ff1661088f57604051631afcd79f60e31b815260040160405180910390fd5b61094e611a3c565b806001600160a01b03163b5f03611ac257604051634c9c8ce360e01b81526001600160a01b0382166004820152602401610973565b5f8051602061206783398151915280546001600160a01b0319166001600160a01b0392909216919091179055565b60605f80846001600160a01b031684604051611b0c9190612050565b5f60405180830381855af49150503d805f8114611b44576040519150601f19603f3d011682016040523d82523d5f602084013e611b49565b606091505b509150915061188f858383611b78565b341561088f5760405163b398979f60e01b815260040160405180910390fd5b606082611b8d57611b8882611bcd565b611229565b8151158015611ba457506001600160a01b0384163b155b1561183a57604051639996b31560e01b81526001600160a01b0385166004820152602401610973565b805115611bdd5780518082602001fd5b604051630a12f52160e11b815260040160405180910390fd5b6040518061012001604052805f81526020015f81526020015f81526020015f81526020015f81526020015f81526020015f6001600160a01b031681526020015f6003811115611c4757611c47611c87565b81526020015f81525090565b80356001600160a01b0381168114611c69575f80fd5b919050565b5f60208284031215611c7e575f80fd5b61122982611c53565b634e487b7160e01b5f52602160045260245ffd5b5f61012082019050825182526020830151602083015260408301516040830152606083015160608301526080830151608083015260a083015160a083015260018060a01b0360c08401511660c083015260e083015160048110611d0057611d00611c87565b60e083015261010092830151929091019190915290565b5f805f60608486031215611d29575f80fd5b505081359360208301359350604090920135919050565b634e487b7160e01b5f52604160045260245ffd5b5f8060408385031215611d65575f80fd5b611d6e83611c53565b9150602083013567ffffffffffffffff80821115611d8a575f80fd5b818501915085601f830112611d9d575f80fd5b813581811115611daf57611daf611d40565b604051601f8201601f19908116603f01168101908382118183101715611dd757611dd7611d40565b81604052828152886020848701011115611def575f80fd5b826020860160208301375f6020848301015280955050505050509250929050565b5f60208284031215611e20575f80fd5b5035919050565b8015158114610985575f80fd5b5f60208284031215611e44575f80fd5b813561122981611e27565b602081525f82518060208401528060208501604085015e5f604082850101526040601f19601f83011684010191505092915050565b5f60208284031215611e94575f80fd5b813560ff81168114611229575f80fd5b6020810160038310611eb857611eb8611c87565b91905290565b5f805f8060808587031215611ed1575f80fd5b611eda85611c53565b9350611ee860208601611c53565b9250611ef660408601611c53565b9150611f0460608601611c53565b905092959194509250565b634e487b7160e01b5f52601160045260245ffd5b5f82611f3d57634e487b7160e01b5f52601260045260245ffd5b500490565b808202811582820484141761183c5761183c611f0f565b8181038181111561183c5761183c611f0f565b5f60018201611f7d57611f7d611f0f565b5060010190565b8082018082111561183c5761183c611f0f565b60ff818116838216019081111561183c5761183c611f0f565b61ffff81811683821601908082111561183a5761183a611f0f565b61ffff82811682821603908082111561183a5761183a611f0f565b60ff828116828216039081111561183c5761183c611f0f565b5f6020828403121561200f575f80fd5b815161122981611e27565b5f6020828403121561202a575f80fd5b5051919050565b8181035f83128015838313168383128216171561183a5761183a611f0f565b5f82518060208501845e5f92019182525091905056fe360894a13ba1a3210667c828492db98dca3e2076cc3735a920a3ca505d382bbca264697066735822122079e69e825a791d8ea3aca85c5d5068d83dde342241b163f756c8b736c68672d864736f6c63430008190033",
  "devdoc": {
    "errors": {
      "AddressEmptyCode(address)": [
        {
          "details": "There's no code at `target` (it is not a contract)."
        }
      ],
      "ERC1967InvalidImplementation(address)": [
        {
          "details": "The `implementation` of the proxy is invalid."
        }
      ],
      "ERC1967NonPayable()": [
        {
          "details": "An upgrade function sees `msg.value > 0` that may be lost."
        }
      ],
      "FailedInnerCall()": [
        {
          "details": "A call to an address target failed. The target may have reverted."
        }
      ],
      "InvalidInitialization()": [
        {
          "details": "The contract is already initialized."
        }
      ],
      "NotInitializing()": [
        {
          "details": "The contract is not initializing."
        }
      ],
      "OwnableInvalidOwner(address)": [
        {
          "details": "The owner is not a valid owner account. (eg. `address(0)`)"
        }
      ],
      "OwnableUnauthorizedAccount(address)": [
        {
          "details": "The caller account is not authorized to perform an operation."
        }
      ],
      "UUPSUnauthorizedCallContext()": [
        {
          "details": "The call is from an unauthorized context."
        }
      ],
      "UUPSUnsupportedProxiableUUID(bytes32)": [
        {
          "details": "The storage `slot` is unsupported as a UUID."
        }
      ]
    },
    "events": {
      "Initialized(uint64)": {
        "details": "Triggered when the contract has been initialized or reinitialized."
      },
      "Upgraded(address)": {
        "details": "Emitted when the implementation is upgraded."
      }
    },
    "kind": "dev",
    "methods": {
      "constructor": {
        "custom:oz-upgrades-unsafe-allow": "constructor"
      },
      "getCashLast12Months()": {
        "returns": {
          "cash_": "the cash flow for the last 12 months"
        }
      },
      "initialize(address,address,address,address)": {
        "details": "it reverts if any of the addresses is zero",
        "params": {
          "_contributionToken": "default USDC",
          "_daoOperator": "address allowed to manage the DAO",
          "_daoToken": "utility token for the DAO",
          "_wakalaClaimAddress": "address allowed to claim the wakala fee"
        }
      },
      "joinPool(uint256,uint256,uint256)": {
        "details": "it reverts if the contribution is less than the minimum threshold defaultes to `minimumThreshold`it reverts if the member is already activethe contribution amount will be round down so the last four decimals will be zero. This means      that the minimum contribution amount is 0.01 USDC",
        "params": {
          "benefitMultiplier": "fetched from off-chain oracle",
          "contributionAmount": "in six decimals",
          "membershipDuration": "default 5 years"
        }
      },
      "owner()": {
        "details": "Returns the address of the current owner."
      },
      "proxiableUUID()": {
        "details": "Implementation of the ERC1822 {proxiableUUID} function. This returns the storage slot used by the implementation. It is used to validate the implementation's compatibility when performing an upgrade. IMPORTANT: A proxy pointing at a proxiable contract should not be considered proxiable itself, because this risks bricking a proxy that upgrades to it, by delegating to itself until out of gas. Thus it is critical that this function revert if invoked through a proxy. This is guaranteed by the `notDelegated` modifier."
      },
      "renounceOwnership()": {
        "details": "Leaves the contract without owner. It will not be possible to call `onlyOwner` functions. Can only be called by the current owner. NOTE: Renouncing ownership will leave the contract without an owner, thereby disabling any functionality that is only available to the owner."
      },
      "transferOwnership(address)": {
        "details": "Transfers ownership of the contract to a new account (`newOwner`). Can only be called by the current owner."
      },
      "upgradeToAndCall(address,bytes)": {
        "custom:oz-upgrades-unsafe-allow-reachable": "delegatecall",
        "details": "Upgrade the implementation of the proxy to `newImplementation`, and subsequently execute the function call encoded in `data`. Calls {_authorizeUpgrade}. Emits an {Upgraded} event."
      }
    },
    "version": 1
  },
  "userdoc": {
    "kind": "user",
    "methods": {
      "getCashLast12Months()": {
        "notice": "Get the cash flow for the last 12 months. From the time is called"
      },
      "joinPool(uint256,uint256,uint256)": {
        "notice": "Allow new members to join the pool"
      }
    },
    "version": 1
  },
  "storageLayout": {
    "storage": [
      {
        "astId": 3223,
        "contract": "contracts/takasure/TakasurePool.sol:TakasurePool",
        "label": "contributionToken",
        "offset": 0,
        "slot": "0",
        "type": "t_contract(IERC20)2108"
      },
      {
        "astId": 3226,
        "contract": "contracts/takasure/TakasurePool.sol:TakasurePool",
        "label": "daoToken",
        "offset": 0,
        "slot": "1",
        "type": "t_contract(ITSToken)2697"
      },
      {
        "astId": 3229,
        "contract": "contracts/takasure/TakasurePool.sol:TakasurePool",
        "label": "reserve",
        "offset": 0,
        "slot": "2",
        "type": "t_struct(Reserve)4681_storage"
      },
      {
        "astId": 3249,
        "contract": "contracts/takasure/TakasurePool.sol:TakasurePool",
        "label": "allowCustomDuration",
        "offset": 0,
        "slot": "13",
        "type": "t_bool"
      },
      {
        "astId": 3251,
        "contract": "contracts/takasure/TakasurePool.sol:TakasurePool",
        "label": "dayDepositTimestamp",
        "offset": 0,
        "slot": "14",
        "type": "t_uint256"
      },
      {
        "astId": 3253,
        "contract": "contracts/takasure/TakasurePool.sol:TakasurePool",
        "label": "monthDepositTimestamp",
        "offset": 0,
        "slot": "15",
        "type": "t_uint256"
      },
      {
        "astId": 3255,
        "contract": "contracts/takasure/TakasurePool.sol:TakasurePool",
        "label": "monthReference",
        "offset": 0,
        "slot": "16",
        "type": "t_uint16"
      },
      {
        "astId": 3257,
        "contract": "contracts/takasure/TakasurePool.sol:TakasurePool",
        "label": "dayReference",
        "offset": 2,
        "slot": "16",
        "type": "t_uint8"
      },
      {
        "astId": 3259,
        "contract": "contracts/takasure/TakasurePool.sol:TakasurePool",
        "label": "minimumThreshold",
        "offset": 0,
        "slot": "17",
        "type": "t_uint256"
      },
      {
        "astId": 3261,
        "contract": "contracts/takasure/TakasurePool.sol:TakasurePool",
        "label": "memberIdCounter",
        "offset": 0,
        "slot": "18",
        "type": "t_uint256"
      },
      {
        "astId": 3263,
        "contract": "contracts/takasure/TakasurePool.sol:TakasurePool",
        "label": "wakalaClaimAddress",
        "offset": 0,
        "slot": "19",
        "type": "t_address"
      },
      {
        "astId": 3268,
        "contract": "contracts/takasure/TakasurePool.sol:TakasurePool",
        "label": "idToMember",
        "offset": 0,
        "slot": "20",
        "type": "t_mapping(t_uint256,t_struct(Member)4651_storage)"
      },
      {
        "astId": 3273,
        "contract": "contracts/takasure/TakasurePool.sol:TakasurePool",
        "label": "memberKYC",
        "offset": 0,
        "slot": "21",
        "type": "t_mapping(t_address,t_enum(KYC)4631)"
      },
      {
        "astId": 3277,
        "contract": "contracts/takasure/TakasurePool.sol:TakasurePool",
        "label": "monthToCashFlow",
        "offset": 0,
        "slot": "22",
        "type": "t_mapping(t_uint16,t_uint256)"
      },
      {
        "astId": 3283,
        "contract": "contracts/takasure/TakasurePool.sol:TakasurePool",
        "label": "dayToCashFlow",
        "offset": 0,
        "slot": "23",
        "type": "t_mapping(t_uint16,t_mapping(t_uint8,t_uint256))"
      }
    ],
    "types": {
      "t_address": {
        "encoding": "inplace",
        "label": "address",
        "numberOfBytes": "20"
      },
      "t_bool": {
        "encoding": "inplace",
        "label": "bool",
        "numberOfBytes": "1"
      },
      "t_contract(IERC20)2108": {
        "encoding": "inplace",
        "label": "contract IERC20",
        "numberOfBytes": "20"
      },
      "t_contract(ITSToken)2697": {
        "encoding": "inplace",
        "label": "contract ITSToken",
        "numberOfBytes": "20"
      },
      "t_enum(KYC)4631": {
        "encoding": "inplace",
        "label": "enum KYC",
        "numberOfBytes": "1"
      },
      "t_enum(MemberState)4627": {
        "encoding": "inplace",
        "label": "enum MemberState",
        "numberOfBytes": "1"
      },
      "t_mapping(t_address,t_enum(KYC)4631)": {
        "encoding": "mapping",
        "key": "t_address",
        "label": "mapping(address => enum KYC)",
        "numberOfBytes": "32",
        "value": "t_enum(KYC)4631"
      },
      "t_mapping(t_address,t_struct(Member)4651_storage)": {
        "encoding": "mapping",
        "key": "t_address",
        "label": "mapping(address => struct Member)",
        "numberOfBytes": "32",
        "value": "t_struct(Member)4651_storage"
      },
      "t_mapping(t_uint16,t_mapping(t_uint8,t_uint256))": {
        "encoding": "mapping",
        "key": "t_uint16",
        "label": "mapping(uint16 => mapping(uint8 => uint256))",
        "numberOfBytes": "32",
        "value": "t_mapping(t_uint8,t_uint256)"
      },
      "t_mapping(t_uint16,t_uint256)": {
        "encoding": "mapping",
        "key": "t_uint16",
        "label": "mapping(uint16 => uint256)",
        "numberOfBytes": "32",
        "value": "t_uint256"
      },
      "t_mapping(t_uint256,t_struct(Member)4651_storage)": {
        "encoding": "mapping",
        "key": "t_uint256",
        "label": "mapping(uint256 => struct Member)",
        "numberOfBytes": "32",
        "value": "t_struct(Member)4651_storage"
      },
      "t_mapping(t_uint8,t_uint256)": {
        "encoding": "mapping",
        "key": "t_uint8",
        "label": "mapping(uint8 => uint256)",
        "numberOfBytes": "32",
        "value": "t_uint256"
      },
      "t_struct(Member)4651_storage": {
        "encoding": "inplace",
        "label": "struct Member",
        "members": [
          {
            "astId": 4633,
            "contract": "contracts/takasure/TakasurePool.sol:TakasurePool",
            "label": "memberId",
            "offset": 0,
            "slot": "0",
            "type": "t_uint256"
          },
          {
            "astId": 4635,
            "contract": "contracts/takasure/TakasurePool.sol:TakasurePool",
            "label": "benefitMultiplier",
            "offset": 0,
            "slot": "1",
            "type": "t_uint256"
          },
          {
            "astId": 4637,
            "contract": "contracts/takasure/TakasurePool.sol:TakasurePool",
            "label": "membershipDuration",
            "offset": 0,
            "slot": "2",
            "type": "t_uint256"
          },
          {
            "astId": 4639,
            "contract": "contracts/takasure/TakasurePool.sol:TakasurePool",
            "label": "membershipStartTime",
            "offset": 0,
            "slot": "3",
            "type": "t_uint256"
          },
          {
            "astId": 4641,
            "contract": "contracts/takasure/TakasurePool.sol:TakasurePool",
            "label": "contribution",
            "offset": 0,
            "slot": "4",
            "type": "t_uint256"
          },
          {
            "astId": 4643,
            "contract": "contracts/takasure/TakasurePool.sol:TakasurePool",
            "label": "totalWakalaFee",
            "offset": 0,
            "slot": "5",
            "type": "t_uint256"
          },
          {
            "astId": 4645,
            "contract": "contracts/takasure/TakasurePool.sol:TakasurePool",
            "label": "wallet",
            "offset": 0,
            "slot": "6",
            "type": "t_address"
          },
          {
            "astId": 4648,
            "contract": "contracts/takasure/TakasurePool.sol:TakasurePool",
            "label": "memberState",
            "offset": 20,
            "slot": "6",
            "type": "t_enum(MemberState)4627"
          },
          {
            "astId": 4650,
            "contract": "contracts/takasure/TakasurePool.sol:TakasurePool",
            "label": "surplus",
            "offset": 0,
            "slot": "7",
            "type": "t_uint256"
          }
        ],
        "numberOfBytes": "256"
      },
      "t_struct(Reserve)4681_storage": {
        "encoding": "inplace",
        "label": "struct Reserve",
        "members": [
          {
            "astId": 4656,
            "contract": "contracts/takasure/TakasurePool.sol:TakasurePool",
            "label": "members",
            "offset": 0,
            "slot": "0",
            "type": "t_mapping(t_address,t_struct(Member)4651_storage)"
          },
          {
            "astId": 4658,
            "contract": "contracts/takasure/TakasurePool.sol:TakasurePool",
            "label": "initialReserveRatio",
            "offset": 0,
            "slot": "1",
            "type": "t_uint256"
          },
          {
            "astId": 4660,
            "contract": "contracts/takasure/TakasurePool.sol:TakasurePool",
            "label": "dynamicReserveRatio",
            "offset": 0,
            "slot": "2",
            "type": "t_uint256"
          },
          {
            "astId": 4662,
            "contract": "contracts/takasure/TakasurePool.sol:TakasurePool",
            "label": "benefitMultiplierAdjuster",
            "offset": 0,
            "slot": "3",
            "type": "t_uint256"
          },
          {
            "astId": 4664,
            "contract": "contracts/takasure/TakasurePool.sol:TakasurePool",
            "label": "totalContributions",
            "offset": 0,
            "slot": "4",
            "type": "t_uint256"
          },
          {
            "astId": 4666,
            "contract": "contracts/takasure/TakasurePool.sol:TakasurePool",
            "label": "totalClaimReserve",
            "offset": 0,
            "slot": "5",
            "type": "t_uint256"
          },
          {
            "astId": 4668,
            "contract": "contracts/takasure/TakasurePool.sol:TakasurePool",
            "label": "totalFundReserve",
            "offset": 0,
            "slot": "6",
            "type": "t_uint256"
          },
          {
            "astId": 4670,
            "contract": "contracts/takasure/TakasurePool.sol:TakasurePool",
            "label": "proFormaFundReserve",
            "offset": 0,
            "slot": "7",
            "type": "t_uint256"
          },
          {
            "astId": 4672,
            "contract": "contracts/takasure/TakasurePool.sol:TakasurePool",
            "label": "proFormaClaimReserve",
            "offset": 0,
            "slot": "8",
            "type": "t_uint256"
          },
          {
            "astId": 4674,
            "contract": "contracts/takasure/TakasurePool.sol:TakasurePool",
            "label": "lossRatio",
            "offset": 0,
            "slot": "9",
            "type": "t_uint256"
          },
          {
            "astId": 4676,
            "contract": "contracts/takasure/TakasurePool.sol:TakasurePool",
            "label": "wakalaFee",
            "offset": 0,
            "slot": "10",
            "type": "t_uint8"
          },
          {
            "astId": 4678,
            "contract": "contracts/takasure/TakasurePool.sol:TakasurePool",
            "label": "bmaFundReserveShare",
            "offset": 1,
            "slot": "10",
            "type": "t_uint8"
          },
          {
            "astId": 4680,
            "contract": "contracts/takasure/TakasurePool.sol:TakasurePool",
            "label": "isOptimizerEnabled",
            "offset": 2,
            "slot": "10",
            "type": "t_bool"
          }
        ],
        "numberOfBytes": "352"
      },
      "t_uint16": {
        "encoding": "inplace",
        "label": "uint16",
        "numberOfBytes": "2"
      },
      "t_uint256": {
        "encoding": "inplace",
        "label": "uint256",
        "numberOfBytes": "32"
      },
      "t_uint8": {
        "encoding": "inplace",
        "label": "uint8",
        "numberOfBytes": "1"
      }
    }
  }
}